{
  "address": "0x89A22b7EB853734f94CF8e0a109d6308E786995C",
  "abi": [
    {
      "inputs": [
        {
          "internalType": "address",
          "name": "owner",
          "type": "address"
        },
        {
          "internalType": "bool",
          "name": "permissioned",
          "type": "bool"
        }
      ],
      "stateMutability": "nonpayable",
      "type": "constructor"
    },
    {
      "anonymous": false,
      "inputs": [
        {
          "indexed": true,
          "internalType": "address",
          "name": "previousOwner",
          "type": "address"
        },
        {
          "indexed": true,
          "internalType": "address",
          "name": "newOwner",
          "type": "address"
        }
      ],
      "name": "OwnershipTransferred",
      "type": "event"
    },
    {
      "inputs": [],
      "name": "MAX_MINT_AMOUNT",
      "outputs": [
        {
          "internalType": "uint256",
          "name": "",
          "type": "uint256"
        }
      ],
      "stateMutability": "view",
      "type": "function"
    },
    {
      "inputs": [],
      "name": "USDB",
      "outputs": [
        {
          "internalType": "address",
          "name": "",
          "type": "address"
        }
      ],
      "stateMutability": "view",
      "type": "function"
    },
    {
      "inputs": [
        {
          "internalType": "address",
          "name": "asset",
          "type": "address"
        }
      ],
      "name": "isMintable",
      "outputs": [
        {
          "internalType": "bool",
          "name": "",
          "type": "bool"
        }
      ],
      "stateMutability": "view",
      "type": "function"
    },
    {
      "inputs": [],
      "name": "isPermissioned",
      "outputs": [
        {
          "internalType": "bool",
          "name": "",
          "type": "bool"
        }
      ],
      "stateMutability": "view",
      "type": "function"
    },
    {
      "inputs": [
        {
          "internalType": "address",
          "name": "token",
          "type": "address"
        },
        {
          "internalType": "address",
          "name": "to",
          "type": "address"
        },
        {
          "internalType": "uint256",
          "name": "amount",
          "type": "uint256"
        }
      ],
      "name": "mint",
      "outputs": [
        {
          "internalType": "uint256",
          "name": "",
          "type": "uint256"
        }
      ],
      "stateMutability": "nonpayable",
      "type": "function"
    },
    {
      "inputs": [],
      "name": "owner",
      "outputs": [
        {
          "internalType": "address",
          "name": "",
          "type": "address"
        }
      ],
      "stateMutability": "view",
      "type": "function"
    },
    {
      "inputs": [],
      "name": "renounceOwnership",
      "outputs": [],
      "stateMutability": "nonpayable",
      "type": "function"
    },
    {
      "inputs": [
        {
          "internalType": "address",
          "name": "asset",
          "type": "address"
        },
        {
          "internalType": "bool",
          "name": "active",
          "type": "bool"
        }
      ],
      "name": "setMintable",
      "outputs": [],
      "stateMutability": "nonpayable",
      "type": "function"
    },
    {
      "inputs": [
        {
          "internalType": "bool",
          "name": "permissioned",
          "type": "bool"
        }
      ],
      "name": "setPermissioned",
      "outputs": [],
      "stateMutability": "nonpayable",
      "type": "function"
    },
    {
      "inputs": [
        {
          "internalType": "address",
          "name": "newOwner",
          "type": "address"
        }
      ],
      "name": "transferOwnership",
      "outputs": [],
      "stateMutability": "nonpayable",
      "type": "function"
    },
    {
      "inputs": [
        {
          "internalType": "address[]",
          "name": "childContracts",
          "type": "address[]"
        },
        {
          "internalType": "address",
          "name": "newOwner",
          "type": "address"
        }
      ],
      "name": "transferOwnershipOfChild",
      "outputs": [],
      "stateMutability": "nonpayable",
      "type": "function"
    }
  ],
  "transactionHash": "0x804215388dbf6b2400e0724a89901209a46e4f2e1eda3fe7528448588a394de9",
  "args": [
    "0x018281853eCC543Aa251732e8FDaa7323247eBeB",
    false
  ],
  "numDeployments": 1,
  "solcInputHash": "2684467b8f7757f43fe87a0ef5ee1384",
  "bytecode": "0x608060405234801561001057600080fd5b5060405161114338038061114383398101604081905261002f9161019e565b600080546001600160a01b03191633908117825560405190918291600080516020611123833981519152908290a3506001600160a01b03821661007157600080fd5b61007a82610091565b6002805460ff1916911515919091179055506101e9565b6000546001600160a01b031633146100f05760405162461bcd60e51b815260206004820181905260248201527f4f776e61626c653a2063616c6c6572206973206e6f7420746865206f776e657260448201526064015b60405180910390fd5b6001600160a01b0381166101555760405162461bcd60e51b815260206004820152602660248201527f4f776e61626c653a206e6577206f776e657220697320746865207a65726f206160448201526564647265737360d01b60648201526084016100e7565b600080546040516001600160a01b038085169392169160008051602061112383398151915291a3600080546001600160a01b0319166001600160a01b0392909216919091179055565b600080604083850312156101b157600080fd5b82516001600160a01b03811681146101c857600080fd5b602084015190925080151581146101de57600080fd5b809150509250929050565b610f2b806101f86000396000f3fe608060405234801561001057600080fd5b50600436106100c95760003560e01c80638da5cb5b11610081578063f2fde38b1161005b578063f2fde38b146101d7578063f7eb06c4146101ea578063fa9b7018146101fd57600080fd5b80638da5cb5b1461018d578063c6c3bbe6146101ab578063e2a4157c146101cc57600080fd5b806331a0edec116100b257806331a0edec14610132578063506f26cc14610172578063715018a61461018557600080fd5b80631a678cd3146100ce578063222b15fb146100e3575b600080fd5b6100e16100dc366004610b51565b610206565b005b61011d6100f1366004610b9e565b73ffffffffffffffffffffffffffffffffffffffff1660009081526001602052604090205460ff161590565b60405190151581526020015b60405180910390f35b61014d73420000000000000000000000000000000000002281565b60405173ffffffffffffffffffffffffffffffffffffffff9091168152602001610129565b6100e1610180366004610bb9565b6102bd565b6100e161040c565b60005473ffffffffffffffffffffffffffffffffffffffff1661014d565b6101be6101b9366004610c3d565b6104fc565b604051908152602001610129565b60025460ff1661011d565b6100e16101e5366004610b9e565b6108ba565b6100e16101f8366004610c79565b610a6b565b6101be61271081565b60005473ffffffffffffffffffffffffffffffffffffffff16331461028c576040517f08c379a000000000000000000000000000000000000000000000000000000000815260206004820181905260248201527f4f776e61626c653a2063616c6c6572206973206e6f7420746865206f776e657260448201526064015b60405180910390fd5b600280547fffffffffffffffffffffffffffffffffffffffffffffffffffffffffffffff0016911515919091179055565b60005473ffffffffffffffffffffffffffffffffffffffff16331461033e576040517f08c379a000000000000000000000000000000000000000000000000000000000815260206004820181905260248201527f4f776e61626c653a2063616c6c6572206973206e6f7420746865206f776e65726044820152606401610283565b60005b828110156104065783838281811061035b5761035b610cb0565b90506020020160208101906103709190610b9e565b6040517ff2fde38b00000000000000000000000000000000000000000000000000000000815273ffffffffffffffffffffffffffffffffffffffff8481166004830152919091169063f2fde38b90602401600060405180830381600087803b1580156103db57600080fd5b505af11580156103ef573d6000803e3d6000fd5b5050505080806103fe90610d0e565b915050610341565b50505050565b60005473ffffffffffffffffffffffffffffffffffffffff16331461048d576040517f08c379a000000000000000000000000000000000000000000000000000000000815260206004820181905260248201527f4f776e61626c653a2063616c6c6572206973206e6f7420746865206f776e65726044820152606401610283565b6000805460405173ffffffffffffffffffffffffffffffffffffffff909116907f8be0079c531659141344cd1fd0a4f28419497f9722a3daafe3b4186f6b6457e0908390a3600080547fffffffffffffffffffffffff0000000000000000000000000000000000000000169055565b60025460009060ff161515600114156105905760005473ffffffffffffffffffffffffffffffffffffffff163314610590576040517f08c379a000000000000000000000000000000000000000000000000000000000815260206004820181905260248201527f4f776e61626c653a2063616c6c6572206973206e6f7420746865206f776e65726044820152606401610283565b73ffffffffffffffffffffffffffffffffffffffff841660009081526001602052604090205460ff1615610620576040517f08c379a000000000000000000000000000000000000000000000000000000000815260206004820152601360248201527f4572726f723a206e6f74206d696e7461626c65000000000000000000000000006044820152606401610283565b8373ffffffffffffffffffffffffffffffffffffffff1663313ce5676040518163ffffffff1660e01b8152600401602060405180830381865afa15801561066b573d6000803e3d6000fd5b505050506040513d601f19601f8201168201806040525081019061068f9190610d47565b61069a90600a610e8c565b6106a690612710610e9b565b821115610735576040517f08c379a000000000000000000000000000000000000000000000000000000000815260206004820152602660248201527f4572726f723a204d696e74206c696d6974207472616e73616374696f6e20657860448201527f63656564656400000000000000000000000000000000000000000000000000006064820152608401610283565b73ffffffffffffffffffffffffffffffffffffffff84167342000000000000000000000000000000000000221415610818576040517fa9059cbb00000000000000000000000000000000000000000000000000000000815273ffffffffffffffffffffffffffffffffffffffff84166004820152602481018390527342000000000000000000000000000000000000229063a9059cbb906044016020604051808303816000875af11580156107ee573d6000803e3d6000fd5b505050506040513d601f19601f820116820180604052508101906108129190610ed8565b506108b3565b6040517f40c10f1900000000000000000000000000000000000000000000000000000000815273ffffffffffffffffffffffffffffffffffffffff8481166004830152602482018490528516906340c10f19906044016020604051808303816000875af115801561088d573d6000803e3d6000fd5b505050506040513d601f19601f820116820180604052508101906108b19190610ed8565b505b5092915050565b60005473ffffffffffffffffffffffffffffffffffffffff16331461093b576040517f08c379a000000000000000000000000000000000000000000000000000000000815260206004820181905260248201527f4f776e61626c653a2063616c6c6572206973206e6f7420746865206f776e65726044820152606401610283565b73ffffffffffffffffffffffffffffffffffffffff81166109de576040517f08c379a000000000000000000000000000000000000000000000000000000000815260206004820152602660248201527f4f776e61626c653a206e6577206f776e657220697320746865207a65726f206160448201527f64647265737300000000000000000000000000000000000000000000000000006064820152608401610283565b6000805460405173ffffffffffffffffffffffffffffffffffffffff808516939216917f8be0079c531659141344cd1fd0a4f28419497f9722a3daafe3b4186f6b6457e091a3600080547fffffffffffffffffffffffff00000000000000000000000000000000000000001673ffffffffffffffffffffffffffffffffffffffff92909216919091179055565b60005473ffffffffffffffffffffffffffffffffffffffff163314610aec576040517f08c379a000000000000000000000000000000000000000000000000000000000815260206004820181905260248201527f4f776e61626c653a2063616c6c6572206973206e6f7420746865206f776e65726044820152606401610283565b73ffffffffffffffffffffffffffffffffffffffff909116600090815260016020526040902080547fffffffffffffffffffffffffffffffffffffffffffffffffffffffffffffff00169115919091179055565b8015158114610b4e57600080fd5b50565b600060208284031215610b6357600080fd5b8135610b6e81610b40565b9392505050565b803573ffffffffffffffffffffffffffffffffffffffff81168114610b9957600080fd5b919050565b600060208284031215610bb057600080fd5b610b6e82610b75565b600080600060408486031215610bce57600080fd5b833567ffffffffffffffff80821115610be657600080fd5b818601915086601f830112610bfa57600080fd5b813581811115610c0957600080fd5b8760208260051b8501011115610c1e57600080fd5b602092830195509350610c349186019050610b75565b90509250925092565b600080600060608486031215610c5257600080fd5b610c5b84610b75565b9250610c6960208501610b75565b9150604084013590509250925092565b60008060408385031215610c8c57600080fd5b610c9583610b75565b91506020830135610ca581610b40565b809150509250929050565b7f4e487b7100000000000000000000000000000000000000000000000000000000600052603260045260246000fd5b7f4e487b7100000000000000000000000000000000000000000000000000000000600052601160045260246000fd5b60007fffffffffffffffffffffffffffffffffffffffffffffffffffffffffffffffff821415610d4057610d40610cdf565b5060010190565b600060208284031215610d5957600080fd5b815160ff81168114610b6e57600080fd5b600181815b80851115610dc357817fffffffffffffffffffffffffffffffffffffffffffffffffffffffffffffffff04821115610da957610da9610cdf565b80851615610db657918102915b93841c9390800290610d6f565b509250929050565b600082610dda57506001610e86565b81610de757506000610e86565b8160018114610dfd5760028114610e0757610e23565b6001915050610e86565b60ff841115610e1857610e18610cdf565b50506001821b610e86565b5060208310610133831016604e8410600b8410161715610e46575081810a610e86565b610e508383610d6a565b807fffffffffffffffffffffffffffffffffffffffffffffffffffffffffffffffff04821115610e8257610e82610cdf565b0290505b92915050565b6000610b6e60ff841683610dcb565b6000817fffffffffffffffffffffffffffffffffffffffffffffffffffffffffffffffff0483118215151615610ed357610ed3610cdf565b500290565b600060208284031215610eea57600080fd5b8151610b6e81610b4056fea2646970667358221220e331f520d697567f797870d1cd9ad3692d75407a54370e33409d37e26d6bcac264736f6c634300080a00338be0079c531659141344cd1fd0a4f28419497f9722a3daafe3b4186f6b6457e0",
  "devdoc": {
    "details": "Ownable Faucet Contract",
    "kind": "dev",
    "methods": {
      "isMintable(address)": {
        "params": {
          "asset": "The address of the asset"
        },
        "returns": {
          "_0": "True if the asset is mintable, false otherwise"
        }
      },
      "isPermissioned()": {
        "returns": {
          "_0": "Returns a boolean, if true the mode is enabled, if false is disabled"
        }
      },
      "mint(address,address,uint256)": {
        "params": {
          "amount": "The amount of tokens to mint",
          "to": "The address to send the minted tokens",
          "token": "The address of the token to perform the mint"
        },
        "returns": {
          "_0": "The amount minted*"
        }
      },
      "owner()": {
        "details": "Returns the address of the current owner."
      },
      "renounceOwnership()": {
        "details": "Leaves the contract without owner. It will not be possible to call `onlyOwner` functions anymore. Can only be called by the current owner. NOTE: Renouncing ownership will leave the contract without an owner, thereby removing any functionality that is only available to the owner."
      },
      "setMintable(address,bool)": {
        "params": {
          "active": "True to enable, false to disable",
          "asset": "The address of the asset"
        }
      },
      "setPermissioned(bool)": {
        "params": {
          "value": "If true, ask for authentication at `mint` function, if false, disable the authentication"
        }
      },
      "transferOwnership(address)": {
        "details": "Transfers ownership of the contract to a new account (`newOwner`). Can only be called by the current owner."
      },
      "transferOwnershipOfChild(address[],address)": {
        "params": {
          "childContracts": "A list of child contract addresses",
          "newOwner": "The address of the new owner"
        }
      }
    },
    "stateVariables": {
      "MAX_MINT_AMOUNT": {
        "return": "The maximum amount of tokens per mint allowed",
        "returns": {
          "_0": "The maximum amount of tokens per mint allowed"
        }
      }
    },
    "title": "Faucet",
    "version": 1
  },
  "userdoc": {
    "kind": "user",
    "methods": {
      "MAX_MINT_AMOUNT()": {
        "notice": "Returns the maximum amount of tokens per mint allowed"
      },
      "isMintable(address)": {
        "notice": "Returns whether the asset is mintable"
      },
      "isPermissioned()": {
        "notice": "Getter to determine if permissioned mode is enabled or disabled"
      },
      "mint(address,address,uint256)": {
        "notice": "Function to mint Testnet tokens to the destination address"
      },
      "setMintable(address,bool)": {
        "notice": "Enable or disable the minting of the faucet asset"
      },
      "setPermissioned(bool)": {
        "notice": "Enable or disable the need of authentication to call `mint` function"
      },
      "transferOwnershipOfChild(address[],address)": {
        "notice": "Transfer the ownership of child contracts"
      }
    },
    "version": 1
  },
  "storageLayout": {
    "storage": [
      {
        "astId": 915,
        "contract": "contracts/periphery-v3/contracts/mocks/testnet-helpers/Faucet.sol:Faucet",
        "label": "_owner",
        "offset": 0,
        "slot": "0",
        "type": "t_address"
      },
      {
        "astId": 1192,
        "contract": "contracts/periphery-v3/contracts/mocks/testnet-helpers/Faucet.sol:Faucet",
        "label": "_nonMintable",
        "offset": 0,
        "slot": "1",
        "type": "t_mapping(t_address,t_bool)"
      },
      {
        "astId": 1194,
        "contract": "contracts/periphery-v3/contracts/mocks/testnet-helpers/Faucet.sol:Faucet",
        "label": "_permissioned",
        "offset": 0,
        "slot": "2",
        "type": "t_bool"
      }
    ],
    "types": {
      "t_address": {
        "encoding": "inplace",
        "label": "address",
        "numberOfBytes": "20"
      },
      "t_bool": {
        "encoding": "inplace",
        "label": "bool",
        "numberOfBytes": "1"
      },
      "t_mapping(t_address,t_bool)": {
        "encoding": "mapping",
        "key": "t_address",
        "label": "mapping(address => bool)",
        "numberOfBytes": "32",
        "value": "t_bool"
      }
    }
  }
}