{
  "address": "0xAC5028C6588440A0b96c1Ae375e4DD73929c666a",
  "abi": [
    {
      "inputs": [
        {
          "internalType": "address",
          "name": "_poolWrapper",
          "type": "address"
        }
      ],
      "stateMutability": "nonpayable",
      "type": "constructor"
    },
    {
      "inputs": [],
      "name": "AddressZero",
      "type": "error"
    },
    {
      "anonymous": false,
      "inputs": [
        {
          "indexed": false,
          "internalType": "address",
          "name": "user",
          "type": "address"
        },
        {
          "indexed": false,
          "internalType": "uint256",
          "name": "amount",
          "type": "uint256"
        }
      ],
      "name": "GasClaimed",
      "type": "event"
    },
    {
      "anonymous": false,
      "inputs": [
        {
          "indexed": false,
          "internalType": "address",
          "name": "user",
          "type": "address"
        },
        {
          "indexed": false,
          "internalType": "uint256",
          "name": "amount",
          "type": "uint256"
        }
      ],
      "name": "GasRefunded",
      "type": "event"
    },
    {
      "anonymous": false,
      "inputs": [
        {
          "indexed": true,
          "internalType": "address",
          "name": "previousOwner",
          "type": "address"
        },
        {
          "indexed": true,
          "internalType": "address",
          "name": "newOwner",
          "type": "address"
        }
      ],
      "name": "OwnershipTransferred",
      "type": "event"
    },
    {
      "inputs": [],
      "name": "POOL_WRAPPER",
      "outputs": [
        {
          "internalType": "address",
          "name": "",
          "type": "address"
        }
      ],
      "stateMutability": "view",
      "type": "function"
    },
    {
      "inputs": [
        {
          "internalType": "address",
          "name": "user",
          "type": "address"
        },
        {
          "internalType": "uint256",
          "name": "amount",
          "type": "uint256"
        },
        {
          "internalType": "enum IGasRefund.RefundType",
          "name": "refundType",
          "type": "uint8"
        }
      ],
      "name": "addGasRefund",
      "outputs": [],
      "stateMutability": "nonpayable",
      "type": "function"
    },
    {
      "inputs": [],
      "name": "claimGas",
      "outputs": [],
      "stateMutability": "nonpayable",
      "type": "function"
    },
    {
      "inputs": [
        {
          "internalType": "address",
          "name": "user",
          "type": "address"
        }
      ],
      "name": "gasBalance",
      "outputs": [
        {
          "internalType": "uint256",
          "name": "",
          "type": "uint256"
        }
      ],
      "stateMutability": "view",
      "type": "function"
    },
    {
      "inputs": [],
      "name": "owner",
      "outputs": [
        {
          "internalType": "address",
          "name": "",
          "type": "address"
        }
      ],
      "stateMutability": "view",
      "type": "function"
    },
    {
      "inputs": [],
      "name": "renounceOwnership",
      "outputs": [],
      "stateMutability": "nonpayable",
      "type": "function"
    },
    {
      "inputs": [
        {
          "internalType": "enum IGasRefund.RefundType",
          "name": "refundType",
          "type": "uint8"
        },
        {
          "internalType": "uint256",
          "name": "ratio",
          "type": "uint256"
        }
      ],
      "name": "setRefundRatio",
      "outputs": [],
      "stateMutability": "nonpayable",
      "type": "function"
    },
    {
      "inputs": [
        {
          "internalType": "address",
          "name": "newOwner",
          "type": "address"
        }
      ],
      "name": "transferOwnership",
      "outputs": [],
      "stateMutability": "nonpayable",
      "type": "function"
    },
    {
      "stateMutability": "payable",
      "type": "receive"
    }
  ],
  "transactionHash": "0xda0cf54dc297f00b8d19352eb85f5d8197f5f21ab95bd070e3e2c9323978a014",
  "args": [
    "0x24Be59E007E6551Bd0f2d5745036504E48624D18"
  ],
  "numDeployments": 1,
  "solcInputHash": "4d0b7bcde494f325f36fe8bea2fdf3a5",
  "bytecode": "0x60a060405234801561001057600080fd5b50604051610a77380380610a7783398101604081905261002f91610181565b61003833610131565b6001600160a01b03811661005f57604051639fabe1c160e01b815260040160405180910390fd5b6001600160a01b03166080526002602052611b587fac33ff75c19e70fe83507db0d683fd3465c996598dc972688b7ace676c89077b819055611f407fe90b7bceb6e7df5418fb78d8ee546e97c83a08bbccc01a0644d599ccd2a7c2e08190557f679795a0195a1b76cdebb7c51d74e058aee92919b8c3389af86ef24535e8a28c557f88601476d11616a71c5be67555bd1dff4b1cbf21533d2669b768b61518cfe1c35560046000526117707fee60d0579bcffd98e668647d59fec1ff86a7fb340ce572e844f234ae73a6918f556101b1565b600080546001600160a01b038381166001600160a01b0319831681178455604051919092169283917f8be0079c531659141344cd1fd0a4f28419497f9722a3daafe3b4186f6b6457e09190a35050565b60006020828403121561019357600080fd5b81516001600160a01b03811681146101aa57600080fd5b9392505050565b6080516108a56101d260003960008181609d01526102bd01526108a56000f3fe60806040526004361061007f5760003560e01c80639dafaf6d1161004e5780639dafaf6d1461014b578063a95d6b1c1461019c578063cff29e67146101b1578063f2fde38b146101d157600080fd5b806359bbc0431461008b578063715018a6146100e95780638da5cb5b14610100578063957d31301461012b57600080fd5b3661008657005b600080fd5b34801561009757600080fd5b506100bf7f000000000000000000000000000000000000000000000000000000000000000081565b60405173ffffffffffffffffffffffffffffffffffffffff90911681526020015b60405180910390f35b3480156100f557600080fd5b506100fe6101f1565b005b34801561010c57600080fd5b5060005473ffffffffffffffffffffffffffffffffffffffff166100bf565b34801561013757600080fd5b506100fe61014636600461071a565b610205565b34801561015757600080fd5b5061018e610166366004610768565b73ffffffffffffffffffffffffffffffffffffffff1660009081526001602052604090205490565b6040519081526020016100e0565b3480156101a857600080fd5b506100fe61024a565b3480156101bd57600080fd5b506100fe6101cc36600461078a565b6102a5565b3480156101dd57600080fd5b506100fe6101ec366004610768565b61042d565b6101f96104e4565b6102036000610565565b565b61020d6104e4565b8060026000846004811115610224576102246107c6565b6004811115610235576102356107c6565b81526020810191909152604001600020555050565b33600081815260016020526040812080549190559061026990826105da565b60408051338152602081018390527f712fd84fea7ca9889804a2092168c215381d1b1af5f71843eeb455309930d72f910160405180910390a150565b3373ffffffffffffffffffffffffffffffffffffffff7f00000000000000000000000000000000000000000000000000000000000000001614610349576040517f08c379a000000000000000000000000000000000000000000000000000000000815260206004820152601160248201527f6f6e6c7920706f6f6c207772617070657200000000000000000000000000000060448201526064015b60405180910390fd5b600060026000836004811115610361576103616107c6565b6004811115610372576103726107c6565b8152602001908152602001600020549050600061039882856106c390919063ffffffff16565b73ffffffffffffffffffffffffffffffffffffffff86166000908152600160205260408120805492935083929091906103d29084906107f5565b90915550506040805173ffffffffffffffffffffffffffffffffffffffff87168152602081018390527f667ad9c7167aea9bfcff8b321015abb0d8b77cf151a377e09e12b9017f9889fd910160405180910390a15050505050565b6104356104e4565b73ffffffffffffffffffffffffffffffffffffffff81166104d8576040517f08c379a000000000000000000000000000000000000000000000000000000000815260206004820152602660248201527f4f776e61626c653a206e6577206f776e657220697320746865207a65726f206160448201527f64647265737300000000000000000000000000000000000000000000000000006064820152608401610340565b6104e181610565565b50565b60005473ffffffffffffffffffffffffffffffffffffffff163314610203576040517f08c379a000000000000000000000000000000000000000000000000000000000815260206004820181905260248201527f4f776e61626c653a2063616c6c6572206973206e6f7420746865206f776e65726044820152606401610340565b6000805473ffffffffffffffffffffffffffffffffffffffff8381167fffffffffffffffffffffffff0000000000000000000000000000000000000000831681178455604051919092169283917f8be0079c531659141344cd1fd0a4f28419497f9722a3daafe3b4186f6b6457e09190a35050565b6040805160008082526020820190925273ffffffffffffffffffffffffffffffffffffffff84169083906040516106119190610834565b60006040518083038185875af1925050503d806000811461064e576040519150601f19603f3d011682016040523d82523d6000602084013e610653565b606091505b50509050806106be576040517f08c379a000000000000000000000000000000000000000000000000000000000815260206004820152601360248201527f4554485f5452414e534645525f4641494c4544000000000000000000000000006044820152606401610340565b505050565b600081157fffffffffffffffffffffffffffffffffffffffffffffffffffffffffffffec77839004841115176106f857600080fd5b506127109102611388010490565b80356005811061071557600080fd5b919050565b6000806040838503121561072d57600080fd5b61073683610706565b946020939093013593505050565b803573ffffffffffffffffffffffffffffffffffffffff8116811461071557600080fd5b60006020828403121561077a57600080fd5b61078382610744565b9392505050565b60008060006060848603121561079f57600080fd5b6107a884610744565b9250602084013591506107bd60408501610706565b90509250925092565b7f4e487b7100000000000000000000000000000000000000000000000000000000600052602160045260246000fd5b6000821982111561082f577f4e487b7100000000000000000000000000000000000000000000000000000000600052601160045260246000fd5b500190565b6000825160005b81811015610855576020818601810151858301520161083b565b81811115610864576000828501525b50919091019291505056fea2646970667358221220be8236983fb3b7f266538bf84ec9d9603bb3c3958bfd0cd19823c514015bea7364736f6c634300080a0033",
  "devdoc": {
    "kind": "dev",
    "methods": {
      "owner()": {
        "details": "Returns the address of the current owner."
      },
      "renounceOwnership()": {
        "details": "Leaves the contract without owner. It will not be possible to call `onlyOwner` functions. Can only be called by the current owner. NOTE: Renouncing ownership will leave the contract without an owner, thereby disabling any functionality that is only available to the owner."
      },
      "transferOwnership(address)": {
        "details": "Transfers ownership of the contract to a new account (`newOwner`). Can only be called by the current owner."
      }
    },
    "version": 1
  },
  "userdoc": {
    "kind": "user",
    "methods": {},
    "version": 1
  },
  "storageLayout": {
    "storage": [
      {
        "astId": 7,
        "contract": "contracts/GasRefund.sol:GasRefund",
        "label": "_owner",
        "offset": 0,
        "slot": "0",
        "type": "t_address"
      },
      {
        "astId": 1071,
        "contract": "contracts/GasRefund.sol:GasRefund",
        "label": "_balances",
        "offset": 0,
        "slot": "1",
        "type": "t_mapping(t_address,t_uint256)"
      },
      {
        "astId": 1076,
        "contract": "contracts/GasRefund.sol:GasRefund",
        "label": "_refundRatio",
        "offset": 0,
        "slot": "2",
        "type": "t_mapping(t_enum(RefundType)4339,t_uint256)"
      }
    ],
    "types": {
      "t_address": {
        "encoding": "inplace",
        "label": "address",
        "numberOfBytes": "20"
      },
      "t_enum(RefundType)4339": {
        "encoding": "inplace",
        "label": "enum IGasRefund.RefundType",
        "numberOfBytes": "1"
      },
      "t_mapping(t_address,t_uint256)": {
        "encoding": "mapping",
        "key": "t_address",
        "label": "mapping(address => uint256)",
        "numberOfBytes": "32",
        "value": "t_uint256"
      },
      "t_mapping(t_enum(RefundType)4339,t_uint256)": {
        "encoding": "mapping",
        "key": "t_enum(RefundType)4339",
        "label": "mapping(enum IGasRefund.RefundType => uint256)",
        "numberOfBytes": "32",
        "value": "t_uint256"
      },
      "t_uint256": {
        "encoding": "inplace",
        "label": "uint256",
        "numberOfBytes": "32"
      }
    }
  }
}