{
  "address": "0x9546e4A3c00aEd27bEFA1EF2fC5cbEFe7877E47C",
  "abi": [
    {
      "inputs": [
        {
          "internalType": "address",
          "name": "_aToken",
          "type": "address"
        },
        {
          "internalType": "address",
          "name": "_yieldToken",
          "type": "address"
        }
      ],
      "stateMutability": "nonpayable",
      "type": "constructor"
    },
    {
      "anonymous": false,
      "inputs": [
        {
          "indexed": true,
          "internalType": "address",
          "name": "previousOwner",
          "type": "address"
        },
        {
          "indexed": true,
          "internalType": "address",
          "name": "newOwner",
          "type": "address"
        }
      ],
      "name": "OwnershipTransferred",
      "type": "event"
    },
    {
      "anonymous": false,
      "inputs": [
        {
          "indexed": false,
          "internalType": "address",
          "name": "account",
          "type": "address"
        }
      ],
      "name": "Paused",
      "type": "event"
    },
    {
      "anonymous": false,
      "inputs": [
        {
          "indexed": true,
          "internalType": "address",
          "name": "token",
          "type": "address"
        },
        {
          "indexed": true,
          "internalType": "address",
          "name": "to",
          "type": "address"
        },
        {
          "indexed": false,
          "internalType": "uint256",
          "name": "amount",
          "type": "uint256"
        }
      ],
      "name": "RescueToken",
      "type": "event"
    },
    {
      "anonymous": false,
      "inputs": [
        {
          "indexed": false,
          "internalType": "address",
          "name": "account",
          "type": "address"
        }
      ],
      "name": "Unpaused",
      "type": "event"
    },
    {
      "anonymous": false,
      "inputs": [
        {
          "indexed": false,
          "internalType": "uint256",
          "name": "amount",
          "type": "uint256"
        },
        {
          "indexed": false,
          "internalType": "uint256",
          "name": "timestamp",
          "type": "uint256"
        }
      ],
      "name": "YieldDistributed",
      "type": "event"
    },
    {
      "inputs": [],
      "name": "aToken",
      "outputs": [
        {
          "internalType": "address",
          "name": "",
          "type": "address"
        }
      ],
      "stateMutability": "view",
      "type": "function"
    },
    {
      "inputs": [
        {
          "internalType": "address",
          "name": "user",
          "type": "address"
        }
      ],
      "name": "aTokenBalanceChange",
      "outputs": [],
      "stateMutability": "nonpayable",
      "type": "function"
    },
    {
      "inputs": [],
      "name": "claimYield",
      "outputs": [],
      "stateMutability": "nonpayable",
      "type": "function"
    },
    {
      "inputs": [],
      "name": "currentRound",
      "outputs": [
        {
          "internalType": "uint256",
          "name": "",
          "type": "uint256"
        }
      ],
      "stateMutability": "view",
      "type": "function"
    },
    {
      "inputs": [],
      "name": "currentRoundTotalPoint",
      "outputs": [
        {
          "internalType": "uint256",
          "name": "",
          "type": "uint256"
        }
      ],
      "stateMutability": "view",
      "type": "function"
    },
    {
      "inputs": [],
      "name": "currentTotalSupply",
      "outputs": [
        {
          "internalType": "uint256",
          "name": "",
          "type": "uint256"
        }
      ],
      "stateMutability": "view",
      "type": "function"
    },
    {
      "inputs": [
        {
          "internalType": "uint256",
          "name": "amount",
          "type": "uint256"
        }
      ],
      "name": "distributeYield",
      "outputs": [],
      "stateMutability": "payable",
      "type": "function"
    },
    {
      "inputs": [
        {
          "internalType": "address",
          "name": "user",
          "type": "address"
        }
      ],
      "name": "getPendingYield",
      "outputs": [
        {
          "internalType": "uint256",
          "name": "",
          "type": "uint256"
        }
      ],
      "stateMutability": "view",
      "type": "function"
    },
    {
      "inputs": [
        {
          "internalType": "address",
          "name": "user",
          "type": "address"
        },
        {
          "internalType": "uint256",
          "name": "round",
          "type": "uint256"
        }
      ],
      "name": "getUserRoundPoint",
      "outputs": [
        {
          "internalType": "uint256",
          "name": "",
          "type": "uint256"
        }
      ],
      "stateMutability": "view",
      "type": "function"
    },
    {
      "inputs": [],
      "name": "lastTotalPointUpdateTime",
      "outputs": [
        {
          "internalType": "uint256",
          "name": "",
          "type": "uint256"
        }
      ],
      "stateMutability": "view",
      "type": "function"
    },
    {
      "inputs": [],
      "name": "owner",
      "outputs": [
        {
          "internalType": "address",
          "name": "",
          "type": "address"
        }
      ],
      "stateMutability": "view",
      "type": "function"
    },
    {
      "inputs": [],
      "name": "paused",
      "outputs": [
        {
          "internalType": "bool",
          "name": "",
          "type": "bool"
        }
      ],
      "stateMutability": "view",
      "type": "function"
    },
    {
      "inputs": [],
      "name": "renounceOwnership",
      "outputs": [],
      "stateMutability": "nonpayable",
      "type": "function"
    },
    {
      "inputs": [
        {
          "internalType": "address",
          "name": "token",
          "type": "address"
        },
        {
          "internalType": "address",
          "name": "to",
          "type": "address"
        },
        {
          "internalType": "uint256",
          "name": "amount",
          "type": "uint256"
        }
      ],
      "name": "rescueToken",
      "outputs": [],
      "stateMutability": "nonpayable",
      "type": "function"
    },
    {
      "inputs": [
        {
          "internalType": "uint256",
          "name": "",
          "type": "uint256"
        }
      ],
      "name": "roundSettleTime",
      "outputs": [
        {
          "internalType": "uint256",
          "name": "",
          "type": "uint256"
        }
      ],
      "stateMutability": "view",
      "type": "function"
    },
    {
      "inputs": [
        {
          "internalType": "address",
          "name": "newOwner",
          "type": "address"
        }
      ],
      "name": "transferOwnership",
      "outputs": [],
      "stateMutability": "nonpayable",
      "type": "function"
    },
    {
      "inputs": [
        {
          "internalType": "address",
          "name": "",
          "type": "address"
        }
      ],
      "name": "userInfo",
      "outputs": [
        {
          "internalType": "uint256",
          "name": "currentBalance",
          "type": "uint256"
        },
        {
          "internalType": "uint256",
          "name": "balanceUpdateTime",
          "type": "uint256"
        },
        {
          "internalType": "uint256",
          "name": "pointSettleRound",
          "type": "uint256"
        },
        {
          "internalType": "uint256",
          "name": "settledPoint",
          "type": "uint256"
        },
        {
          "internalType": "uint256",
          "name": "yieldSettleRound",
          "type": "uint256"
        }
      ],
      "stateMutability": "view",
      "type": "function"
    },
    {
      "inputs": [
        {
          "internalType": "uint256",
          "name": "",
          "type": "uint256"
        }
      ],
      "name": "yieldPerPoint",
      "outputs": [
        {
          "internalType": "uint256",
          "name": "",
          "type": "uint256"
        }
      ],
      "stateMutability": "view",
      "type": "function"
    },
    {
      "inputs": [],
      "name": "yieldToken",
      "outputs": [
        {
          "internalType": "address",
          "name": "",
          "type": "address"
        }
      ],
      "stateMutability": "view",
      "type": "function"
    }
  ],
  "transactionHash": "0xca4202fd5cc6f67ad70175ed5f8a602576e8ae0f37028abd2689944b1f18cdc3",
  "args": [
    "0xED6bAa6b1e2C93811a419012F04D84b2A5084FB9",
    "0xb55416fbc70142B9b76F0d3D65Eb190493C13F15"
  ],
  "numDeployments": 4,
  "solcInputHash": "b7b44c970f92b53d43a9aa0afc908d2f",
  "bytecode": "0x60c06040523480156200001157600080fd5b50604051620018f7380380620018f78339810160408190526200003491620000d9565b6200003f336200006c565b6000805460ff60a01b1916905560018080556007556001600160a01b0391821660a0521660805262000111565b600080546001600160a01b038381166001600160a01b0319831681178455604051919092169283917f8be0079c531659141344cd1fd0a4f28419497f9722a3daafe3b4186f6b6457e09190a35050565b80516001600160a01b0381168114620000d457600080fd5b919050565b60008060408385031215620000ed57600080fd5b620000f883620000bc565b91506200010860208401620000bc565b90509250929050565b60805160a051611796620001616000396000818161039a0152818161070d01526108100152600081816102e0015281816108920152818161095801528181610dbc0152610e1d01526117966000f3fe6080604052600436106101445760003560e01c806376d5de85116100c0578063aa15738a11610074578063d59d9bb111610059578063d59d9bb1146103e5578063e5711e8b14610412578063f2fde38b1461043257600080fd5b8063aa15738a146103bc578063c8cc5cd8146103d257600080fd5b80638a19c8bc116100a55780638a19c8bc146103475780638da5cb5b1461035d578063a0c1f15e1461038857600080fd5b806376d5de85146102ce578063842dd94f1461032757600080fd5b8063410b1da8116101175780635c975abb116100fc5780635c975abb1461025e578063715018a61461029957806373046339146102ae57600080fd5b8063410b1da814610228578063537bb1371461023e57600080fd5b80631959a002146101495780632eca952a146101c057806333054614146101e4578063406cf22914610211575b600080fd5b34801561015557600080fd5b506101936101643660046114dc565b600860205260009081526040902080546001820154600283015460038401546004909401549293919290919085565b604080519586526020860194909452928401919091526060830152608082015260a0015b60405180910390f35b3480156101cc57600080fd5b506101d660045481565b6040519081526020016101b7565b3480156101f057600080fd5b506101d66101ff3660046114fe565b60026020526000908152604090205481565b34801561021d57600080fd5b50610226610452565b005b34801561023457600080fd5b506101d660055481565b34801561024a57600080fd5b506101d66102593660046114dc565b610530565b34801561026a57600080fd5b5060005474010000000000000000000000000000000000000000900460ff1660405190151581526020016101b7565b3480156102a557600080fd5b506102266105f3565b3480156102ba57600080fd5b506101d66102c9366004611517565b610605565b3480156102da57600080fd5b506103027f000000000000000000000000000000000000000000000000000000000000000081565b60405173ffffffffffffffffffffffffffffffffffffffff90911681526020016101b7565b34801561033357600080fd5b506102266103423660046114dc565b610703565b34801561035357600080fd5b506101d660075481565b34801561036957600080fd5b5060005473ffffffffffffffffffffffffffffffffffffffff16610302565b34801561039457600080fd5b506103027f000000000000000000000000000000000000000000000000000000000000000081565b3480156103c857600080fd5b506101d660065481565b6102266103e03660046114fe565b610880565b3480156103f157600080fd5b506101d66104003660046114fe565b60036020526000908152604090205481565b34801561041e57600080fd5b5061022661042d366004611541565b610a20565b34801561043e57600080fd5b5061022661044d3660046114dc565b610adf565b61045a610b96565b610462610c1b565b33600081815260086020526040902061047a81610c8f565b6000600160075461048b91906115ac565b9050600080836004015460016104a191906115c3565b90505b82811161050f57600081815260058501602090815260408083205460029092528220549091906b033b2e3c9fd0803ce8000000906104e290846115db565b6104ec9190611618565b90506104f881856115c3565b93505050808061050790611653565b9150506104a4565b50600483018290556105213382610dba565b5050505061052e60018055565b565b73ffffffffffffffffffffffffffffffffffffffff811660009081526008602052604081206007548290610566906001906115ac565b90506000808360040154600161057c91906115c3565b90505b8281116105ea5760006105928783610605565b600083815260026020526040812054919250906b033b2e3c9fd0803ce8000000906105bd90846115db565b6105c79190611618565b90506105d381856115c3565b9350505080806105e290611653565b91505061057f565b50949350505050565b6105fb610e44565b61052e6000610ec5565b60006007548210610618575060006106fd565b73ffffffffffffffffffffffffffffffffffffffff83166000908152600860205260409020600281015483116106615760008381526005909101602052604090205490506106fd565b60006003816106716001876115ac565b8152602001908152602001600020549050600060036000868152602001908152602001600020549050818360010154116106cc5760006106b183836115ac565b84549091506106c19082906115db565b9450505050506106fd565b60008360010154826106de91906115ac565b84549091506106ee9082906115db565b84600301546106c191906115c3565b92915050565b61070b610f3a565b7f000000000000000000000000000000000000000000000000000000000000000073ffffffffffffffffffffffffffffffffffffffff1663b1bf962d6040518163ffffffff1660e01b8152600401602060405180830381865afa158015610776573d6000803e3d6000fd5b505050506040513d601f19601f8201168201806040525081019061079a919061168c565b60055573ffffffffffffffffffffffffffffffffffffffff811660009081526008602052604090206107cb81610c8f565b6040517f1da24f3e00000000000000000000000000000000000000000000000000000000815273ffffffffffffffffffffffffffffffffffffffff83811660048301527f00000000000000000000000000000000000000000000000000000000000000001690631da24f3e90602401602060405180830381865afa158015610857573d6000803e3d6000fd5b505050506040513d601f19601f8201168201806040525081019061087b919061168c565b905550565b610888610e44565b610890610f3a565b7f000000000000000000000000000000000000000000000000000000000000000073ffffffffffffffffffffffffffffffffffffffff1661093e57348114610939576040517f08c379a000000000000000000000000000000000000000000000000000000000815260206004820152600e60248201527f696e76616c696420616d6f756e7400000000000000000000000000000000000060448201526064015b60405180910390fd5b610980565b61098073ffffffffffffffffffffffffffffffffffffffff7f000000000000000000000000000000000000000000000000000000000000000016333084610f77565b60065460009061099c6b033b2e3c9fd0803ce8000000846115db565b6109a69190611618565b6007805460009081526002602090815260408083208590558354835260039091528120429055600681905581549293506109df83611653565b9091555050604080518381524260208201527ffe4996cd48c364c468cee70dd6b9061874ff01b05c5ea49311cbcabd9b9cb615910160405180910390a15050565b610a28610e44565b73ffffffffffffffffffffffffffffffffffffffff8316610a5257610a4d8282611059565b610a73565b610a7373ffffffffffffffffffffffffffffffffffffffff84168383611142565b8173ffffffffffffffffffffffffffffffffffffffff168373ffffffffffffffffffffffffffffffffffffffff167faabf44ab9d5bef08d1b60f287a337f0d11a248e49741ad189b429e47e98ba91083604051610ad291815260200190565b60405180910390a3505050565b610ae7610e44565b73ffffffffffffffffffffffffffffffffffffffff8116610b8a576040517f08c379a000000000000000000000000000000000000000000000000000000000815260206004820152602660248201527f4f776e61626c653a206e6577206f776e657220697320746865207a65726f206160448201527f64647265737300000000000000000000000000000000000000000000000000006064820152608401610930565b610b9381610ec5565b50565b60005474010000000000000000000000000000000000000000900460ff161561052e576040517f08c379a000000000000000000000000000000000000000000000000000000000815260206004820152601060248201527f5061757361626c653a20706175736564000000000000000000000000000000006044820152606401610930565b60026001541415610c88576040517f08c379a000000000000000000000000000000000000000000000000000000000815260206004820152601f60248201527f5265656e7472616e637947756172643a207265656e7472616e742063616c6c006044820152606401610930565b6002600155565b600081600201546001610ca291906115c3565b90505b600754811015610d25576000818152600360205260408120546001840154909190610cd090836115ac565b90506000818560000154610ce491906115db565b8560030154610cf391906115c3565b600085815260058701602052604081209190915560038601555050600183015580610d1d81611653565b915050610ca5565b5060006001600754610d3791906115ac565b60028301819055600081815260036020526040812054600185015492935090911115610d73576001830154610d6c90426115ac565b9050610d8f565b600082815260036020526040902054610d8c90426115ac565b90505b8254610d9b90826115db565b8360030154610daa91906115c3565b6003840155505042600190910155565b7f000000000000000000000000000000000000000000000000000000000000000073ffffffffffffffffffffffffffffffffffffffff16610e0357610dff8282611059565b5050565b610dff73ffffffffffffffffffffffffffffffffffffffff7f0000000000000000000000000000000000000000000000000000000000000000168383611142565b60005473ffffffffffffffffffffffffffffffffffffffff16331461052e576040517f08c379a000000000000000000000000000000000000000000000000000000000815260206004820181905260248201527f4f776e61626c653a2063616c6c6572206973206e6f7420746865206f776e65726044820152606401610930565b6000805473ffffffffffffffffffffffffffffffffffffffff8381167fffffffffffffffffffffffff0000000000000000000000000000000000000000831681178455604051919092169283917f8be0079c531659141344cd1fd0a4f28419497f9722a3daafe3b4186f6b6457e09190a35050565b600060045442610f4a91906115ac565b9050600081600554610f5c91906115db565b905080600654610f6c91906115c3565b600655505042600455565b60405173ffffffffffffffffffffffffffffffffffffffff808516602483015283166044820152606481018290526110539085907f23b872dd00000000000000000000000000000000000000000000000000000000906084015b604080517fffffffffffffffffffffffffffffffffffffffffffffffffffffffffffffffe08184030181529190526020810180517bffffffffffffffffffffffffffffffffffffffffffffffffffffffff167fffffffff0000000000000000000000000000000000000000000000000000000090931692909217909152611198565b50505050565b6040805160008082526020820190925273ffffffffffffffffffffffffffffffffffffffff841690839060405161109091906116d1565b60006040518083038185875af1925050503d80600081146110cd576040519150601f19603f3d011682016040523d82523d6000602084013e6110d2565b606091505b505090508061113d576040517f08c379a000000000000000000000000000000000000000000000000000000000815260206004820152601360248201527f4554485f5452414e534645525f4641494c4544000000000000000000000000006044820152606401610930565b505050565b60405173ffffffffffffffffffffffffffffffffffffffff831660248201526044810182905261113d9084907fa9059cbb0000000000000000000000000000000000000000000000000000000090606401610fd1565b60006111fa826040518060400160405280602081526020017f5361666545524332303a206c6f772d6c6576656c2063616c6c206661696c65648152508573ffffffffffffffffffffffffffffffffffffffff166112a79092919063ffffffff16565b905080516000148061121b57508080602001905181019061121b91906116ed565b61113d576040517f08c379a000000000000000000000000000000000000000000000000000000000815260206004820152602a60248201527f5361666545524332303a204552433230206f7065726174696f6e20646964206e60448201527f6f742073756363656564000000000000000000000000000000000000000000006064820152608401610930565b60606112b684846000856112be565b949350505050565b606082471015611350576040517f08c379a000000000000000000000000000000000000000000000000000000000815260206004820152602660248201527f416464726573733a20696e73756666696369656e742062616c616e636520666f60448201527f722063616c6c00000000000000000000000000000000000000000000000000006064820152608401610930565b6000808673ffffffffffffffffffffffffffffffffffffffff16858760405161137991906116d1565b60006040518083038185875af1925050503d80600081146113b6576040519150601f19603f3d011682016040523d82523d6000602084013e6113bb565b606091505b50915091506113cc878383876113d7565b979650505050505050565b6060831561146a5782516114635773ffffffffffffffffffffffffffffffffffffffff85163b611463576040517f08c379a000000000000000000000000000000000000000000000000000000000815260206004820152601d60248201527f416464726573733a2063616c6c20746f206e6f6e2d636f6e74726163740000006044820152606401610930565b50816112b6565b6112b6838381511561147f5781518083602001fd5b806040517f08c379a0000000000000000000000000000000000000000000000000000000008152600401610930919061170f565b803573ffffffffffffffffffffffffffffffffffffffff811681146114d757600080fd5b919050565b6000602082840312156114ee57600080fd5b6114f7826114b3565b9392505050565b60006020828403121561151057600080fd5b5035919050565b6000806040838503121561152a57600080fd5b611533836114b3565b946020939093013593505050565b60008060006060848603121561155657600080fd5b61155f846114b3565b925061156d602085016114b3565b9150604084013590509250925092565b7f4e487b7100000000000000000000000000000000000000000000000000000000600052601160045260246000fd5b6000828210156115be576115be61157d565b500390565b600082198211156115d6576115d661157d565b500190565b6000817fffffffffffffffffffffffffffffffffffffffffffffffffffffffffffffffff04831182151516156116135761161361157d565b500290565b60008261164e577f4e487b7100000000000000000000000000000000000000000000000000000000600052601260045260246000fd5b500490565b60007fffffffffffffffffffffffffffffffffffffffffffffffffffffffffffffffff8214156116855761168561157d565b5060010190565b60006020828403121561169e57600080fd5b5051919050565b60005b838110156116c05781810151838201526020016116a8565b838111156110535750506000910152565b600082516116e38184602087016116a5565b9190910192915050565b6000602082840312156116ff57600080fd5b815180151581146114f757600080fd5b602081526000825180602084015261172e8160408501602087016116a5565b601f017fffffffffffffffffffffffffffffffffffffffffffffffffffffffffffffffe016919091016040019291505056fea26469706673582212208f7b07bb4bbc3ec35f896cb3fc08d7405a19a3991fbb0f2d456d1455bb2754dc64736f6c634300080a0033",
  "devdoc": {
    "kind": "dev",
    "methods": {
      "owner()": {
        "details": "Returns the address of the current owner."
      },
      "paused()": {
        "details": "Returns true if the contract is paused, and false otherwise."
      },
      "renounceOwnership()": {
        "details": "Leaves the contract without owner. It will not be possible to call `onlyOwner` functions. Can only be called by the current owner. NOTE: Renouncing ownership will leave the contract without an owner, thereby disabling any functionality that is only available to the owner."
      },
      "transferOwnership(address)": {
        "details": "Transfers ownership of the contract to a new account (`newOwner`). Can only be called by the current owner."
      }
    },
    "version": 1
  },
  "userdoc": {
    "kind": "user",
    "methods": {},
    "version": 1
  },
  "storageLayout": {
    "storage": [
      {
        "astId": 7,
        "contract": "contracts/NativeYieldDistribute.sol:NativeYieldDistribute",
        "label": "_owner",
        "offset": 0,
        "slot": "0",
        "type": "t_address"
      },
      {
        "astId": 130,
        "contract": "contracts/NativeYieldDistribute.sol:NativeYieldDistribute",
        "label": "_paused",
        "offset": 20,
        "slot": "0",
        "type": "t_bool"
      },
      {
        "astId": 231,
        "contract": "contracts/NativeYieldDistribute.sol:NativeYieldDistribute",
        "label": "_status",
        "offset": 0,
        "slot": "1",
        "type": "t_uint256"
      },
      {
        "astId": 1199,
        "contract": "contracts/NativeYieldDistribute.sol:NativeYieldDistribute",
        "label": "yieldPerPoint",
        "offset": 0,
        "slot": "2",
        "type": "t_mapping(t_uint256,t_uint256)"
      },
      {
        "astId": 1203,
        "contract": "contracts/NativeYieldDistribute.sol:NativeYieldDistribute",
        "label": "roundSettleTime",
        "offset": 0,
        "slot": "3",
        "type": "t_mapping(t_uint256,t_uint256)"
      },
      {
        "astId": 1205,
        "contract": "contracts/NativeYieldDistribute.sol:NativeYieldDistribute",
        "label": "lastTotalPointUpdateTime",
        "offset": 0,
        "slot": "4",
        "type": "t_uint256"
      },
      {
        "astId": 1207,
        "contract": "contracts/NativeYieldDistribute.sol:NativeYieldDistribute",
        "label": "currentTotalSupply",
        "offset": 0,
        "slot": "5",
        "type": "t_uint256"
      },
      {
        "astId": 1209,
        "contract": "contracts/NativeYieldDistribute.sol:NativeYieldDistribute",
        "label": "currentRoundTotalPoint",
        "offset": 0,
        "slot": "6",
        "type": "t_uint256"
      },
      {
        "astId": 1211,
        "contract": "contracts/NativeYieldDistribute.sol:NativeYieldDistribute",
        "label": "currentRound",
        "offset": 0,
        "slot": "7",
        "type": "t_uint256"
      },
      {
        "astId": 1216,
        "contract": "contracts/NativeYieldDistribute.sol:NativeYieldDistribute",
        "label": "userInfo",
        "offset": 0,
        "slot": "8",
        "type": "t_mapping(t_address,t_struct(UserInfo)1188_storage)"
      }
    ],
    "types": {
      "t_address": {
        "encoding": "inplace",
        "label": "address",
        "numberOfBytes": "20"
      },
      "t_bool": {
        "encoding": "inplace",
        "label": "bool",
        "numberOfBytes": "1"
      },
      "t_mapping(t_address,t_struct(UserInfo)1188_storage)": {
        "encoding": "mapping",
        "key": "t_address",
        "label": "mapping(address => struct NativeYieldDistribute.UserInfo)",
        "numberOfBytes": "32",
        "value": "t_struct(UserInfo)1188_storage"
      },
      "t_mapping(t_uint256,t_uint256)": {
        "encoding": "mapping",
        "key": "t_uint256",
        "label": "mapping(uint256 => uint256)",
        "numberOfBytes": "32",
        "value": "t_uint256"
      },
      "t_struct(UserInfo)1188_storage": {
        "encoding": "inplace",
        "label": "struct NativeYieldDistribute.UserInfo",
        "members": [
          {
            "astId": 1175,
            "contract": "contracts/NativeYieldDistribute.sol:NativeYieldDistribute",
            "label": "currentBalance",
            "offset": 0,
            "slot": "0",
            "type": "t_uint256"
          },
          {
            "astId": 1177,
            "contract": "contracts/NativeYieldDistribute.sol:NativeYieldDistribute",
            "label": "balanceUpdateTime",
            "offset": 0,
            "slot": "1",
            "type": "t_uint256"
          },
          {
            "astId": 1179,
            "contract": "contracts/NativeYieldDistribute.sol:NativeYieldDistribute",
            "label": "pointSettleRound",
            "offset": 0,
            "slot": "2",
            "type": "t_uint256"
          },
          {
            "astId": 1181,
            "contract": "contracts/NativeYieldDistribute.sol:NativeYieldDistribute",
            "label": "settledPoint",
            "offset": 0,
            "slot": "3",
            "type": "t_uint256"
          },
          {
            "astId": 1183,
            "contract": "contracts/NativeYieldDistribute.sol:NativeYieldDistribute",
            "label": "yieldSettleRound",
            "offset": 0,
            "slot": "4",
            "type": "t_uint256"
          },
          {
            "astId": 1187,
            "contract": "contracts/NativeYieldDistribute.sol:NativeYieldDistribute",
            "label": "roundPoint",
            "offset": 0,
            "slot": "5",
            "type": "t_mapping(t_uint256,t_uint256)"
          }
        ],
        "numberOfBytes": "192"
      },
      "t_uint256": {
        "encoding": "inplace",
        "label": "uint256",
        "numberOfBytes": "32"
      }
    }
  }
}