{
  "address": "0x24Be59E007E6551Bd0f2d5745036504E48624D18",
  "abi": [
    {
      "inputs": [
        {
          "internalType": "address",
          "name": "_lendingPool",
          "type": "address"
        },
        {
          "internalType": "address",
          "name": "_weth",
          "type": "address"
        }
      ],
      "stateMutability": "nonpayable",
      "type": "constructor"
    },
    {
      "inputs": [],
      "name": "AddressZero",
      "type": "error"
    },
    {
      "inputs": [],
      "name": "InvalidFlashLoan",
      "type": "error"
    },
    {
      "inputs": [],
      "name": "InvalidMsgValue",
      "type": "error"
    },
    {
      "inputs": [],
      "name": "ReceiveNotAllowed",
      "type": "error"
    },
    {
      "inputs": [],
      "name": "ZeroAmount",
      "type": "error"
    },
    {
      "anonymous": false,
      "inputs": [
        {
          "indexed": false,
          "internalType": "address",
          "name": "user",
          "type": "address"
        },
        {
          "indexed": false,
          "internalType": "address",
          "name": "asset",
          "type": "address"
        },
        {
          "indexed": false,
          "internalType": "uint256",
          "name": "cashAmount",
          "type": "uint256"
        },
        {
          "indexed": false,
          "internalType": "uint256",
          "name": "borrowAmount",
          "type": "uint256"
        }
      ],
      "name": "LeverageDeposit",
      "type": "event"
    },
    {
      "anonymous": false,
      "inputs": [
        {
          "indexed": true,
          "internalType": "address",
          "name": "previousOwner",
          "type": "address"
        },
        {
          "indexed": true,
          "internalType": "address",
          "name": "newOwner",
          "type": "address"
        }
      ],
      "name": "OwnershipTransferred",
      "type": "event"
    },
    {
      "anonymous": false,
      "inputs": [
        {
          "indexed": true,
          "internalType": "address",
          "name": "token",
          "type": "address"
        },
        {
          "indexed": true,
          "internalType": "address",
          "name": "to",
          "type": "address"
        },
        {
          "indexed": false,
          "internalType": "uint256",
          "name": "amount",
          "type": "uint256"
        }
      ],
      "name": "RescueToken",
      "type": "event"
    },
    {
      "inputs": [],
      "name": "ADDRESSES_PROVIDER",
      "outputs": [
        {
          "internalType": "contract IPoolAddressesProvider",
          "name": "",
          "type": "address"
        }
      ],
      "stateMutability": "view",
      "type": "function"
    },
    {
      "inputs": [],
      "name": "POOL",
      "outputs": [
        {
          "internalType": "contract IPool",
          "name": "",
          "type": "address"
        }
      ],
      "stateMutability": "view",
      "type": "function"
    },
    {
      "inputs": [],
      "name": "WETH",
      "outputs": [
        {
          "internalType": "contract IWETH",
          "name": "",
          "type": "address"
        }
      ],
      "stateMutability": "view",
      "type": "function"
    },
    {
      "inputs": [
        {
          "internalType": "address",
          "name": "asset",
          "type": "address"
        },
        {
          "internalType": "uint256",
          "name": "amount",
          "type": "uint256"
        },
        {
          "internalType": "uint256",
          "name": "interestRateMode",
          "type": "uint256"
        }
      ],
      "name": "borrowERC20",
      "outputs": [],
      "stateMutability": "nonpayable",
      "type": "function"
    },
    {
      "inputs": [
        {
          "internalType": "uint256",
          "name": "amount",
          "type": "uint256"
        },
        {
          "internalType": "uint256",
          "name": "interestRateMode",
          "type": "uint256"
        }
      ],
      "name": "borrowETH",
      "outputs": [],
      "stateMutability": "nonpayable",
      "type": "function"
    },
    {
      "inputs": [
        {
          "internalType": "address",
          "name": "recipient",
          "type": "address"
        }
      ],
      "name": "claimRefundedGas",
      "outputs": [],
      "stateMutability": "nonpayable",
      "type": "function"
    },
    {
      "inputs": [
        {
          "internalType": "address",
          "name": "onBehalfOf",
          "type": "address"
        }
      ],
      "name": "depositETH",
      "outputs": [],
      "stateMutability": "payable",
      "type": "function"
    },
    {
      "inputs": [
        {
          "internalType": "address",
          "name": "asset",
          "type": "address"
        },
        {
          "internalType": "uint256",
          "name": "amount",
          "type": "uint256"
        },
        {
          "internalType": "uint256",
          "name": "premium",
          "type": "uint256"
        },
        {
          "internalType": "address",
          "name": "initiator",
          "type": "address"
        },
        {
          "internalType": "bytes",
          "name": "params",
          "type": "bytes"
        }
      ],
      "name": "executeOperation",
      "outputs": [
        {
          "internalType": "bool",
          "name": "",
          "type": "bool"
        }
      ],
      "stateMutability": "nonpayable",
      "type": "function"
    },
    {
      "inputs": [],
      "name": "gasRefund",
      "outputs": [
        {
          "internalType": "address",
          "name": "",
          "type": "address"
        }
      ],
      "stateMutability": "view",
      "type": "function"
    },
    {
      "inputs": [
        {
          "internalType": "address",
          "name": "asset",
          "type": "address"
        },
        {
          "internalType": "uint256",
          "name": "cashAmount",
          "type": "uint256"
        },
        {
          "internalType": "uint256",
          "name": "borrowAmount",
          "type": "uint256"
        }
      ],
      "name": "leverageDeposit",
      "outputs": [],
      "stateMutability": "payable",
      "type": "function"
    },
    {
      "inputs": [],
      "name": "owner",
      "outputs": [
        {
          "internalType": "address",
          "name": "",
          "type": "address"
        }
      ],
      "stateMutability": "view",
      "type": "function"
    },
    {
      "inputs": [],
      "name": "renounceOwnership",
      "outputs": [],
      "stateMutability": "nonpayable",
      "type": "function"
    },
    {
      "inputs": [
        {
          "internalType": "address",
          "name": "asset",
          "type": "address"
        },
        {
          "internalType": "uint256",
          "name": "amount",
          "type": "uint256"
        },
        {
          "internalType": "uint256",
          "name": "interestRateMode",
          "type": "uint256"
        },
        {
          "internalType": "address",
          "name": "onBehalfOf",
          "type": "address"
        }
      ],
      "name": "repayERC20",
      "outputs": [],
      "stateMutability": "nonpayable",
      "type": "function"
    },
    {
      "inputs": [
        {
          "internalType": "uint256",
          "name": "amount",
          "type": "uint256"
        },
        {
          "internalType": "uint256",
          "name": "rateMode",
          "type": "uint256"
        },
        {
          "internalType": "address",
          "name": "onBehalfOf",
          "type": "address"
        }
      ],
      "name": "repayETH",
      "outputs": [],
      "stateMutability": "payable",
      "type": "function"
    },
    {
      "inputs": [
        {
          "internalType": "address",
          "name": "token",
          "type": "address"
        },
        {
          "internalType": "address",
          "name": "to",
          "type": "address"
        },
        {
          "internalType": "uint256",
          "name": "amount",
          "type": "uint256"
        }
      ],
      "name": "rescueToken",
      "outputs": [],
      "stateMutability": "nonpayable",
      "type": "function"
    },
    {
      "inputs": [
        {
          "internalType": "address",
          "name": "_gasRefund",
          "type": "address"
        }
      ],
      "name": "setGasRefund",
      "outputs": [],
      "stateMutability": "nonpayable",
      "type": "function"
    },
    {
      "inputs": [
        {
          "internalType": "address",
          "name": "asset",
          "type": "address"
        },
        {
          "internalType": "uint256",
          "name": "amount",
          "type": "uint256"
        },
        {
          "internalType": "address",
          "name": "onBehalfOf",
          "type": "address"
        }
      ],
      "name": "supplyERC20",
      "outputs": [],
      "stateMutability": "nonpayable",
      "type": "function"
    },
    {
      "inputs": [
        {
          "internalType": "address",
          "name": "newOwner",
          "type": "address"
        }
      ],
      "name": "transferOwnership",
      "outputs": [],
      "stateMutability": "nonpayable",
      "type": "function"
    },
    {
      "inputs": [
        {
          "internalType": "address",
          "name": "asset",
          "type": "address"
        },
        {
          "internalType": "uint256",
          "name": "amount",
          "type": "uint256"
        },
        {
          "internalType": "address",
          "name": "to",
          "type": "address"
        }
      ],
      "name": "withdrawERC20",
      "outputs": [],
      "stateMutability": "nonpayable",
      "type": "function"
    },
    {
      "inputs": [
        {
          "internalType": "uint256",
          "name": "amount",
          "type": "uint256"
        },
        {
          "internalType": "address",
          "name": "to",
          "type": "address"
        }
      ],
      "name": "withdrawETH",
      "outputs": [],
      "stateMutability": "nonpayable",
      "type": "function"
    },
    {
      "stateMutability": "payable",
      "type": "receive"
    }
  ],
  "transactionHash": "0x388413b196f68b867be72a16142c39bef2cbe25bb5ed757e8045f23fcd873ec4",
  "args": [
    "0x8A5A363e068D689295789FE39b21175B33964f14",
    "0x4200000000000000000000000000000000000023"
  ],
  "numDeployments": 1,
  "solcInputHash": "d8fb7458b65c25d28a2f4b1180155994",
  "bytecode": "0x60c06040523480156200001157600080fd5b506040516200366938038062003669833981016040819052620000349162000260565b6200003f33620001f3565b600180556001600160a01b0382166200006b57604051639fabe1c160e01b815260040160405180910390fd5b6001600160a01b0381166200009357604051639fabe1c160e01b815260040160405180910390fd5b6001600160a01b03828116608081905290821660a081905260405163095ea7b360e01b8152600481019290925260001960248301529063095ea7b3906044016020604051808303816000875af1158015620000f2573d6000803e3d6000fd5b505050506040513d601f19601f8201168201806040525081019062000118919062000298565b5060006080516001600160a01b03166397d757766040518163ffffffff1660e01b8152600401602060405180830381865afa1580156200015c573d6000803e3d6000fd5b505050506040513d601f19601f82011682018060405250810190620001829190620002c3565b90506001600160a01b03811615620001ea57806001600160a01b0316634e606c476040518163ffffffff1660e01b8152600401600060405180830381600087803b158015620001d057600080fd5b505af1158015620001e5573d6000803e3d6000fd5b505050505b505050620002e1565b600080546001600160a01b038381166001600160a01b0319831681178455604051919092169283917f8be0079c531659141344cd1fd0a4f28419497f9722a3daafe3b4186f6b6457e09190a35050565b80516001600160a01b03811681146200025b57600080fd5b919050565b600080604083850312156200027457600080fd5b6200027f8362000243565b91506200028f6020840162000243565b90509250929050565b600060208284031215620002ab57600080fd5b81518015158114620002bc57600080fd5b9392505050565b600060208284031215620002d657600080fd5b620002bc8262000243565b60805160a05161327b620003ee60003960008181610180015281816103c601528181610a0401528181610ac301528181610bc601528181610e0401528181610eed015281816112cb015281816113b0015281816114df0152818161156001528181611d1301528181611e4d0152611f0c0152600081816103540152818161049f0152818161059f015281816106770152818161077a01528181610838015281816108b301528181610b0301528181610bf101528181610e3c01528181610fc6015281816111f30152818161131101528181611674015281816118370152818161194e01528181611ac001528181611d4601528181611f4c0152818161223001526122c3015261327b6000f3fe6080604052600436106101635760003560e01c80637535d246116100c0578063c44a7be911610074578063e5711e8b11610059578063e5711e8b14610448578063f2fde38b14610468578063f538ba511461048857600080fd5b8063c44a7be914610408578063d4ac19261461042857600080fd5b8063a7fb3509116100a5578063a7fb3509146103a1578063ad5c4648146103b4578063b9739e87146103e857600080fd5b80637535d246146103425780638da5cb5b1461037657600080fd5b806336118b52116101175780635fc3ea0b116100fc5780635fc3ea0b146102ed5780636fab3b731461030d578063715018a61461032d57600080fd5b806336118b52146102a05780635bc758e2146102c057600080fd5b80631b11d0ff116101485780631b11d0ff1461023d5780632cca1cdf1461026d5780632d2da8061461028d57600080fd5b80630542975c146101de5780631a2467a51461021d57600080fd5b366101d9573373ffffffffffffffffffffffffffffffffffffffff7f000000000000000000000000000000000000000000000000000000000000000016146101d7576040517fcb263c3f00000000000000000000000000000000000000000000000000000000815260040160405180910390fd5b005b600080fd5b3480156101ea57600080fd5b506101f361049b565b60405173ffffffffffffffffffffffffffffffffffffffff90911681526020015b60405180910390f35b34801561022957600080fd5b506101d7610238366004612b3c565b610531565b34801561024957600080fd5b5061025d610258366004612b71565b610647565b6040519015158152602001610214565b34801561027957600080fd5b506101d7610288366004612c1b565b6108a7565b6101d761029b366004612c1b565b6109fa565b3480156102ac57600080fd5b506101d76102bb366004612c3f565b610b81565b3480156102cc57600080fd5b506002546101f39073ffffffffffffffffffffffffffffffffffffffff1681565b3480156102f957600080fd5b506101d7610308366004612c6f565b610f76565b34801561031957600080fd5b506101d7610328366004612cb1565b611283565b34801561033957600080fd5b506101d7611436565b34801561034e57600080fd5b506101f37f000000000000000000000000000000000000000000000000000000000000000081565b34801561038257600080fd5b5060005473ffffffffffffffffffffffffffffffffffffffff166101f3565b6101d76103af366004612b3c565b61144a565b3480156103c057600080fd5b506101f37f000000000000000000000000000000000000000000000000000000000000000081565b3480156103f457600080fd5b506101d7610403366004612c6f565b611766565b34801561041457600080fd5b506101d7610423366004612c1b565b6118a7565b34801561043457600080fd5b506101d7610443366004612cd3565b6118f6565b34801561045457600080fd5b506101d7610463366004612d1d565b611b56565b34801561047457600080fd5b506101d7610483366004612c1b565b611c15565b6101d7610496366004612d5e565b611cce565b60007f000000000000000000000000000000000000000000000000000000000000000073ffffffffffffffffffffffffffffffffffffffff16630542975c6040518163ffffffff1660e01b8152600401602060405180830381865afa158015610508573d6000803e3d6000fd5b505050506040513d601f19601f8201168201806040525081019061052c9190612d8c565b905090565b610539611fe9565b60005a6040517fa415bcad00000000000000000000000000000000000000000000000000000000815273ffffffffffffffffffffffffffffffffffffffff86811660048301526024820186905260448201859052600060648301523360848301529192507f00000000000000000000000000000000000000000000000000000000000000009091169063a415bcad9060a401600060405180830381600087803b1580156105e557600080fd5b505af11580156105f9573d6000803e3d6000fd5b5050505060005a905061061661060f8284612dd8565b600061205d565b61063773ffffffffffffffffffffffffffffffffffffffff86163386612119565b505061064260018055565b505050565b600080808061065885870187612b3c565b919450925090503373ffffffffffffffffffffffffffffffffffffffff7f0000000000000000000000000000000000000000000000000000000000000000161415806106ba575073ffffffffffffffffffffffffffffffffffffffff87163014155b806106c55750888114155b156106fc576040517fbafe1c5300000000000000000000000000000000000000000000000000000000815260040160405180910390fd5b6107058a6121ed565b6000886107128385612def565b61071c9190612dd8565b6040517f617ba03700000000000000000000000000000000000000000000000000000000815273ffffffffffffffffffffffffffffffffffffffff8d81166004830152602482018390528681166044830152600060648301529192507f00000000000000000000000000000000000000000000000000000000000000009091169063617ba03790608401600060405180830381600087803b1580156107c057600080fd5b505af11580156107d4573d6000803e3d6000fd5b50506040517fa415bcad00000000000000000000000000000000000000000000000000000000815273ffffffffffffffffffffffffffffffffffffffff8e8116600483015260248201869052600260448301526000606483015287811660848301527f000000000000000000000000000000000000000000000000000000000000000016925063a415bcad915060a401600060405180830381600087803b15801561087e57600080fd5b505af1158015610892573d6000803e3d6000fd5b5060019e9d5050505050505050505050505050565b6108af612308565b60007f000000000000000000000000000000000000000000000000000000000000000073ffffffffffffffffffffffffffffffffffffffff166397d757766040518163ffffffff1660e01b8152600401602060405180830381865afa15801561091c573d6000803e3d6000fd5b505050506040513d601f19601f820116820180604052508101906109409190612d8c565b905073ffffffffffffffffffffffffffffffffffffffff8116156109f6576040517f662aa11d00000000000000000000000000000000000000000000000000000000815230600482015273ffffffffffffffffffffffffffffffffffffffff838116602483015282169063662aa11d906044016020604051808303816000875af11580156109d2573d6000803e3d6000fd5b505050506040513d601f19601f820116820180604052508101906106429190612e17565b5050565b610a02611fe9565b7f000000000000000000000000000000000000000000000000000000000000000073ffffffffffffffffffffffffffffffffffffffff1663d0e30db0346040518263ffffffff1660e01b81526004016000604051808303818588803b158015610a6a57600080fd5b505af1158015610a7e573d6000803e3d6000fd5b505050505060005a6040517fe8eda9df00000000000000000000000000000000000000000000000000000000815273ffffffffffffffffffffffffffffffffffffffff7f0000000000000000000000000000000000000000000000000000000000000000811660048301523460248301528481166044830152600060648301529192507f00000000000000000000000000000000000000000000000000000000000000009091169063e8eda9df90608401600060405180830381600087803b158015610b4957600080fd5b505af1158015610b5d573d6000803e3d6000fd5b5050505060005a9050610b7361060f8284612dd8565b5050610b7e60018055565b50565b610b89611fe9565b6040517f35ea6a7500000000000000000000000000000000000000000000000000000000815273ffffffffffffffffffffffffffffffffffffffff7f0000000000000000000000000000000000000000000000000000000000000000811660048301526000917f0000000000000000000000000000000000000000000000000000000000000000909116906335ea6a75906024016101e060405180830381865afa158015610c3b573d6000803e3d6000fd5b505050506040513d601f19601f82011682018060405250810190610c5f9190612f31565b61010001516040517f70a0823100000000000000000000000000000000000000000000000000000000815233600482015290915060009073ffffffffffffffffffffffffffffffffffffffff8316906370a0823190602401602060405180830381865afa158015610cd4573d6000803e3d6000fd5b505050506040513d601f19601f82011682018060405250810190610cf89190612e17565b9050837fffffffffffffffffffffffffffffffffffffffffffffffffffffffffffffffff811415610d265750805b6040517f23b872dd0000000000000000000000000000000000000000000000000000000081523360048201523060248201526044810182905273ffffffffffffffffffffffffffffffffffffffff8416906323b872dd906064016020604051808303816000875af1158015610d9f573d6000803e3d6000fd5b505050506040513d601f19601f82011682018060405250810190610dc39190613054565b5060005a6040517f69328dec00000000000000000000000000000000000000000000000000000000815273ffffffffffffffffffffffffffffffffffffffff7f000000000000000000000000000000000000000000000000000000000000000081166004830152602482018590523060448301529192507f0000000000000000000000000000000000000000000000000000000000000000909116906369328dec906064016020604051808303816000875af1158015610e87573d6000803e3d6000fd5b505050506040513d601f19601f82011682018060405250810190610eab9190612e17565b5060005a9050610ebe61060f8284612dd8565b6040517f2e1a7d4d000000000000000000000000000000000000000000000000000000008152600481018490527f000000000000000000000000000000000000000000000000000000000000000073ffffffffffffffffffffffffffffffffffffffff1690632e1a7d4d90602401600060405180830381600087803b158015610f4657600080fd5b505af1158015610f5a573d6000803e3d6000fd5b50505050610f688684612389565b50505050506109f660018055565b610f7e611fe9565b6040517f35ea6a7500000000000000000000000000000000000000000000000000000000815273ffffffffffffffffffffffffffffffffffffffff84811660048301526000917f0000000000000000000000000000000000000000000000000000000000000000909116906335ea6a75906024016101e060405180830381865afa158015611010573d6000803e3d6000fd5b505050506040513d601f19601f820116820180604052508101906110349190612f31565b61010001516040517f70a0823100000000000000000000000000000000000000000000000000000000815233600482015290915060009073ffffffffffffffffffffffffffffffffffffffff8316906370a0823190602401602060405180830381865afa1580156110a9573d6000803e3d6000fd5b505050506040513d601f19601f820116820180604052508101906110cd9190612e17565b9050837fffffffffffffffffffffffffffffffffffffffffffffffffffffffffffffffff8114156110fb5750805b6040517f23b872dd0000000000000000000000000000000000000000000000000000000081523360048201523060248201526044810182905273ffffffffffffffffffffffffffffffffffffffff8416906323b872dd906064016020604051808303816000875af1158015611174573d6000803e3d6000fd5b505050506040513d601f19601f820116820180604052508101906111989190613054565b5060005a6040517f69328dec00000000000000000000000000000000000000000000000000000000815273ffffffffffffffffffffffffffffffffffffffff89811660048301526024820185905287811660448301529192507f0000000000000000000000000000000000000000000000000000000000000000909116906369328dec906064016020604051808303816000875af115801561123e573d6000803e3d6000fd5b505050506040513d601f19601f820116820180604052508101906112629190612e17565b5060005a905061127561060f8284612dd8565b505050505061064260018055565b61128b611fe9565b60005a6040517fa415bcad00000000000000000000000000000000000000000000000000000000815273ffffffffffffffffffffffffffffffffffffffff7f0000000000000000000000000000000000000000000000000000000000000000811660048301526024820186905260448201859052600060648301523360848301529192507f00000000000000000000000000000000000000000000000000000000000000009091169063a415bcad9060a401600060405180830381600087803b15801561135757600080fd5b505af115801561136b573d6000803e3d6000fd5b5050505060005a905061138161060f8284612dd8565b6040517f2e1a7d4d000000000000000000000000000000000000000000000000000000008152600481018590527f000000000000000000000000000000000000000000000000000000000000000073ffffffffffffffffffffffffffffffffffffffff1690632e1a7d4d90602401600060405180830381600087803b15801561140957600080fd5b505af115801561141d573d6000803e3d6000fd5b5050505061142b3385612389565b50506109f660018055565b61143e612308565b611448600061246d565b565b611452611fe9565b80611489576040517f1f2a200500000000000000000000000000000000000000000000000000000000815260040160405180910390fd5b73ffffffffffffffffffffffffffffffffffffffff8316611586573482146114dd576040517f1841b4e100000000000000000000000000000000000000000000000000000000815260040160405180910390fd5b7f000000000000000000000000000000000000000000000000000000000000000073ffffffffffffffffffffffffffffffffffffffff1663d0e30db0836040518263ffffffff1660e01b81526004016000604051808303818588803b15801561154557600080fd5b505af1158015611559573d6000803e3d6000fd5b50505050507f000000000000000000000000000000000000000000000000000000000000000092506115e6565b34156115be576040517f1841b4e100000000000000000000000000000000000000000000000000000000815260040160405180910390fd5b81156115e6576115e673ffffffffffffffffffffffffffffffffffffffff84163330856124e2565b60005a6040805133602082015290810185905260608101849052909150600090608001604080517fffffffffffffffffffffffffffffffffffffffffffffffffffffffffffffffe0818403018152908290527f42b0b77c000000000000000000000000000000000000000000000000000000008252915073ffffffffffffffffffffffffffffffffffffffff7f000000000000000000000000000000000000000000000000000000000000000016906342b0b77c906116b29030908990889087906000906004016130ec565b600060405180830381600087803b1580156116cc57600080fd5b505af11580156116e0573d6000803e3d6000fd5b5050505060005a90506116fd6116f68285612dd8565b600461205d565b6040805133815273ffffffffffffffffffffffffffffffffffffffff88166020820152908101869052606081018590527f3844eeb24e2d31fa648194b139814a3630ef83d96c0f20200dd364ae344a62609060800160405180910390a150505061064260018055565b61176e611fe9565b816117a5576040517f1f2a200500000000000000000000000000000000000000000000000000000000815260040160405180910390fd5b81156117cd576117cd73ffffffffffffffffffffffffffffffffffffffff84163330856124e2565b6117d6836121ed565b60005a6040517f617ba03700000000000000000000000000000000000000000000000000000000815273ffffffffffffffffffffffffffffffffffffffff8681166004830152602482018690528481166044830152600060648301529192507f00000000000000000000000000000000000000000000000000000000000000009091169063617ba03790608401600060405180830381600087803b15801561187d57600080fd5b505af1158015611891573d6000803e3d6000fd5b5050505060005a905061063761060f8284612dd8565b6118af612308565b600280547fffffffffffffffffffffffff00000000000000000000000000000000000000001673ffffffffffffffffffffffffffffffffffffffff92909216919091179055565b6118fe611fe9565b6040517f35ea6a7500000000000000000000000000000000000000000000000000000000815273ffffffffffffffffffffffffffffffffffffffff858116600483015260009182916119c09185917f000000000000000000000000000000000000000000000000000000000000000016906335ea6a75906024015b6101e060405180830381865afa158015611997573d6000803e3d6000fd5b505050506040513d601f19601f820116820180604052508101906119bb9190612f31565b612540565b9092509050600060018560028111156119db576119db613141565b60028111156119ec576119ec613141565b146119f757816119f9565b825b905080861015611a065750845b80611a3d576040517f1f2a200500000000000000000000000000000000000000000000000000000000815260040160405180910390fd5b611a5f73ffffffffffffffffffffffffffffffffffffffff88163330846124e2565b60005a6040517f573ade8100000000000000000000000000000000000000000000000000000000815273ffffffffffffffffffffffffffffffffffffffff8a81166004830152602482018590526044820189905287811660648301529192507f00000000000000000000000000000000000000000000000000000000000000009091169063573ade81906084016020604051808303816000875af1158015611b0b573d6000803e3d6000fd5b505050506040513d601f19601f82011682018060405250810190611b2f9190612e17565b5060005a9050611b4261060f8284612dd8565b5050505050611b5060018055565b50505050565b611b5e612308565b73ffffffffffffffffffffffffffffffffffffffff8316611b8857611b838282612389565b611ba9565b611ba973ffffffffffffffffffffffffffffffffffffffff84168383612119565b8173ffffffffffffffffffffffffffffffffffffffff168373ffffffffffffffffffffffffffffffffffffffff167faabf44ab9d5bef08d1b60f287a337f0d11a248e49741ad189b429e47e98ba91083604051611c0891815260200190565b60405180910390a3505050565b611c1d612308565b73ffffffffffffffffffffffffffffffffffffffff8116611cc5576040517f08c379a000000000000000000000000000000000000000000000000000000000815260206004820152602660248201527f4f776e61626c653a206e6577206f776e657220697320746865207a65726f206160448201527f646472657373000000000000000000000000000000000000000000000000000060648201526084015b60405180910390fd5b610b7e8161246d565b611cd6611fe9565b6040517f35ea6a7500000000000000000000000000000000000000000000000000000000815273ffffffffffffffffffffffffffffffffffffffff7f0000000000000000000000000000000000000000000000000000000000000000811660048301526000918291611d759185917f000000000000000000000000000000000000000000000000000000000000000016906335ea6a7590602401611979565b909250905060006001856002811115611d9057611d90613141565b6002811115611da157611da1613141565b14611dac5781611dae565b825b905080861015611dbb5750845b80341015611e4b576040517f08c379a000000000000000000000000000000000000000000000000000000000815260206004820152602760248201527f6d73672e76616c7565206973206c657373207468616e2072657061796d656e7460448201527f20616d6f756e74000000000000000000000000000000000000000000000000006064820152608401611cbc565b7f000000000000000000000000000000000000000000000000000000000000000073ffffffffffffffffffffffffffffffffffffffff1663d0e30db0826040518263ffffffff1660e01b81526004016000604051808303818588803b158015611eb357600080fd5b505af1158015611ec7573d6000803e3d6000fd5b505050505060005a6040517f573ade8100000000000000000000000000000000000000000000000000000000815273ffffffffffffffffffffffffffffffffffffffff7f0000000000000000000000000000000000000000000000000000000000000000811660048301523460248301526044820189905287811660648301529192507f00000000000000000000000000000000000000000000000000000000000000009091169063573ade81906084016020604051808303816000875af1158015611f97573d6000803e3d6000fd5b505050506040513d601f19601f82011682018060405250810190611fbb9190612e17565b5060005a9050611fce61060f8284612dd8565b823411156112755761127533611fe48534612dd8565b612389565b60026001541415612056576040517f08c379a000000000000000000000000000000000000000000000000000000000815260206004820152601f60248201527f5265656e7472616e637947756172643a207265656e7472616e742063616c6c006044820152606401611cbc565b6002600155565b60025473ffffffffffffffffffffffffffffffffffffffff16156109f65760006120873a84613170565b6002546040517fcff29e6700000000000000000000000000000000000000000000000000000000815291925073ffffffffffffffffffffffffffffffffffffffff169063cff29e67906120e2903390859087906004016131ad565b600060405180830381600087803b1580156120fc57600080fd5b505af1158015612110573d6000803e3d6000fd5b50505050505050565b60405173ffffffffffffffffffffffffffffffffffffffff83166024820152604481018290526106429084907fa9059cbb00000000000000000000000000000000000000000000000000000000906064015b604080517fffffffffffffffffffffffffffffffffffffffffffffffffffffffffffffffe08184030181529190526020810180517bffffffffffffffffffffffffffffffffffffffffffffffffffffffff167fffffffff000000000000000000000000000000000000000000000000000000009093169290921790915261267d565b6040517fdd62ed3e00000000000000000000000000000000000000000000000000000000815230600482015273ffffffffffffffffffffffffffffffffffffffff7f00000000000000000000000000000000000000000000000000000000000000008116602483015282169063dd62ed3e90604401602060405180830381865afa15801561227f573d6000803e3d6000fd5b505050506040513d601f19601f820116820180604052508101906122a39190612e17565b610b7e57610b7e73ffffffffffffffffffffffffffffffffffffffff82167f00000000000000000000000000000000000000000000000000000000000000007fffffffffffffffffffffffffffffffffffffffffffffffffffffffffffffffff61278c565b60005473ffffffffffffffffffffffffffffffffffffffff163314611448576040517f08c379a000000000000000000000000000000000000000000000000000000000815260206004820181905260248201527f4f776e61626c653a2063616c6c6572206973206e6f7420746865206f776e65726044820152606401611cbc565b6040805160008082526020820190925273ffffffffffffffffffffffffffffffffffffffff84169083906040516123c09190613216565b60006040518083038185875af1925050503d80600081146123fd576040519150601f19603f3d011682016040523d82523d6000602084013e612402565b606091505b5050905080610642576040517f08c379a000000000000000000000000000000000000000000000000000000000815260206004820152601360248201527f4554485f5452414e534645525f4641494c4544000000000000000000000000006044820152606401611cbc565b6000805473ffffffffffffffffffffffffffffffffffffffff8381167fffffffffffffffffffffffff0000000000000000000000000000000000000000831681178455604051919092169283917f8be0079c531659141344cd1fd0a4f28419497f9722a3daafe3b4186f6b6457e09190a35050565b60405173ffffffffffffffffffffffffffffffffffffffff80851660248301528316604482015260648101829052611b509085907f23b872dd000000000000000000000000000000000000000000000000000000009060840161216b565b6101208101516040517f70a0823100000000000000000000000000000000000000000000000000000000815273ffffffffffffffffffffffffffffffffffffffff848116600483015260009283929116906370a0823190602401602060405180830381865afa1580156125b7573d6000803e3d6000fd5b505050506040513d601f19601f820116820180604052508101906125db9190612e17565b6101408401516040517f70a0823100000000000000000000000000000000000000000000000000000000815273ffffffffffffffffffffffffffffffffffffffff8781166004830152909116906370a0823190602401602060405180830381865afa15801561264e573d6000803e3d6000fd5b505050506040513d601f19601f820116820180604052508101906126729190612e17565b915091509250929050565b60006126df826040518060400160405280602081526020017f5361666545524332303a206c6f772d6c6576656c2063616c6c206661696c65648152508573ffffffffffffffffffffffffffffffffffffffff1661290e9092919063ffffffff16565b90508051600014806127005750808060200190518101906127009190613054565b610642576040517f08c379a000000000000000000000000000000000000000000000000000000000815260206004820152602a60248201527f5361666545524332303a204552433230206f7065726174696f6e20646964206e60448201527f6f742073756363656564000000000000000000000000000000000000000000006064820152608401611cbc565b80158061282c57506040517fdd62ed3e00000000000000000000000000000000000000000000000000000000815230600482015273ffffffffffffffffffffffffffffffffffffffff838116602483015284169063dd62ed3e90604401602060405180830381865afa158015612806573d6000803e3d6000fd5b505050506040513d601f19601f8201168201806040525081019061282a9190612e17565b155b6128b8576040517f08c379a000000000000000000000000000000000000000000000000000000000815260206004820152603660248201527f5361666545524332303a20617070726f76652066726f6d206e6f6e2d7a65726f60448201527f20746f206e6f6e2d7a65726f20616c6c6f77616e6365000000000000000000006064820152608401611cbc565b60405173ffffffffffffffffffffffffffffffffffffffff83166024820152604481018290526106429084907f095ea7b3000000000000000000000000000000000000000000000000000000009060640161216b565b606061291d8484600085612925565b949350505050565b6060824710156129b7576040517f08c379a000000000000000000000000000000000000000000000000000000000815260206004820152602660248201527f416464726573733a20696e73756666696369656e742062616c616e636520666f60448201527f722063616c6c00000000000000000000000000000000000000000000000000006064820152608401611cbc565b6000808673ffffffffffffffffffffffffffffffffffffffff1685876040516129e09190613216565b60006040518083038185875af1925050503d8060008114612a1d576040519150601f19603f3d011682016040523d82523d6000602084013e612a22565b606091505b5091509150612a3387838387612a3e565b979650505050505050565b60608315612ad1578251612aca5773ffffffffffffffffffffffffffffffffffffffff85163b612aca576040517f08c379a000000000000000000000000000000000000000000000000000000000815260206004820152601d60248201527f416464726573733a2063616c6c20746f206e6f6e2d636f6e74726163740000006044820152606401611cbc565b508161291d565b61291d8383815115612ae65781518083602001fd5b806040517f08c379a0000000000000000000000000000000000000000000000000000000008152600401611cbc9190613232565b73ffffffffffffffffffffffffffffffffffffffff81168114610b7e57600080fd5b600080600060608486031215612b5157600080fd5b8335612b5c81612b1a565b95602085013595506040909401359392505050565b60008060008060008060a08789031215612b8a57600080fd5b8635612b9581612b1a565b955060208701359450604087013593506060870135612bb381612b1a565b9250608087013567ffffffffffffffff80821115612bd057600080fd5b818901915089601f830112612be457600080fd5b813581811115612bf357600080fd5b8a6020828501011115612c0557600080fd5b6020830194508093505050509295509295509295565b600060208284031215612c2d57600080fd5b8135612c3881612b1a565b9392505050565b60008060408385031215612c5257600080fd5b823591506020830135612c6481612b1a565b809150509250929050565b600080600060608486031215612c8457600080fd5b8335612c8f81612b1a565b9250602084013591506040840135612ca681612b1a565b809150509250925092565b60008060408385031215612cc457600080fd5b50508035926020909101359150565b60008060008060808587031215612ce957600080fd5b8435612cf481612b1a565b935060208501359250604085013591506060850135612d1281612b1a565b939692955090935050565b600080600060608486031215612d3257600080fd5b8335612d3d81612b1a565b92506020840135612d4d81612b1a565b929592945050506040919091013590565b600080600060608486031215612d7357600080fd5b83359250602084013591506040840135612ca681612b1a565b600060208284031215612d9e57600080fd5b8151612c3881612b1a565b7f4e487b7100000000000000000000000000000000000000000000000000000000600052601160045260246000fd5b600082821015612dea57612dea612da9565b500390565b60008219821115612e0257612e02612da9565b500190565b8051612e1281612b1a565b919050565b600060208284031215612e2957600080fd5b5051919050565b6040516101e0810167ffffffffffffffff81118282101715612e7b577f4e487b7100000000000000000000000000000000000000000000000000000000600052604160045260246000fd5b60405290565b600060208284031215612e9357600080fd5b6040516020810181811067ffffffffffffffff82111715612edd577f4e487b7100000000000000000000000000000000000000000000000000000000600052604160045260246000fd5b6040529151825250919050565b80516fffffffffffffffffffffffffffffffff81168114612e1257600080fd5b805164ffffffffff81168114612e1257600080fd5b805161ffff81168114612e1257600080fd5b60006101e08284031215612f4457600080fd5b612f4c612e30565b612f568484612e81565b8152612f6460208401612eea565b6020820152612f7560408401612eea565b6040820152612f8660608401612eea565b6060820152612f9760808401612eea565b6080820152612fa860a08401612eea565b60a0820152612fb960c08401612f0a565b60c0820152612fca60e08401612f1f565b60e0820152610100612fdd818501612e07565b90820152610120612fef848201612e07565b90820152610140613001848201612e07565b90820152610160613013848201612e07565b90820152610180613025848201612eea565b908201526101a0613037848201612eea565b908201526101c0613049848201612eea565b908201529392505050565b60006020828403121561306657600080fd5b81518015158114612c3857600080fd5b60005b83811015613091578181015183820152602001613079565b83811115611b505750506000910152565b600081518084526130ba816020860160208601613076565b601f017fffffffffffffffffffffffffffffffffffffffffffffffffffffffffffffffe0169290920160200192915050565b600073ffffffffffffffffffffffffffffffffffffffff808816835280871660208401525084604083015260a0606083015261312b60a08301856130a2565b905061ffff831660808301529695505050505050565b7f4e487b7100000000000000000000000000000000000000000000000000000000600052602160045260246000fd5b6000817fffffffffffffffffffffffffffffffffffffffffffffffffffffffffffffffff04831182151516156131a8576131a8612da9565b500290565b73ffffffffffffffffffffffffffffffffffffffff84168152602081018390526060810160058310613208577f4e487b7100000000000000000000000000000000000000000000000000000000600052602160045260246000fd5b826040830152949350505050565b60008251613228818460208701613076565b9190910192915050565b602081526000612c3860208301846130a256fea26469706673582212208ea33be492a3b5a97048c5011b232244a36ce715a52b66632aa16b2cddc2144d64736f6c634300080a0033",
  "devdoc": {
    "author": "PAC",
    "events": {
      "LeverageDeposit(address,address,uint256,uint256)": {
        "details": "Emitted during leverageDeposit()",
        "params": {
          "asset": "The address of the asset",
          "borrowAmount": "The amount borrowed from lending pool for the deposit*",
          "cashAmount": "The amount of cash for the deposit",
          "user": "The address of the user"
        }
      },
      "RescueToken(address,address,uint256)": {
        "details": "Emitted during rescueToken()",
        "params": {
          "amount": "The amount being rescued*",
          "to": "The address of the recipient",
          "token": "The address of the token"
        }
      }
    },
    "kind": "dev",
    "methods": {
      "borrowETH(uint256,uint256)": {
        "details": "borrow WETH, unwraps to ETH and send both the ETH and DebtTokens to msg.sender, via `approveDelegation` and onBehalf argument in `Pool.borrow`.",
        "params": {
          "amount": "the amount of ETH to borrow",
          "interestRateMode": "the interest rate mode"
        }
      },
      "depositETH(address)": {
        "details": "deposits WETH into the reserve, using native ETH. A corresponding amount of the overlying asset (aTokens) is minted.",
        "params": {
          "onBehalfOf": "address of the user who will receive the aTokens representing the deposit*"
        }
      },
      "executeOperation(address,uint256,uint256,address,bytes)": {
        "details": "Ensure that the contract can return the debt + premium, e.g., has      enough funds to repay and has approved the Pool to pull the total amount",
        "params": {
          "amount": "The amount of the flash-borrowed asset",
          "asset": "The address of the flash-borrowed asset",
          "initiator": "The address of the flashloan initiator",
          "params": "The byte-encoded params passed when initiating the flashloan",
          "premium": "The fee of the flash-borrowed asset"
        },
        "returns": {
          "_0": "True if the execution of the operation succeeds, false otherwise"
        }
      },
      "leverageDeposit(address,uint256,uint256)": {
        "details": "Loop the deposit and borrow of an asset",
        "params": {
          "asset": "to deposit",
          "borrowAmount": "borrow amount for the deposit*",
          "cashAmount": "cash amount for the deposit"
        }
      },
      "owner()": {
        "details": "Returns the address of the current owner."
      },
      "renounceOwnership()": {
        "details": "Leaves the contract without owner. It will not be possible to call `onlyOwner` functions. Can only be called by the current owner. NOTE: Renouncing ownership will leave the contract without an owner, thereby disabling any functionality that is only available to the owner."
      },
      "repayETH(uint256,uint256,address)": {
        "details": "repays a borrow on the WETH reserve, for the specified amount (or for the whole amount, if uint256(-1) is specified).",
        "params": {
          "amount": "the amount to repay, or uint256(-1) if the user wants to repay everything",
          "onBehalfOf": "the address for which msg.sender is repaying",
          "rateMode": "the rate mode to repay"
        }
      },
      "rescueToken(address,address,uint256)": {
        "params": {
          "amount": "The amount to be rescued*",
          "to": "The account address to receive token",
          "token": "The token address to be rescued"
        }
      },
      "setGasRefund(address)": {
        "params": {
          "_gasRefund": "The address of user gas refund contract*"
        }
      },
      "supplyERC20(address,uint256,address)": {
        "params": {
          "amount": "The amount to be supplied",
          "asset": "The address of the underlying asset to supply",
          "onBehalfOf": "The address that will receive the aTokens, same as msg.sender if the user   wants to receive them on his own wallet, or a different address if the beneficiary of aTokens   is a different wallet"
        }
      },
      "transferOwnership(address)": {
        "details": "Transfers ownership of the contract to a new account (`newOwner`). Can only be called by the current owner."
      },
      "withdrawERC20(address,uint256,address)": {
        "params": {
          "amount": "The underlying amount to be withdrawn   - Send the value type(uint256).max in order to withdraw the whole aToken balance",
          "asset": "The address of the underlying asset to withdraw",
          "to": "The address that will receive the underlying, same as msg.sender if the user   wants to receive it on his own wallet, or a different address if the beneficiary is a   different wallet"
        }
      },
      "withdrawETH(uint256,address)": {
        "details": "withdraws the WETH _reserves of msg.sender.",
        "params": {
          "amount": "amount of aWETH to withdraw and receive native ETH",
          "to": "address of the user who will receive native ETH"
        }
      }
    },
    "title": "PAC Pool Wrapper Contract",
    "version": 1
  },
  "userdoc": {
    "kind": "user",
    "methods": {
      "POOL()": {
        "notice": "Lending Pool address"
      },
      "WETH()": {
        "notice": "Wrapped ETH contract address"
      },
      "executeOperation(address,uint256,uint256,address,bytes)": {
        "notice": "Executes an operation after receiving the flash-borrowed asset"
      },
      "rescueToken(address,address,uint256)": {
        "notice": "Rescue erc20/ETH from this contract address. Only owner can call this function"
      },
      "setGasRefund(address)": {
        "notice": "Set gas refund address. Only owner can call this function"
      },
      "supplyERC20(address,uint256,address)": {
        "notice": "Supplly an `amount` of underlying asset into the reserve, receiving in return overlying aTokens. - E.g. User supplies 100 USDC and gets in return 100 aUSDC"
      },
      "withdrawERC20(address,uint256,address)": {
        "notice": "Withdraws an `amount` of underlying asset from the reserve, burning the equivalent aTokens owned E.g. User has 100 aUSDC, calls withdraw() and receives 100 USDC, burning the 100 aUSDC"
      }
    },
    "version": 1
  },
  "storageLayout": {
    "storage": [
      {
        "astId": 7,
        "contract": "contracts/PacPoolWrapper.sol:PacPoolWrapper",
        "label": "_owner",
        "offset": 0,
        "slot": "0",
        "type": "t_address"
      },
      {
        "astId": 123,
        "contract": "contracts/PacPoolWrapper.sol:PacPoolWrapper",
        "label": "_status",
        "offset": 0,
        "slot": "1",
        "type": "t_uint256"
      },
      {
        "astId": 1102,
        "contract": "contracts/PacPoolWrapper.sol:PacPoolWrapper",
        "label": "gasRefund",
        "offset": 0,
        "slot": "2",
        "type": "t_address"
      }
    ],
    "types": {
      "t_address": {
        "encoding": "inplace",
        "label": "address",
        "numberOfBytes": "20"
      },
      "t_uint256": {
        "encoding": "inplace",
        "label": "uint256",
        "numberOfBytes": "32"
      }
    }
  }
}