{
  "address": "0xb58Dbd296b1B3FF18437D4Ccc3653Ba4560C8C60",
  "abi": [
    {
      "inputs": [
        {
          "internalType": "contract IPoolAddressesProvider",
          "name": "provider",
          "type": "address"
        },
        {
          "internalType": "address",
          "name": "blast",
          "type": "address"
        }
      ],
      "stateMutability": "nonpayable",
      "type": "constructor"
    },
    {
      "anonymous": false,
      "inputs": [
        {
          "indexed": true,
          "internalType": "address",
          "name": "reserve",
          "type": "address"
        },
        {
          "indexed": true,
          "internalType": "address",
          "name": "backer",
          "type": "address"
        },
        {
          "indexed": false,
          "internalType": "uint256",
          "name": "amount",
          "type": "uint256"
        },
        {
          "indexed": false,
          "internalType": "uint256",
          "name": "fee",
          "type": "uint256"
        }
      ],
      "name": "BackUnbacked",
      "type": "event"
    },
    {
      "anonymous": false,
      "inputs": [
        {
          "indexed": true,
          "internalType": "address",
          "name": "reserve",
          "type": "address"
        },
        {
          "indexed": false,
          "internalType": "address",
          "name": "user",
          "type": "address"
        },
        {
          "indexed": true,
          "internalType": "address",
          "name": "onBehalfOf",
          "type": "address"
        },
        {
          "indexed": false,
          "internalType": "uint256",
          "name": "amount",
          "type": "uint256"
        },
        {
          "indexed": false,
          "internalType": "enum DataTypes.InterestRateMode",
          "name": "interestRateMode",
          "type": "uint8"
        },
        {
          "indexed": false,
          "internalType": "uint256",
          "name": "borrowRate",
          "type": "uint256"
        },
        {
          "indexed": true,
          "internalType": "uint16",
          "name": "referralCode",
          "type": "uint16"
        }
      ],
      "name": "Borrow",
      "type": "event"
    },
    {
      "anonymous": false,
      "inputs": [
        {
          "indexed": true,
          "internalType": "address",
          "name": "target",
          "type": "address"
        },
        {
          "indexed": false,
          "internalType": "address",
          "name": "initiator",
          "type": "address"
        },
        {
          "indexed": true,
          "internalType": "address",
          "name": "asset",
          "type": "address"
        },
        {
          "indexed": false,
          "internalType": "uint256",
          "name": "amount",
          "type": "uint256"
        },
        {
          "indexed": false,
          "internalType": "enum DataTypes.InterestRateMode",
          "name": "interestRateMode",
          "type": "uint8"
        },
        {
          "indexed": false,
          "internalType": "uint256",
          "name": "premium",
          "type": "uint256"
        },
        {
          "indexed": true,
          "internalType": "uint16",
          "name": "referralCode",
          "type": "uint16"
        }
      ],
      "name": "FlashLoan",
      "type": "event"
    },
    {
      "anonymous": false,
      "inputs": [
        {
          "indexed": true,
          "internalType": "address",
          "name": "asset",
          "type": "address"
        },
        {
          "indexed": false,
          "internalType": "uint256",
          "name": "totalDebt",
          "type": "uint256"
        }
      ],
      "name": "IsolationModeTotalDebtUpdated",
      "type": "event"
    },
    {
      "anonymous": false,
      "inputs": [
        {
          "indexed": true,
          "internalType": "address",
          "name": "collateralAsset",
          "type": "address"
        },
        {
          "indexed": true,
          "internalType": "address",
          "name": "debtAsset",
          "type": "address"
        },
        {
          "indexed": true,
          "internalType": "address",
          "name": "user",
          "type": "address"
        },
        {
          "indexed": false,
          "internalType": "uint256",
          "name": "debtToCover",
          "type": "uint256"
        },
        {
          "indexed": false,
          "internalType": "uint256",
          "name": "liquidatedCollateralAmount",
          "type": "uint256"
        },
        {
          "indexed": false,
          "internalType": "address",
          "name": "liquidator",
          "type": "address"
        },
        {
          "indexed": false,
          "internalType": "bool",
          "name": "receiveAToken",
          "type": "bool"
        }
      ],
      "name": "LiquidationCall",
      "type": "event"
    },
    {
      "anonymous": false,
      "inputs": [
        {
          "indexed": true,
          "internalType": "address",
          "name": "reserve",
          "type": "address"
        },
        {
          "indexed": false,
          "internalType": "address",
          "name": "user",
          "type": "address"
        },
        {
          "indexed": true,
          "internalType": "address",
          "name": "onBehalfOf",
          "type": "address"
        },
        {
          "indexed": false,
          "internalType": "uint256",
          "name": "amount",
          "type": "uint256"
        },
        {
          "indexed": true,
          "internalType": "uint16",
          "name": "referralCode",
          "type": "uint16"
        }
      ],
      "name": "MintUnbacked",
      "type": "event"
    },
    {
      "anonymous": false,
      "inputs": [
        {
          "indexed": true,
          "internalType": "address",
          "name": "reserve",
          "type": "address"
        },
        {
          "indexed": false,
          "internalType": "uint256",
          "name": "amountMinted",
          "type": "uint256"
        }
      ],
      "name": "MintedToTreasury",
      "type": "event"
    },
    {
      "anonymous": false,
      "inputs": [
        {
          "indexed": true,
          "internalType": "address",
          "name": "reserve",
          "type": "address"
        },
        {
          "indexed": true,
          "internalType": "address",
          "name": "user",
          "type": "address"
        }
      ],
      "name": "RebalanceStableBorrowRate",
      "type": "event"
    },
    {
      "anonymous": false,
      "inputs": [
        {
          "indexed": true,
          "internalType": "address",
          "name": "reserve",
          "type": "address"
        },
        {
          "indexed": true,
          "internalType": "address",
          "name": "user",
          "type": "address"
        },
        {
          "indexed": true,
          "internalType": "address",
          "name": "repayer",
          "type": "address"
        },
        {
          "indexed": false,
          "internalType": "uint256",
          "name": "amount",
          "type": "uint256"
        },
        {
          "indexed": false,
          "internalType": "bool",
          "name": "useATokens",
          "type": "bool"
        }
      ],
      "name": "Repay",
      "type": "event"
    },
    {
      "anonymous": false,
      "inputs": [
        {
          "indexed": true,
          "internalType": "address",
          "name": "reserve",
          "type": "address"
        },
        {
          "indexed": false,
          "internalType": "uint256",
          "name": "liquidityRate",
          "type": "uint256"
        },
        {
          "indexed": false,
          "internalType": "uint256",
          "name": "stableBorrowRate",
          "type": "uint256"
        },
        {
          "indexed": false,
          "internalType": "uint256",
          "name": "variableBorrowRate",
          "type": "uint256"
        },
        {
          "indexed": false,
          "internalType": "uint256",
          "name": "liquidityIndex",
          "type": "uint256"
        },
        {
          "indexed": false,
          "internalType": "uint256",
          "name": "variableBorrowIndex",
          "type": "uint256"
        }
      ],
      "name": "ReserveDataUpdated",
      "type": "event"
    },
    {
      "anonymous": false,
      "inputs": [
        {
          "indexed": true,
          "internalType": "address",
          "name": "reserve",
          "type": "address"
        },
        {
          "indexed": true,
          "internalType": "address",
          "name": "user",
          "type": "address"
        }
      ],
      "name": "ReserveUsedAsCollateralDisabled",
      "type": "event"
    },
    {
      "anonymous": false,
      "inputs": [
        {
          "indexed": true,
          "internalType": "address",
          "name": "reserve",
          "type": "address"
        },
        {
          "indexed": true,
          "internalType": "address",
          "name": "user",
          "type": "address"
        }
      ],
      "name": "ReserveUsedAsCollateralEnabled",
      "type": "event"
    },
    {
      "anonymous": false,
      "inputs": [
        {
          "indexed": true,
          "internalType": "address",
          "name": "reserve",
          "type": "address"
        },
        {
          "indexed": false,
          "internalType": "address",
          "name": "user",
          "type": "address"
        },
        {
          "indexed": true,
          "internalType": "address",
          "name": "onBehalfOf",
          "type": "address"
        },
        {
          "indexed": false,
          "internalType": "uint256",
          "name": "amount",
          "type": "uint256"
        },
        {
          "indexed": true,
          "internalType": "uint16",
          "name": "referralCode",
          "type": "uint16"
        }
      ],
      "name": "Supply",
      "type": "event"
    },
    {
      "anonymous": false,
      "inputs": [
        {
          "indexed": true,
          "internalType": "address",
          "name": "reserve",
          "type": "address"
        },
        {
          "indexed": true,
          "internalType": "address",
          "name": "user",
          "type": "address"
        },
        {
          "indexed": false,
          "internalType": "enum DataTypes.InterestRateMode",
          "name": "interestRateMode",
          "type": "uint8"
        }
      ],
      "name": "SwapBorrowRateMode",
      "type": "event"
    },
    {
      "anonymous": false,
      "inputs": [
        {
          "indexed": true,
          "internalType": "address",
          "name": "user",
          "type": "address"
        },
        {
          "indexed": false,
          "internalType": "uint8",
          "name": "categoryId",
          "type": "uint8"
        }
      ],
      "name": "UserEModeSet",
      "type": "event"
    },
    {
      "anonymous": false,
      "inputs": [
        {
          "indexed": true,
          "internalType": "address",
          "name": "reserve",
          "type": "address"
        },
        {
          "indexed": true,
          "internalType": "address",
          "name": "user",
          "type": "address"
        },
        {
          "indexed": true,
          "internalType": "address",
          "name": "to",
          "type": "address"
        },
        {
          "indexed": false,
          "internalType": "uint256",
          "name": "amount",
          "type": "uint256"
        }
      ],
      "name": "Withdraw",
      "type": "event"
    },
    {
      "inputs": [],
      "name": "ADDRESSES_PROVIDER",
      "outputs": [
        {
          "internalType": "contract IPoolAddressesProvider",
          "name": "",
          "type": "address"
        }
      ],
      "stateMutability": "view",
      "type": "function"
    },
    {
      "inputs": [],
      "name": "BLAST",
      "outputs": [
        {
          "internalType": "address",
          "name": "",
          "type": "address"
        }
      ],
      "stateMutability": "view",
      "type": "function"
    },
    {
      "inputs": [],
      "name": "BRIDGE_PROTOCOL_FEE",
      "outputs": [
        {
          "internalType": "uint256",
          "name": "",
          "type": "uint256"
        }
      ],
      "stateMutability": "view",
      "type": "function"
    },
    {
      "inputs": [],
      "name": "FLASHLOAN_PREMIUM_TOTAL",
      "outputs": [
        {
          "internalType": "uint128",
          "name": "",
          "type": "uint128"
        }
      ],
      "stateMutability": "view",
      "type": "function"
    },
    {
      "inputs": [],
      "name": "FLASHLOAN_PREMIUM_TO_PROTOCOL",
      "outputs": [
        {
          "internalType": "uint128",
          "name": "",
          "type": "uint128"
        }
      ],
      "stateMutability": "view",
      "type": "function"
    },
    {
      "inputs": [],
      "name": "MAX_NUMBER_RESERVES",
      "outputs": [
        {
          "internalType": "uint16",
          "name": "",
          "type": "uint16"
        }
      ],
      "stateMutability": "view",
      "type": "function"
    },
    {
      "inputs": [],
      "name": "MAX_STABLE_RATE_BORROW_SIZE_PERCENT",
      "outputs": [
        {
          "internalType": "uint256",
          "name": "",
          "type": "uint256"
        }
      ],
      "stateMutability": "view",
      "type": "function"
    },
    {
      "inputs": [],
      "name": "POOL_REVISION",
      "outputs": [
        {
          "internalType": "uint256",
          "name": "",
          "type": "uint256"
        }
      ],
      "stateMutability": "view",
      "type": "function"
    },
    {
      "inputs": [
        {
          "internalType": "address",
          "name": "asset",
          "type": "address"
        },
        {
          "internalType": "uint256",
          "name": "amount",
          "type": "uint256"
        },
        {
          "internalType": "uint256",
          "name": "fee",
          "type": "uint256"
        }
      ],
      "name": "backUnbacked",
      "outputs": [
        {
          "internalType": "uint256",
          "name": "",
          "type": "uint256"
        }
      ],
      "stateMutability": "nonpayable",
      "type": "function"
    },
    {
      "inputs": [
        {
          "internalType": "address",
          "name": "asset",
          "type": "address"
        },
        {
          "internalType": "uint256",
          "name": "amount",
          "type": "uint256"
        },
        {
          "internalType": "uint256",
          "name": "interestRateMode",
          "type": "uint256"
        },
        {
          "internalType": "uint16",
          "name": "referralCode",
          "type": "uint16"
        },
        {
          "internalType": "address",
          "name": "onBehalfOf",
          "type": "address"
        }
      ],
      "name": "borrow",
      "outputs": [],
      "stateMutability": "nonpayable",
      "type": "function"
    },
    {
      "inputs": [
        {
          "internalType": "address",
          "name": "recipient",
          "type": "address"
        }
      ],
      "name": "claimRefundedGas",
      "outputs": [],
      "stateMutability": "nonpayable",
      "type": "function"
    },
    {
      "inputs": [
        {
          "internalType": "uint8",
          "name": "id",
          "type": "uint8"
        },
        {
          "components": [
            {
              "internalType": "uint16",
              "name": "ltv",
              "type": "uint16"
            },
            {
              "internalType": "uint16",
              "name": "liquidationThreshold",
              "type": "uint16"
            },
            {
              "internalType": "uint16",
              "name": "liquidationBonus",
              "type": "uint16"
            },
            {
              "internalType": "address",
              "name": "priceSource",
              "type": "address"
            },
            {
              "internalType": "string",
              "name": "label",
              "type": "string"
            }
          ],
          "internalType": "struct DataTypes.EModeCategory",
          "name": "category",
          "type": "tuple"
        }
      ],
      "name": "configureEModeCategory",
      "outputs": [],
      "stateMutability": "nonpayable",
      "type": "function"
    },
    {
      "inputs": [
        {
          "internalType": "address",
          "name": "asset",
          "type": "address"
        },
        {
          "internalType": "uint256",
          "name": "amount",
          "type": "uint256"
        },
        {
          "internalType": "address",
          "name": "onBehalfOf",
          "type": "address"
        },
        {
          "internalType": "uint16",
          "name": "referralCode",
          "type": "uint16"
        }
      ],
      "name": "deposit",
      "outputs": [],
      "stateMutability": "nonpayable",
      "type": "function"
    },
    {
      "inputs": [
        {
          "internalType": "address",
          "name": "asset",
          "type": "address"
        }
      ],
      "name": "dropReserve",
      "outputs": [],
      "stateMutability": "nonpayable",
      "type": "function"
    },
    {
      "inputs": [
        {
          "internalType": "address",
          "name": "asset",
          "type": "address"
        },
        {
          "internalType": "address",
          "name": "from",
          "type": "address"
        },
        {
          "internalType": "address",
          "name": "to",
          "type": "address"
        },
        {
          "internalType": "uint256",
          "name": "amount",
          "type": "uint256"
        },
        {
          "internalType": "uint256",
          "name": "balanceFromBefore",
          "type": "uint256"
        },
        {
          "internalType": "uint256",
          "name": "balanceToBefore",
          "type": "uint256"
        }
      ],
      "name": "finalizeTransfer",
      "outputs": [],
      "stateMutability": "nonpayable",
      "type": "function"
    },
    {
      "inputs": [
        {
          "internalType": "address",
          "name": "receiverAddress",
          "type": "address"
        },
        {
          "internalType": "address[]",
          "name": "assets",
          "type": "address[]"
        },
        {
          "internalType": "uint256[]",
          "name": "amounts",
          "type": "uint256[]"
        },
        {
          "internalType": "uint256[]",
          "name": "interestRateModes",
          "type": "uint256[]"
        },
        {
          "internalType": "address",
          "name": "onBehalfOf",
          "type": "address"
        },
        {
          "internalType": "bytes",
          "name": "params",
          "type": "bytes"
        },
        {
          "internalType": "uint16",
          "name": "referralCode",
          "type": "uint16"
        }
      ],
      "name": "flashLoan",
      "outputs": [],
      "stateMutability": "nonpayable",
      "type": "function"
    },
    {
      "inputs": [
        {
          "internalType": "address",
          "name": "receiverAddress",
          "type": "address"
        },
        {
          "internalType": "address",
          "name": "asset",
          "type": "address"
        },
        {
          "internalType": "uint256",
          "name": "amount",
          "type": "uint256"
        },
        {
          "internalType": "bytes",
          "name": "params",
          "type": "bytes"
        },
        {
          "internalType": "uint16",
          "name": "referralCode",
          "type": "uint16"
        }
      ],
      "name": "flashLoanSimple",
      "outputs": [],
      "stateMutability": "nonpayable",
      "type": "function"
    },
    {
      "inputs": [
        {
          "internalType": "address",
          "name": "asset",
          "type": "address"
        }
      ],
      "name": "getConfiguration",
      "outputs": [
        {
          "components": [
            {
              "internalType": "uint256",
              "name": "data",
              "type": "uint256"
            }
          ],
          "internalType": "struct DataTypes.ReserveConfigurationMap",
          "name": "",
          "type": "tuple"
        }
      ],
      "stateMutability": "view",
      "type": "function"
    },
    {
      "inputs": [
        {
          "internalType": "uint8",
          "name": "id",
          "type": "uint8"
        }
      ],
      "name": "getEModeCategoryData",
      "outputs": [
        {
          "components": [
            {
              "internalType": "uint16",
              "name": "ltv",
              "type": "uint16"
            },
            {
              "internalType": "uint16",
              "name": "liquidationThreshold",
              "type": "uint16"
            },
            {
              "internalType": "uint16",
              "name": "liquidationBonus",
              "type": "uint16"
            },
            {
              "internalType": "address",
              "name": "priceSource",
              "type": "address"
            },
            {
              "internalType": "string",
              "name": "label",
              "type": "string"
            }
          ],
          "internalType": "struct DataTypes.EModeCategory",
          "name": "",
          "type": "tuple"
        }
      ],
      "stateMutability": "view",
      "type": "function"
    },
    {
      "inputs": [
        {
          "internalType": "uint16",
          "name": "id",
          "type": "uint16"
        }
      ],
      "name": "getReserveAddressById",
      "outputs": [
        {
          "internalType": "address",
          "name": "",
          "type": "address"
        }
      ],
      "stateMutability": "view",
      "type": "function"
    },
    {
      "inputs": [
        {
          "internalType": "address",
          "name": "asset",
          "type": "address"
        }
      ],
      "name": "getReserveData",
      "outputs": [
        {
          "components": [
            {
              "components": [
                {
                  "internalType": "uint256",
                  "name": "data",
                  "type": "uint256"
                }
              ],
              "internalType": "struct DataTypes.ReserveConfigurationMap",
              "name": "configuration",
              "type": "tuple"
            },
            {
              "internalType": "uint128",
              "name": "liquidityIndex",
              "type": "uint128"
            },
            {
              "internalType": "uint128",
              "name": "currentLiquidityRate",
              "type": "uint128"
            },
            {
              "internalType": "uint128",
              "name": "variableBorrowIndex",
              "type": "uint128"
            },
            {
              "internalType": "uint128",
              "name": "currentVariableBorrowRate",
              "type": "uint128"
            },
            {
              "internalType": "uint128",
              "name": "currentStableBorrowRate",
              "type": "uint128"
            },
            {
              "internalType": "uint40",
              "name": "lastUpdateTimestamp",
              "type": "uint40"
            },
            {
              "internalType": "uint16",
              "name": "id",
              "type": "uint16"
            },
            {
              "internalType": "address",
              "name": "aTokenAddress",
              "type": "address"
            },
            {
              "internalType": "address",
              "name": "stableDebtTokenAddress",
              "type": "address"
            },
            {
              "internalType": "address",
              "name": "variableDebtTokenAddress",
              "type": "address"
            },
            {
              "internalType": "address",
              "name": "interestRateStrategyAddress",
              "type": "address"
            },
            {
              "internalType": "uint128",
              "name": "accruedToTreasury",
              "type": "uint128"
            },
            {
              "internalType": "uint128",
              "name": "unbacked",
              "type": "uint128"
            },
            {
              "internalType": "uint128",
              "name": "isolationModeTotalDebt",
              "type": "uint128"
            }
          ],
          "internalType": "struct DataTypes.ReserveData",
          "name": "",
          "type": "tuple"
        }
      ],
      "stateMutability": "view",
      "type": "function"
    },
    {
      "inputs": [
        {
          "internalType": "address",
          "name": "asset",
          "type": "address"
        }
      ],
      "name": "getReserveNormalizedIncome",
      "outputs": [
        {
          "internalType": "uint256",
          "name": "",
          "type": "uint256"
        }
      ],
      "stateMutability": "view",
      "type": "function"
    },
    {
      "inputs": [
        {
          "internalType": "address",
          "name": "asset",
          "type": "address"
        }
      ],
      "name": "getReserveNormalizedVariableDebt",
      "outputs": [
        {
          "internalType": "uint256",
          "name": "",
          "type": "uint256"
        }
      ],
      "stateMutability": "view",
      "type": "function"
    },
    {
      "inputs": [],
      "name": "getReservesList",
      "outputs": [
        {
          "internalType": "address[]",
          "name": "",
          "type": "address[]"
        }
      ],
      "stateMutability": "view",
      "type": "function"
    },
    {
      "inputs": [
        {
          "internalType": "address",
          "name": "user",
          "type": "address"
        }
      ],
      "name": "getUserAccountData",
      "outputs": [
        {
          "internalType": "uint256",
          "name": "totalCollateralBase",
          "type": "uint256"
        },
        {
          "internalType": "uint256",
          "name": "totalDebtBase",
          "type": "uint256"
        },
        {
          "internalType": "uint256",
          "name": "availableBorrowsBase",
          "type": "uint256"
        },
        {
          "internalType": "uint256",
          "name": "currentLiquidationThreshold",
          "type": "uint256"
        },
        {
          "internalType": "uint256",
          "name": "ltv",
          "type": "uint256"
        },
        {
          "internalType": "uint256",
          "name": "healthFactor",
          "type": "uint256"
        }
      ],
      "stateMutability": "view",
      "type": "function"
    },
    {
      "inputs": [
        {
          "internalType": "address",
          "name": "user",
          "type": "address"
        }
      ],
      "name": "getUserConfiguration",
      "outputs": [
        {
          "components": [
            {
              "internalType": "uint256",
              "name": "data",
              "type": "uint256"
            }
          ],
          "internalType": "struct DataTypes.UserConfigurationMap",
          "name": "",
          "type": "tuple"
        }
      ],
      "stateMutability": "view",
      "type": "function"
    },
    {
      "inputs": [
        {
          "internalType": "address",
          "name": "user",
          "type": "address"
        }
      ],
      "name": "getUserEMode",
      "outputs": [
        {
          "internalType": "uint256",
          "name": "",
          "type": "uint256"
        }
      ],
      "stateMutability": "view",
      "type": "function"
    },
    {
      "inputs": [
        {
          "internalType": "address",
          "name": "asset",
          "type": "address"
        },
        {
          "internalType": "address",
          "name": "aTokenAddress",
          "type": "address"
        },
        {
          "internalType": "address",
          "name": "stableDebtAddress",
          "type": "address"
        },
        {
          "internalType": "address",
          "name": "variableDebtAddress",
          "type": "address"
        },
        {
          "internalType": "address",
          "name": "interestRateStrategyAddress",
          "type": "address"
        }
      ],
      "name": "initReserve",
      "outputs": [],
      "stateMutability": "nonpayable",
      "type": "function"
    },
    {
      "inputs": [
        {
          "internalType": "contract IPoolAddressesProvider",
          "name": "provider",
          "type": "address"
        }
      ],
      "name": "initialize",
      "outputs": [],
      "stateMutability": "nonpayable",
      "type": "function"
    },
    {
      "inputs": [
        {
          "internalType": "address",
          "name": "collateralAsset",
          "type": "address"
        },
        {
          "internalType": "address",
          "name": "debtAsset",
          "type": "address"
        },
        {
          "internalType": "address",
          "name": "user",
          "type": "address"
        },
        {
          "internalType": "uint256",
          "name": "debtToCover",
          "type": "uint256"
        },
        {
          "internalType": "bool",
          "name": "receiveAToken",
          "type": "bool"
        }
      ],
      "name": "liquidationCall",
      "outputs": [],
      "stateMutability": "nonpayable",
      "type": "function"
    },
    {
      "inputs": [
        {
          "internalType": "address[]",
          "name": "assets",
          "type": "address[]"
        }
      ],
      "name": "mintToTreasury",
      "outputs": [],
      "stateMutability": "nonpayable",
      "type": "function"
    },
    {
      "inputs": [
        {
          "internalType": "address",
          "name": "asset",
          "type": "address"
        },
        {
          "internalType": "uint256",
          "name": "amount",
          "type": "uint256"
        },
        {
          "internalType": "address",
          "name": "onBehalfOf",
          "type": "address"
        },
        {
          "internalType": "uint16",
          "name": "referralCode",
          "type": "uint16"
        }
      ],
      "name": "mintUnbacked",
      "outputs": [],
      "stateMutability": "nonpayable",
      "type": "function"
    },
    {
      "inputs": [
        {
          "internalType": "address",
          "name": "asset",
          "type": "address"
        },
        {
          "internalType": "address",
          "name": "user",
          "type": "address"
        }
      ],
      "name": "rebalanceStableBorrowRate",
      "outputs": [],
      "stateMutability": "nonpayable",
      "type": "function"
    },
    {
      "inputs": [
        {
          "internalType": "address",
          "name": "asset",
          "type": "address"
        },
        {
          "internalType": "uint256",
          "name": "amount",
          "type": "uint256"
        },
        {
          "internalType": "uint256",
          "name": "interestRateMode",
          "type": "uint256"
        },
        {
          "internalType": "address",
          "name": "onBehalfOf",
          "type": "address"
        }
      ],
      "name": "repay",
      "outputs": [
        {
          "internalType": "uint256",
          "name": "",
          "type": "uint256"
        }
      ],
      "stateMutability": "nonpayable",
      "type": "function"
    },
    {
      "inputs": [
        {
          "internalType": "address",
          "name": "asset",
          "type": "address"
        },
        {
          "internalType": "uint256",
          "name": "amount",
          "type": "uint256"
        },
        {
          "internalType": "uint256",
          "name": "interestRateMode",
          "type": "uint256"
        }
      ],
      "name": "repayWithATokens",
      "outputs": [
        {
          "internalType": "uint256",
          "name": "",
          "type": "uint256"
        }
      ],
      "stateMutability": "nonpayable",
      "type": "function"
    },
    {
      "inputs": [
        {
          "internalType": "address",
          "name": "asset",
          "type": "address"
        },
        {
          "internalType": "uint256",
          "name": "amount",
          "type": "uint256"
        },
        {
          "internalType": "uint256",
          "name": "interestRateMode",
          "type": "uint256"
        },
        {
          "internalType": "address",
          "name": "onBehalfOf",
          "type": "address"
        },
        {
          "internalType": "uint256",
          "name": "deadline",
          "type": "uint256"
        },
        {
          "internalType": "uint8",
          "name": "permitV",
          "type": "uint8"
        },
        {
          "internalType": "bytes32",
          "name": "permitR",
          "type": "bytes32"
        },
        {
          "internalType": "bytes32",
          "name": "permitS",
          "type": "bytes32"
        }
      ],
      "name": "repayWithPermit",
      "outputs": [
        {
          "internalType": "uint256",
          "name": "",
          "type": "uint256"
        }
      ],
      "stateMutability": "nonpayable",
      "type": "function"
    },
    {
      "inputs": [
        {
          "internalType": "address",
          "name": "token",
          "type": "address"
        },
        {
          "internalType": "address",
          "name": "to",
          "type": "address"
        },
        {
          "internalType": "uint256",
          "name": "amount",
          "type": "uint256"
        }
      ],
      "name": "rescueTokens",
      "outputs": [],
      "stateMutability": "nonpayable",
      "type": "function"
    },
    {
      "inputs": [
        {
          "internalType": "address",
          "name": "asset",
          "type": "address"
        }
      ],
      "name": "resetIsolationModeTotalDebt",
      "outputs": [],
      "stateMutability": "nonpayable",
      "type": "function"
    },
    {
      "inputs": [
        {
          "internalType": "address",
          "name": "asset",
          "type": "address"
        },
        {
          "components": [
            {
              "internalType": "uint256",
              "name": "data",
              "type": "uint256"
            }
          ],
          "internalType": "struct DataTypes.ReserveConfigurationMap",
          "name": "configuration",
          "type": "tuple"
        }
      ],
      "name": "setConfiguration",
      "outputs": [],
      "stateMutability": "nonpayable",
      "type": "function"
    },
    {
      "inputs": [
        {
          "internalType": "address",
          "name": "asset",
          "type": "address"
        },
        {
          "internalType": "address",
          "name": "rateStrategyAddress",
          "type": "address"
        }
      ],
      "name": "setReserveInterestRateStrategyAddress",
      "outputs": [],
      "stateMutability": "nonpayable",
      "type": "function"
    },
    {
      "inputs": [
        {
          "internalType": "uint8",
          "name": "categoryId",
          "type": "uint8"
        }
      ],
      "name": "setUserEMode",
      "outputs": [],
      "stateMutability": "nonpayable",
      "type": "function"
    },
    {
      "inputs": [
        {
          "internalType": "address",
          "name": "asset",
          "type": "address"
        },
        {
          "internalType": "bool",
          "name": "useAsCollateral",
          "type": "bool"
        }
      ],
      "name": "setUserUseReserveAsCollateral",
      "outputs": [],
      "stateMutability": "nonpayable",
      "type": "function"
    },
    {
      "inputs": [
        {
          "internalType": "address",
          "name": "asset",
          "type": "address"
        },
        {
          "internalType": "uint256",
          "name": "amount",
          "type": "uint256"
        },
        {
          "internalType": "address",
          "name": "onBehalfOf",
          "type": "address"
        },
        {
          "internalType": "uint16",
          "name": "referralCode",
          "type": "uint16"
        }
      ],
      "name": "supply",
      "outputs": [],
      "stateMutability": "nonpayable",
      "type": "function"
    },
    {
      "inputs": [
        {
          "internalType": "address",
          "name": "asset",
          "type": "address"
        },
        {
          "internalType": "uint256",
          "name": "amount",
          "type": "uint256"
        },
        {
          "internalType": "address",
          "name": "onBehalfOf",
          "type": "address"
        },
        {
          "internalType": "uint16",
          "name": "referralCode",
          "type": "uint16"
        },
        {
          "internalType": "uint256",
          "name": "deadline",
          "type": "uint256"
        },
        {
          "internalType": "uint8",
          "name": "permitV",
          "type": "uint8"
        },
        {
          "internalType": "bytes32",
          "name": "permitR",
          "type": "bytes32"
        },
        {
          "internalType": "bytes32",
          "name": "permitS",
          "type": "bytes32"
        }
      ],
      "name": "supplyWithPermit",
      "outputs": [],
      "stateMutability": "nonpayable",
      "type": "function"
    },
    {
      "inputs": [
        {
          "internalType": "address",
          "name": "asset",
          "type": "address"
        },
        {
          "internalType": "uint256",
          "name": "interestRateMode",
          "type": "uint256"
        }
      ],
      "name": "swapBorrowRateMode",
      "outputs": [],
      "stateMutability": "nonpayable",
      "type": "function"
    },
    {
      "inputs": [
        {
          "internalType": "uint256",
          "name": "protocolFee",
          "type": "uint256"
        }
      ],
      "name": "updateBridgeProtocolFee",
      "outputs": [],
      "stateMutability": "nonpayable",
      "type": "function"
    },
    {
      "inputs": [
        {
          "internalType": "uint128",
          "name": "flashLoanPremiumTotal",
          "type": "uint128"
        },
        {
          "internalType": "uint128",
          "name": "flashLoanPremiumToProtocol",
          "type": "uint128"
        }
      ],
      "name": "updateFlashloanPremiums",
      "outputs": [],
      "stateMutability": "nonpayable",
      "type": "function"
    },
    {
      "inputs": [
        {
          "internalType": "address",
          "name": "asset",
          "type": "address"
        },
        {
          "internalType": "uint256",
          "name": "amount",
          "type": "uint256"
        },
        {
          "internalType": "address",
          "name": "to",
          "type": "address"
        }
      ],
      "name": "withdraw",
      "outputs": [
        {
          "internalType": "uint256",
          "name": "",
          "type": "uint256"
        }
      ],
      "stateMutability": "nonpayable",
      "type": "function"
    }
  ],
  "transactionHash": "0xb09c43f20e353c6895a4ba32a41a63f2408add12b6dd03acf078e306d92c8eb6",
  "args": [
    "0x6fA71bfF0Ec45bdf8c4ebD7E096c3fA03886dF6a",
    "0x4300000000000000000000000000000000000002"
  ],
  "numDeployments": 1,
  "solcInputHash": "dac14635de878de940bceff20de8cb7b",
  "bytecode": "0x60c0604052600080553480156200001557600080fd5b5060405162005abe38038062005abe833981016040819052620000389162000069565b6001600160a01b0391821660a05216608052620000a8565b6001600160a01b03811681146200006657600080fd5b50565b600080604083850312156200007d57600080fd5b82516200008a8162000050565b60208401519092506200009d8162000050565b809150509250929050565b60805160a051615979620001456000396000818161036c01528181610a9e01528181610b900152818161109301528181611a7601528181611e1c0152818161252d015281816125fe0152818161285101528181612b4c01528181612dab015281816134df01528181613adf01528181613bf60152613e130152600081816107c80152818161123d01528181612e950152612ed101526159796000f3fe608060405234801561001057600080fd5b506004361061031f5760003560e01c80637a708e92116101a7578063d15e0053116100ee578063e82fec2f11610097578063ee3e210b11610071578063ee3e210b146109bd578063f51e435b146109d0578063f8119d51146109e357600080fd5b8063e82fec2f14610972578063e8eda9df14610703578063eddf1b791461098457600080fd5b8063d5ed3933116100c8578063d5ed393314610939578063d65dc7a11461094c578063e43e88a11461095f57600080fd5b8063d15e0053146108fe578063d1946dbc14610911578063d579ea7d1461092657600080fd5b8063bcb6e52211610150578063c4d66de81161012a578063c4d66de8146108c5578063cd112382146108d8578063cea9d26f146108eb57600080fd5b8063bcb6e52214610823578063bf92857c14610836578063c44b11f71461087657600080fd5b80639cd19996116101815780639cd19996146107ea578063a415bcad146107fd578063ab9c4b5d1461081057600080fd5b80637a708e921461079d57806394ba89a2146107b057806397d75776146107c357600080fd5b8063386497fd1161026b578063617ba0371161021457806369a933a5116101ee57806369a933a51461073c5780636a99c0361461074f5780636c6f6ae11461077d57600080fd5b8063617ba0371461070357806363c9b8601461071657806369328dec1461072957600080fd5b8063527517971161024557806352751797146106a3578063573ade81146106dd5780635a3b74b9146106f057600080fd5b8063386497fd1461061f57806342b0b77c146106325780634417a5831461064557600080fd5b8063272d9072116102cd5780632dad97d4116102a75780632dad97d41461042b5780633036b4391461043e57806335ea6a751461045157600080fd5b8063272d9072146103fd57806328530a47146104055780632cca1cdf1461041857600080fd5b80630542975c116102fe5780630542975c14610367578063074b2e43146103b35780631d2118f9146103ea57600080fd5b8062a718a9146103245780630148170e1461033957806302c205f014610354575b600080fd5b6103376103323660046142eb565b6109f2565b005b610341600181565b6040519081526020015b60405180910390f35b610337610362366004614376565b610c6d565b61038e7f000000000000000000000000000000000000000000000000000000000000000081565b60405173ffffffffffffffffffffffffffffffffffffffff909116815260200161034b565b603a546fffffffffffffffffffffffffffffffff165b6040516fffffffffffffffffffffffffffffffff909116815260200161034b565b6103376103f83660046143f5565b610e1d565b603954610341565b61033761041336600461442e565b61100b565b610337610426366004614449565b6111ea565b610341610439366004614466565b6115aa565b61033761044c36600461449b565b6116ee565b61061261045f366004614449565b604080516102008101825260006101e08201818152825260208201819052918101829052606081018290526080810182905260a0810182905260c0810182905260e08101829052610100810182905261012081018290526101408101829052610160810182905261018081018290526101a081018290526101c08101919091525073ffffffffffffffffffffffffffffffffffffffff90811660009081526034602090815260409182902082516102008101845281546101e08201908152815260018201546fffffffffffffffffffffffffffffffff80821694830194909452700100000000000000000000000000000000908190048416948201949094526002820154808416606083015284900483166080820152600382015480841660a083015284810464ffffffffff1660c08301527501000000000000000000000000000000000000000000900461ffff1660e0820152600482015485166101008201526005820154851661012082015260068201548516610140820152600782015490941661016085015260088101548083166101808601529290920481166101a0840152600990910154166101c082015290565b60405161034b91906144b4565b61034161062d366004614449565b6116fb565b61033761064036600461467a565b61172f565b610694610653366004614449565b604080516020808201835260009182905273ffffffffffffffffffffffffffffffffffffffff93909316815260358352819020815192830190915254815290565b6040519051815260200161034b565b61038e6106b13660046146fc565b61ffff1660009081526036602052604090205473ffffffffffffffffffffffffffffffffffffffff1690565b6103416106eb366004614717565b6118a9565b6103376106fe366004614761565b611a02565b61033761071136600461478f565b611bd7565b610337610724366004614449565b611cda565b6103416107373660046147e0565b611d56565b61033761074a36600461478f565b611f75565b603a5470010000000000000000000000000000000090046fffffffffffffffffffffffffffffffff166103c9565b61079061078b36600461442e565b612022565b60405161034b919061488d565b6103376107ab3660046148f0565b61215c565b6103376107be366004614953565b6122e8565b61038e7f000000000000000000000000000000000000000000000000000000000000000081565b6103376107f83660046149c4565b612369565b61033761080b366004614a06565b6123be565b61033761081e366004614a45565b6126a4565b610337610831366004614b5f565b612a5d565b610849610844366004614449565b612a94565b604080519687526020870195909552938501929092526060840152608083015260a082015260c00161034b565b610694610884366004614449565b604080516020808201835260009182905273ffffffffffffffffffffffffffffffffffffffff93909316815260348352819020815192830190915254815290565b6103376108d3366004614449565b612cc3565b6103376108e63660046143f5565b612f84565b6103376108f9366004614b92565b61300d565b61034161090c366004614449565b6130ba565b6109196130e8565b60405161034b9190614bd3565b610337610934366004614cd4565b613224565b610337610947366004614e0c565b613390565b61034161095a366004614466565b613617565b61033761096d366004614449565b6136b7565b603b5467ffffffffffffffff16610341565b610341610992366004614449565b73ffffffffffffffffffffffffffffffffffffffff1660009081526038602052604090205460ff1690565b6103416109cb366004614e71565b61372c565b6103376109de366004614eb7565b613907565b6040516080815260200161034b565b73e2df064B0dCa2fCE3e152BD96274CBcFf6cCefDE6383c1087d6034603660356037604051806101200160405280603b60089054906101000a900461ffff1661ffff1681526020018981526020018c73ffffffffffffffffffffffffffffffffffffffff1681526020018b73ffffffffffffffffffffffffffffffffffffffff1681526020018a73ffffffffffffffffffffffffffffffffffffffff16815260200188151581526020017f000000000000000000000000000000000000000000000000000000000000000073ffffffffffffffffffffffffffffffffffffffff1663fca513a86040518163ffffffff1660e01b8152600401602060405180830381865afa158015610b07573d6000803e3d6000fd5b505050506040513d601f19601f82011682018060405250810190610b2b9190614f16565b73ffffffffffffffffffffffffffffffffffffffff90811682528b81166000908152603860209081526040918290205460ff168185015281517f5eb88d3d000000000000000000000000000000000000000000000000000000008152825192909401937f000000000000000000000000000000000000000000000000000000000000000090931692635eb88d3d92600480830193928290030181865afa158015610bd9573d6000803e3d6000fd5b505050506040513d601f19601f82011682018060405250810190610bfd9190614f16565b73ffffffffffffffffffffffffffffffffffffffff168152506040518663ffffffff1660e01b8152600401610c36959493929190614f33565b60006040518083038186803b158015610c4e57600080fd5b505af4158015610c62573d6000803e3d6000fd5b505050505050505050565b6040517fd505accf000000000000000000000000000000000000000000000000000000008152336004820152306024820152604481018890526064810185905260ff8416608482015260a4810183905260c4810182905273ffffffffffffffffffffffffffffffffffffffff89169063d505accf9060e401600060405180830381600087803b158015610cff57600080fd5b505af1158015610d13573d6000803e3d6000fd5b5050505073ffffffffffffffffffffffffffffffffffffffff86811660008181526035602090815260409182902082516080810184528d861681529182018c815282840194855261ffff8b81166060850190815294517f1913f16100000000000000000000000000000000000000000000000000000000815260346004820152603660248201526044810193909352925186166064830152516084820152925190931660a48301525190911660c4820152737eA715f0AA2B03b5C4C19Fb40c5fD982916c2e4990631913f1619060e40160006040518083038186803b158015610dfb57600080fd5b505af4158015610e0f573d6000803e3d6000fd5b505050505050505050505050565b610e25613ac6565b60408051808201909152600281527f3737000000000000000000000000000000000000000000000000000000000000602082015273ffffffffffffffffffffffffffffffffffffffff8316610eb0576040517f08c379a0000000000000000000000000000000000000000000000000000000008152600401610ea79190615014565b60405180910390fd5b5073ffffffffffffffffffffffffffffffffffffffff82166000908152603460205260409020600301547501000000000000000000000000000000000000000000900461ffff16151580610f4657506000805260366020527f4cb2b152c1b54ce671907a93c300fd5aa72383a9d4ec19a81e3333632ae92e005473ffffffffffffffffffffffffffffffffffffffff8381169116145b6040518060400160405280600281526020017f383200000000000000000000000000000000000000000000000000000000000081525090610fb4576040517f08c379a0000000000000000000000000000000000000000000000000000000008152600401610ea79190615014565b5073ffffffffffffffffffffffffffffffffffffffff918216600090815260346020526040902060070180547fffffffffffffffffffffffff00000000000000000000000000000000000000001691909216179055565b73Bf0B72a3D394a51aF630763bce9cb788f95Aa244635d5dc3136034603660376038603560003373ffffffffffffffffffffffffffffffffffffffff1673ffffffffffffffffffffffffffffffffffffffff1681526020019081526020016000206040518060600160405280603b60089054906101000a900461ffff1661ffff1681526020017f000000000000000000000000000000000000000000000000000000000000000073ffffffffffffffffffffffffffffffffffffffff1663fca513a86040518163ffffffff1660e01b8152600401602060405180830381865afa1580156110fc573d6000803e3d6000fd5b505050506040513d601f19601f820116820180604052508101906111209190614f16565b73ffffffffffffffffffffffffffffffffffffffff1681526020018960ff168152506040518763ffffffff1660e01b81526004016111b79695949392919095865260208087019590955260408087019490945260608601929092526080850152805160a08501529182015173ffffffffffffffffffffffffffffffffffffffff1660c0840152015160ff1660e08201526101000190565b60006040518083038186803b1580156111cf57600080fd5b505af41580156111e3573d6000803e3d6000fd5b5050505050565b6111f2613bf4565b6040517f662aa11d00000000000000000000000000000000000000000000000000000000815230600482015273ffffffffffffffffffffffffffffffffffffffff82811660248301527f0000000000000000000000000000000000000000000000000000000000000000169063662aa11d906044016020604051808303816000875af1158015611286573d6000803e3d6000fd5b505050506040513d601f19601f820116820180604052508101906112aa9190615027565b5060006112b56130e8565b805190915060005b818110156115a45760008382815181106112d9576112d9615040565b60209081029190910181015173ffffffffffffffffffffffffffffffffffffffff80821660009081526034845260409081902081516102008101835281546101e08201908152815260018201546fffffffffffffffffffffffffffffffff80821697830197909752700100000000000000000000000000000000908190048716828501526002830154808816606084015281900487166080830152600383015480881660a084015281810464ffffffffff1660c08401527501000000000000000000000000000000000000000000900461ffff1660e0830152600480840154861661010084018190526005850154871661012085015260068501548716610140850152600785015487166101608501526008850154808a166101808601529290920488166101a08401526009909301549096166101c082015291517f2cca1cdf000000000000000000000000000000000000000000000000000000008152928a1690830152919350909190632cca1cdf90602401600060405180830381600087803b15801561146757600080fd5b505af115801561147b573d6000803e3d6000fd5b5050506101208201516040517f2cca1cdf00000000000000000000000000000000000000000000000000000000815273ffffffffffffffffffffffffffffffffffffffff89811660048301529091169150632cca1cdf90602401600060405180830381600087803b1580156114ef57600080fd5b505af1158015611503573d6000803e3d6000fd5b5050506101408201516040517f2cca1cdf00000000000000000000000000000000000000000000000000000000815273ffffffffffffffffffffffffffffffffffffffff89811660048301529091169150632cca1cdf90602401600060405180830381600087803b15801561157757600080fd5b505af115801561158b573d6000803e3d6000fd5b505050505050808061159c9061509e565b9150506112bd565b50505050565b6000735D52c32Ab79f1eB749324f64cF08A94d224e1C7F6340e95de660346036603560003373ffffffffffffffffffffffffffffffffffffffff1673ffffffffffffffffffffffffffffffffffffffff1681526020019081526020016000206040518060a001604052808a73ffffffffffffffffffffffffffffffffffffffff168152602001898152602001886002811115611648576116486150d7565b6002811115611659576116596150d7565b81523360208201526001604091820152517fffffffff0000000000000000000000000000000000000000000000000000000060e087901b1681526116a39493929190600401615141565b602060405180830381865af41580156116c0573d6000803e3d6000fd5b505050506040513d601f19601f820116820180604052508101906116e49190615027565b90505b9392505050565b6116f6613ac6565b603955565b73ffffffffffffffffffffffffffffffffffffffff8116600090815260346020526040812061172990613d81565b92915050565b60006040518060e001604052808873ffffffffffffffffffffffffffffffffffffffff1681526020018773ffffffffffffffffffffffffffffffffffffffff16815260200186815260200185858080601f016020809104026020016040519081016040528093929190818152602001838380828437600092018290525093855250505061ffff8516602080840191909152603a546fffffffffffffffffffffffffffffffff70010000000000000000000000000000000082048116604080870191909152911660609094019390935273ffffffffffffffffffffffffffffffffffffffff8a1682526034905281902090517fa1fe0e8d000000000000000000000000000000000000000000000000000000008152919250736e8dB4157ead55C3eE03776DBe22e5B9d97B61cC9163a1fe0e8d916118709185906004016151b4565b60006040518083038186803b15801561188857600080fd5b505af415801561189c573d6000803e3d6000fd5b5050505050505050505050565b6000735D52c32Ab79f1eB749324f64cF08A94d224e1C7F6340e95de660346036603560008773ffffffffffffffffffffffffffffffffffffffff1673ffffffffffffffffffffffffffffffffffffffff1681526020019081526020016000206040518060a001604052808b73ffffffffffffffffffffffffffffffffffffffff1681526020018a8152602001896002811115611947576119476150d7565b6002811115611958576119586150d7565b815273ffffffffffffffffffffffffffffffffffffffff891660208201526000604091820152517fffffffff0000000000000000000000000000000000000000000000000000000060e087901b1681526119b89493929190600401615141565b602060405180830381865af41580156119d5573d6000803e3d6000fd5b505050506040513d601f19601f820116820180604052508101906119f99190615027565b95945050505050565b737eA715f0AA2B03b5C4C19Fb40c5fD982916c2e4963bf697a26603460366037603560003373ffffffffffffffffffffffffffffffffffffffff1673ffffffffffffffffffffffffffffffffffffffff1681526020019081526020016000208787603b60089054906101000a900461ffff167f000000000000000000000000000000000000000000000000000000000000000073ffffffffffffffffffffffffffffffffffffffff1663fca513a86040518163ffffffff1660e01b8152600401602060405180830381865afa158015611adf573d6000803e3d6000fd5b505050506040513d601f19601f82011682018060405250810190611b039190614f16565b336000908152603860205260409081902054905160e08b901b7fffffffff00000000000000000000000000000000000000000000000000000000168152600481019990995260248901979097526044880195909552606487019390935273ffffffffffffffffffffffffffffffffffffffff9182166084870152151560a486015261ffff90911660c48501521660e483015260ff16610104820152610124015b60006040518083038186803b158015611bbb57600080fd5b505af4158015611bcf573d6000803e3d6000fd5b505050505050565b73ffffffffffffffffffffffffffffffffffffffff8281166000818152603560209081526040918290208251608081018452898616815291820188815282840194855261ffff8781166060850190815294517f1913f16100000000000000000000000000000000000000000000000000000000815260346004820152603660248201526044810193909352925186166064830152516084820152925190931660a48301525190911660c4820152737eA715f0AA2B03b5C4C19Fb40c5fD982916c2e4990631913f1619060e4015b60006040518083038186803b158015611cbc57600080fd5b505af4158015611cd0573d6000803e3d6000fd5b5050505050505050565b611ce2613ac6565b6040517f9cf57023000000000000000000000000000000000000000000000000000000008152603460048201526036602482015273ffffffffffffffffffffffffffffffffffffffff82166044820152738F70C139ae3CB24C41F8B87484AcF6106A4727e290639cf57023906064016111b7565b6000737eA715f0AA2B03b5C4C19Fb40c5fD982916c2e4963186dea44603460366037603560003373ffffffffffffffffffffffffffffffffffffffff1673ffffffffffffffffffffffffffffffffffffffff1681526020019081526020016000206040518060c001604052808b73ffffffffffffffffffffffffffffffffffffffff1681526020018a81526020018973ffffffffffffffffffffffffffffffffffffffff168152602001603b60089054906101000a900461ffff1661ffff1681526020017f000000000000000000000000000000000000000000000000000000000000000073ffffffffffffffffffffffffffffffffffffffff1663fca513a86040518163ffffffff1660e01b8152600401602060405180830381865afa158015611e85573d6000803e3d6000fd5b505050506040513d601f19601f82011682018060405250810190611ea99190614f16565b73ffffffffffffffffffffffffffffffffffffffff9081168252336000908152603860209081526040918290205460ff90811694820194909452815160e08b901b7fffffffff0000000000000000000000000000000000000000000000000000000016815260048101999099526024890197909752604488019590955260648701939093528151831660848701529381015160a486015291820151811660c4850152606082015160e485015260808201511661010484015260a0015116610124820152610144016116a3565b611f7d613e11565b73ffffffffffffffffffffffffffffffffffffffff8281166000818152603560205260409081902090517f0413c86f0000000000000000000000000000000000000000000000000000000081526034600482015260366024820152604481019190915291861660648301526084820185905260a482015261ffff821660c4820152733db22277D2cD56ddF612B286A8461860a4cf2c5590630413c86f9060e401611ca4565b6040805160a081018252600080825260208201819052918101829052606080820192909252608081019190915260ff8216600090815260376020908152604091829020825160a081018452815461ffff8082168352620100008204811694830194909452640100000000810490931693810193909352660100000000000090910473ffffffffffffffffffffffffffffffffffffffff1660608301526001810180546080840191906120d39061523f565b80601f01602080910402602001604051908101604052809291908181526020018280546120ff9061523f565b801561214c5780601f106121215761010080835404028352916020019161214c565b820191906000526020600020905b81548152906001019060200180831161212f57829003601f168201915b5050505050815250509050919050565b612164613ac6565b738F70C139ae3CB24C41F8B87484AcF6106A4727e26369fc1bdf603460366040518060e001604052808a73ffffffffffffffffffffffffffffffffffffffff1681526020018973ffffffffffffffffffffffffffffffffffffffff1681526020018873ffffffffffffffffffffffffffffffffffffffff1681526020018773ffffffffffffffffffffffffffffffffffffffff1681526020018673ffffffffffffffffffffffffffffffffffffffff168152602001603b60089054906101000a900461ffff1661ffff16815260200161223b608090565b61ffff168152506040518463ffffffff1660e01b81526004016122609392919061528d565b602060405180830381865af415801561227d573d6000803e3d6000fd5b505050506040513d601f19601f820116820180604052508101906122a1919061531d565b156111e357603b805468010000000000000000900461ffff169060086122c68361533a565b91906101000a81548161ffff021916908361ffff160217905550505050505050565b73ffffffffffffffffffffffffffffffffffffffff821660009081526034602090815260408083203384526035909252909120735D52c32Ab79f1eB749324f64cF08A94d224e1C7F9163eac4d703918585600281111561234a5761234a6150d7565b6040518563ffffffff1660e01b8152600401611ba3949392919061535c565b6040517f48c2ca8c000000000000000000000000000000000000000000000000000000008152738F70C139ae3CB24C41F8B87484AcF6106A4727e2906348c2ca8c90611ba39060349086908690600401615393565b735D52c32Ab79f1eB749324f64cF08A94d224e1C7F631e6473f9603460366037603560008773ffffffffffffffffffffffffffffffffffffffff1673ffffffffffffffffffffffffffffffffffffffff1681526020019081526020016000206040518061018001604052808c73ffffffffffffffffffffffffffffffffffffffff1681526020013373ffffffffffffffffffffffffffffffffffffffff1681526020018873ffffffffffffffffffffffffffffffffffffffff1681526020018b81526020018a6002811115612495576124956150d7565b60028111156124a6576124a66150d7565b815261ffff808b166020808401919091526001604080850191909152603b5467ffffffffffffffff81166060860152680100000000000000009004909216608084015281517ffca513a8000000000000000000000000000000000000000000000000000000008152915160a09093019273ffffffffffffffffffffffffffffffffffffffff7f0000000000000000000000000000000000000000000000000000000000000000169263fca513a89260048083019391928290030181865afa158015612575573d6000803e3d6000fd5b505050506040513d601f19601f820116820180604052508101906125999190614f16565b73ffffffffffffffffffffffffffffffffffffffff90811682528981166000908152603860209081526040918290205460ff168185015281517f5eb88d3d000000000000000000000000000000000000000000000000000000008152825192909401937f000000000000000000000000000000000000000000000000000000000000000090931692635eb88d3d92600480830193928290030181865afa158015612647573d6000803e3d6000fd5b505050506040513d601f19601f8201168201806040525081019061266b9190614f16565b73ffffffffffffffffffffffffffffffffffffffff168152506040518663ffffffff1660e01b8152600401610c369594939291906153f8565b6000604051806101c001604052808d73ffffffffffffffffffffffffffffffffffffffff1681526020018c8c808060200260200160405190810160405280939291908181526020018383602002808284376000920191909152505050908252506040805160208c810282810182019093528c82529283019290918d918d9182918501908490808284376000920191909152505050908252506040805160208a810282810182019093528a82529283019290918b918b91829185019084908082843760009201919091525050509082525073ffffffffffffffffffffffffffffffffffffffff871660208083019190915260408051601f88018390048302810183018252878152920191908790879081908401838280828437600092018290525093855250505061ffff808616602080850191909152603a546fffffffffffffffffffffffffffffffff7001000000000000000000000000000000008204811660408088019190915291166060860152603b5467ffffffffffffffff8116608087015268010000000000000000900490921660a085015273ffffffffffffffffffffffffffffffffffffffff7f0000000000000000000000000000000000000000000000000000000000000000811660c08601819052908b16845260388252928290205460ff1660e085015281517f707cd71600000000000000000000000000000000000000000000000000000000815291516101009094019363707cd7169260048082019392918290030181865afa1580156128e4573d6000803e3d6000fd5b505050506040513d601f19601f820116820180604052508101906129089190614f16565b6040517ffa50f29700000000000000000000000000000000000000000000000000000000815233600482015273ffffffffffffffffffffffffffffffffffffffff919091169063fa50f29790602401602060405180830381865afa158015612974573d6000803e3d6000fd5b505050506040513d601f19601f82011682018060405250810190612998919061531d565b1515905273ffffffffffffffffffffffffffffffffffffffff86166000908152603560205260409081902090517f2e7263ea000000000000000000000000000000000000000000000000000000008152919250736e8dB4157ead55C3eE03776DBe22e5B9d97B61cC91632e7263ea91612a1f916034916036916037919088906004016155a1565b60006040518083038186803b158015612a3757600080fd5b505af4158015612a4b573d6000803e3d6000fd5b50505050505050505050505050505050565b612a65613ac6565b6fffffffffffffffffffffffffffffffff90811670010000000000000000000000000000000002911617603a55565b6040805173ffffffffffffffffffffffffffffffffffffffff83811660008181526035602090815285822060c0860187525460a086019081528552603b5468010000000000000000900461ffff16818601528486019290925284517ffca513a80000000000000000000000000000000000000000000000000000000081529451909485948594859485948594738F70C139ae3CB24C41F8B87484AcF6106A4727e2946326ec273f9460349460369460379460608501937f0000000000000000000000000000000000000000000000000000000000000000169263fca513a8926004808401938290030181865afa158015612b92573d6000803e3d6000fd5b505050506040513d601f19601f82011682018060405250810190612bb69190614f16565b73ffffffffffffffffffffffffffffffffffffffff90811682528e81166000908152603860209081526040918290205460ff90811694820194909452815160e08a901b7fffffffff00000000000000000000000000000000000000000000000000000000168152600481019890985260248801969096526044870194909452825151606487015293820151608486015291810151831660a4850152606081015190921660c48401526080909101511660e48201526101040160c060405180830381865af4158015612c8b573d6000803e3d6000fd5b505050506040513d601f19601f82011682018060405250810190612caf9190615747565b949c939b5091995097509550909350915050565b6001805460ff1680612cd45750303b155b80612ce0575060005481115b612d6c576040517f08c379a000000000000000000000000000000000000000000000000000000000815260206004820152602e60248201527f436f6e747261637420696e7374616e63652068617320616c726561647920626560448201527f656e20696e697469616c697a65640000000000000000000000000000000000006064820152608401610ea7565b60015460ff16158015612da957600180547fffffffffffffffffffffffffffffffffffffffffffffffffffffffffffffff00168117905560008290555b7f000000000000000000000000000000000000000000000000000000000000000073ffffffffffffffffffffffffffffffffffffffff168373ffffffffffffffffffffffffffffffffffffffff16146040518060400160405280600281526020017f313200000000000000000000000000000000000000000000000000000000000081525090612e66576040517f08c379a0000000000000000000000000000000000000000000000000000000008152600401610ea79190615014565b50603b80547fffffffffffffffffffffffffffffffffffffffffffffffff0000000000000000166109c41790557f000000000000000000000000000000000000000000000000000000000000000073ffffffffffffffffffffffffffffffffffffffff1615612f50577f000000000000000000000000000000000000000000000000000000000000000073ffffffffffffffffffffffffffffffffffffffff16634e606c476040518163ffffffff1660e01b8152600401600060405180830381600087803b158015612f3757600080fd5b505af1158015612f4b573d6000803e3d6000fd5b505050505b8015612f7f57600180547fffffffffffffffffffffffffffffffffffffffffffffffffffffffffffffff001690555b505050565b73ffffffffffffffffffffffffffffffffffffffff8281166000818152603460205260409081902090517f6973f744000000000000000000000000000000000000000000000000000000008152600481019190915260248101919091529082166044820152735D52c32Ab79f1eB749324f64cF08A94d224e1C7F90636973f74490606401611ba3565b613015613bf4565b6040517f87b322b200000000000000000000000000000000000000000000000000000000815273ffffffffffffffffffffffffffffffffffffffff80851660048301528316602482015260448101829052738F70C139ae3CB24C41F8B87484AcF6106A4727e2906387b322b29060640160006040518083038186803b15801561309d57600080fd5b505af41580156130b1573d6000803e3d6000fd5b50505050505050565b73ffffffffffffffffffffffffffffffffffffffff8116600090815260346020526040812061172990613f9e565b603b5460609068010000000000000000900461ffff166000808267ffffffffffffffff81111561311a5761311a614c2d565b604051908082528060200260200182016040528015613143578160200160208202803683370190505b50905060005b8381101561321a5760008181526036602052604090205473ffffffffffffffffffffffffffffffffffffffff16156131fa5760008181526036602052604090205473ffffffffffffffffffffffffffffffffffffffff16826131ab8584615791565b815181106131bb576131bb615040565b602002602001019073ffffffffffffffffffffffffffffffffffffffff16908173ffffffffffffffffffffffffffffffffffffffff1681525050613208565b826132048161509e565b9350505b806132128161509e565b915050613149565b5091038152919050565b61322c613ac6565b60408051808201909152600281527f3136000000000000000000000000000000000000000000000000000000000000602082015260ff831661329b576040517f08c379a0000000000000000000000000000000000000000000000000000000008152600401610ea79190615014565b5060ff8216600090815260376020908152604091829020835181548386015194860151606087015173ffffffffffffffffffffffffffffffffffffffff166601000000000000027fffffffffffff0000000000000000000000000000000000000000ffffffffffff61ffff92831664010000000002167fffffffffffff00000000000000000000000000000000000000000000ffffffff97831662010000027fffffffffffffffffffffffffffffffffffffffffffffffffffffffff000000009094169290941691909117919091179490941617929092178255608083015180518493926111e3926001850192910190614212565b73ffffffffffffffffffffffffffffffffffffffff868116600090815260346020908152604091829020600401548251808401909352600283527f313100000000000000000000000000000000000000000000000000000000000091830191909152909116331461342e576040517f08c379a0000000000000000000000000000000000000000000000000000000008152600401610ea79190615014565b50737eA715f0AA2B03b5C4C19Fb40c5fD982916c2e49638a5dadd160346036603760356040518061012001604052808d73ffffffffffffffffffffffffffffffffffffffff1681526020018c73ffffffffffffffffffffffffffffffffffffffff1681526020018b73ffffffffffffffffffffffffffffffffffffffff1681526020018a8152602001898152602001888152602001603b60089054906101000a900461ffff1661ffff1681526020017f000000000000000000000000000000000000000000000000000000000000000073ffffffffffffffffffffffffffffffffffffffff1663fca513a86040518163ffffffff1660e01b8152600401602060405180830381865afa158015613548573d6000803e3d6000fd5b505050506040513d601f19601f8201168201806040525081019061356c9190614f16565b73ffffffffffffffffffffffffffffffffffffffff90811682528d166000908152603860209081526040918290205460ff16920191909152517fffffffff0000000000000000000000000000000000000000000000000000000060e088901b1681526135df9594939291906004016157a8565b60006040518083038186803b1580156135f757600080fd5b505af415801561360b573d6000803e3d6000fd5b50505050505050505050565b6000613621613e11565b73ffffffffffffffffffffffffffffffffffffffff84166000818152603460205260409081902060395491517f8e7432480000000000000000000000000000000000000000000000000000000081526004810191909152602481019290925260448201859052606482018490526084820152733db22277D2cD56ddF612B286A8461860a4cf2c5590638e7432489060a4016116a3565b6136bf613ac6565b6040517f1e3b41450000000000000000000000000000000000000000000000000000000081526034600482015273ffffffffffffffffffffffffffffffffffffffff82166024820152738F70C139ae3CB24C41F8B87484AcF6106A4727e290631e3b4145906044016111b7565b6040517fd505accf000000000000000000000000000000000000000000000000000000008152336004820152306024820152604481018890526064810185905260ff8416608482015260a4810183905260c4810182905260009073ffffffffffffffffffffffffffffffffffffffff8a169063d505accf9060e401600060405180830381600087803b1580156137c157600080fd5b505af11580156137d5573d6000803e3d6000fd5b5050505060006040518060a001604052808b73ffffffffffffffffffffffffffffffffffffffff1681526020018a815260200189600281111561381a5761381a6150d7565b600281111561382b5761382b6150d7565b815273ffffffffffffffffffffffffffffffffffffffff89166020808301829052600060409384018190529182526035905281902090517f40e95de6000000000000000000000000000000000000000000000000000000008152919250735D52c32Ab79f1eB749324f64cF08A94d224e1C7F916340e95de6916138b8916034916036918790600401615141565b602060405180830381865af41580156138d5573d6000803e3d6000fd5b505050506040513d601f19601f820116820180604052508101906138f99190615027565b9a9950505050505050505050565b61390f613ac6565b60408051808201909152600281527f3737000000000000000000000000000000000000000000000000000000000000602082015273ffffffffffffffffffffffffffffffffffffffff8316613991576040517f08c379a0000000000000000000000000000000000000000000000000000000008152600401610ea79190615014565b5073ffffffffffffffffffffffffffffffffffffffff82166000908152603460205260409020600301547501000000000000000000000000000000000000000000900461ffff16151580613a2757506000805260366020527f4cb2b152c1b54ce671907a93c300fd5aa72383a9d4ec19a81e3333632ae92e005473ffffffffffffffffffffffffffffffffffffffff8381169116145b6040518060400160405280600281526020017f383200000000000000000000000000000000000000000000000000000000000081525090613a95576040517f08c379a0000000000000000000000000000000000000000000000000000000008152600401610ea79190615014565b5073ffffffffffffffffffffffffffffffffffffffff821660009081526034602052604090208135815581906115a4565b3373ffffffffffffffffffffffffffffffffffffffff167f000000000000000000000000000000000000000000000000000000000000000073ffffffffffffffffffffffffffffffffffffffff1663631adfca6040518163ffffffff1660e01b8152600401602060405180830381865afa158015613b48573d6000803e3d6000fd5b505050506040513d601f19601f82011682018060405250810190613b6c9190614f16565b73ffffffffffffffffffffffffffffffffffffffff16146040518060400160405280600281526020017f313000000000000000000000000000000000000000000000000000000000000081525090613bf1576040517f08c379a0000000000000000000000000000000000000000000000000000000008152600401610ea79190615014565b50565b7f000000000000000000000000000000000000000000000000000000000000000073ffffffffffffffffffffffffffffffffffffffff1663707cd7166040518163ffffffff1660e01b8152600401602060405180830381865afa158015613c5f573d6000803e3d6000fd5b505050506040513d601f19601f82011682018060405250810190613c839190614f16565b6040517f7be53ca100000000000000000000000000000000000000000000000000000000815233600482015273ffffffffffffffffffffffffffffffffffffffff9190911690637be53ca190602401602060405180830381865afa158015613cef573d6000803e3d6000fd5b505050506040513d601f19601f82011682018060405250810190613d13919061531d565b6040518060400160405280600181526020017f310000000000000000000000000000000000000000000000000000000000000081525090613bf1576040517f08c379a0000000000000000000000000000000000000000000000000000000008152600401610ea79190615014565b6003810154600090700100000000000000000000000000000000900464ffffffffff1642811415613dc7575050600201546fffffffffffffffffffffffffffffffff1690565b60028301546116e7906fffffffffffffffffffffffffffffffff80821691613e05917001000000000000000000000000000000009091041684614022565b9061402f565b50919050565b7f000000000000000000000000000000000000000000000000000000000000000073ffffffffffffffffffffffffffffffffffffffff1663707cd7166040518163ffffffff1660e01b8152600401602060405180830381865afa158015613e7c573d6000803e3d6000fd5b505050506040513d601f19601f82011682018060405250810190613ea09190614f16565b6040517f726600ce00000000000000000000000000000000000000000000000000000000815233600482015273ffffffffffffffffffffffffffffffffffffffff919091169063726600ce90602401602060405180830381865afa158015613f0c573d6000803e3d6000fd5b505050506040513d601f19601f82011682018060405250810190613f30919061531d565b6040518060400160405280600181526020017f360000000000000000000000000000000000000000000000000000000000000081525090613bf1576040517f08c379a0000000000000000000000000000000000000000000000000000000008152600401610ea79190615014565b6003810154600090700100000000000000000000000000000000900464ffffffffff1642811415613fe4575050600101546fffffffffffffffffffffffffffffffff1690565b60018301546116e7906fffffffffffffffffffffffffffffffff80821691613e05917001000000000000000000000000000000009091041684614086565b60006116e78383426140cb565b600081157ffffffffffffffffffffffffffffffffffffffffffe6268e1b017bfe18bffffff8390048411151761406457600080fd5b506b033b2e3c9fd0803ce800000091026b019d971e4fe8401e74000000010490565b60008061409a64ffffffffff841642615791565b6140a49085615884565b6301e13380900490506140c3816b033b2e3c9fd0803ce80000006158f0565b949350505050565b6000806140df64ffffffffff851684615791565b9050806140fb576b033b2e3c9fd0803ce80000009150506116e7565b7fffffffffffffffffffffffffffffffffffffffffffffffffffffffffffffffff81016000808060028511614131576000614136565b600285035b925066038882915c400061414a8a8061402f565b81614157576141576158c1565b0491506301e13380614169838b61402f565b81614176576141766158c1565b0490506000826141868688615884565b6141909190615884565b600290049050600082856141a4888a615884565b6141ae9190615884565b6141b89190615884565b60069004905080826301e133806141cf8a8f615884565b6141d99190615908565b6141ef906b033b2e3c9fd0803ce80000006158f0565b6141f991906158f0565b61420391906158f0565b9b9a5050505050505050505050565b82805461421e9061523f565b90600052602060002090601f0160209004810192826142405760008555614286565b82601f1061425957805160ff1916838001178555614286565b82800160010185558215614286579182015b8281111561428657825182559160200191906001019061426b565b50614292929150614296565b5090565b5b808211156142925760008155600101614297565b73ffffffffffffffffffffffffffffffffffffffff81168114613bf157600080fd5b80356142d8816142ab565b919050565b8015158114613bf157600080fd5b600080600080600060a0868803121561430357600080fd5b853561430e816142ab565b9450602086013561431e816142ab565b9350604086013561432e816142ab565b9250606086013591506080860135614345816142dd565b809150509295509295909350565b803561ffff811681146142d857600080fd5b803560ff811681146142d857600080fd5b600080600080600080600080610100898b03121561439357600080fd5b883561439e816142ab565b97506020890135965060408901356143b5816142ab565b95506143c360608a01614353565b9450608089013593506143d860a08a01614365565b925060c0890135915060e089013590509295985092959890939650565b6000806040838503121561440857600080fd5b8235614413816142ab565b91506020830135614423816142ab565b809150509250929050565b60006020828403121561444057600080fd5b6116e782614365565b60006020828403121561445b57600080fd5b81356116e7816142ab565b60008060006060848603121561447b57600080fd5b8335614486816142ab565b95602085013595506040909401359392505050565b6000602082840312156144ad57600080fd5b5035919050565b81515181526101e0810160208301516144e160208401826fffffffffffffffffffffffffffffffff169052565b50604083015161450560408401826fffffffffffffffffffffffffffffffff169052565b50606083015161452960608401826fffffffffffffffffffffffffffffffff169052565b50608083015161454d60808401826fffffffffffffffffffffffffffffffff169052565b5060a083015161457160a08401826fffffffffffffffffffffffffffffffff169052565b5060c083015161458a60c084018264ffffffffff169052565b5060e08301516145a060e084018261ffff169052565b506101008381015173ffffffffffffffffffffffffffffffffffffffff9081169184019190915261012080850151821690840152610140808501518216908401526101608085015190911690830152610180808401516fffffffffffffffffffffffffffffffff908116918401919091526101a0808501518216908401526101c09384015116929091019190915290565b60008083601f84011261464357600080fd5b50813567ffffffffffffffff81111561465b57600080fd5b60208301915083602082850101111561467357600080fd5b9250929050565b60008060008060008060a0878903121561469357600080fd5b863561469e816142ab565b955060208701356146ae816142ab565b945060408701359350606087013567ffffffffffffffff8111156146d157600080fd5b6146dd89828a01614631565b90945092506146f0905060808801614353565b90509295509295509295565b60006020828403121561470e57600080fd5b6116e782614353565b6000806000806080858703121561472d57600080fd5b8435614738816142ab565b935060208501359250604085013591506060850135614756816142ab565b939692955090935050565b6000806040838503121561477457600080fd5b823561477f816142ab565b91506020830135614423816142dd565b600080600080608085870312156147a557600080fd5b84356147b0816142ab565b93506020850135925060408501356147c7816142ab565b91506147d560608601614353565b905092959194509250565b6000806000606084860312156147f557600080fd5b8335614800816142ab565b9250602084013591506040840135614817816142ab565b809150509250925092565b6000815180845260005b818110156148485760208185018101518683018201520161482c565b8181111561485a576000602083870101525b50601f017fffffffffffffffffffffffffffffffffffffffffffffffffffffffffffffffe0169290920160200192915050565b60208152600061ffff8084511660208401528060208501511660408401528060408501511660608401525073ffffffffffffffffffffffffffffffffffffffff6060840151166080830152608083015160a0808401526140c360c0840182614822565b600080600080600060a0868803121561490857600080fd5b8535614913816142ab565b94506020860135614923816142ab565b93506040860135614933816142ab565b92506060860135614943816142ab565b91506080860135614345816142ab565b6000806040838503121561496657600080fd5b8235614971816142ab565b946020939093013593505050565b60008083601f84011261499157600080fd5b50813567ffffffffffffffff8111156149a957600080fd5b6020830191508360208260051b850101111561467357600080fd5b600080602083850312156149d757600080fd5b823567ffffffffffffffff8111156149ee57600080fd5b6149fa8582860161497f565b90969095509350505050565b600080600080600060a08688031215614a1e57600080fd5b8535614a29816142ab565b9450602086013593506040860135925061494360608701614353565b600080600080600080600080600080600060e08c8e031215614a6657600080fd5b614a6f8c6142cd565b9a5067ffffffffffffffff8060208e01351115614a8b57600080fd5b614a9b8e60208f01358f0161497f565b909b50995060408d0135811015614ab157600080fd5b614ac18e60408f01358f0161497f565b909950975060608d0135811015614ad757600080fd5b614ae78e60608f01358f0161497f565b9097509550614af860808e016142cd565b94508060a08e01351115614b0b57600080fd5b50614b1c8d60a08e01358e01614631565b9093509150614b2d60c08d01614353565b90509295989b509295989b9093969950565b80356fffffffffffffffffffffffffffffffff811681146142d857600080fd5b60008060408385031215614b7257600080fd5b614b7b83614b3f565b9150614b8960208401614b3f565b90509250929050565b600080600060608486031215614ba757600080fd5b8335614bb2816142ab565b92506020840135614bc2816142ab565b929592945050506040919091013590565b6020808252825182820181905260009190848201906040850190845b81811015614c2157835173ffffffffffffffffffffffffffffffffffffffff1683529284019291840191600101614bef565b50909695505050505050565b7f4e487b7100000000000000000000000000000000000000000000000000000000600052604160045260246000fd5b60405160a0810167ffffffffffffffff81118282101715614c7f57614c7f614c2d565b60405290565b604051601f82017fffffffffffffffffffffffffffffffffffffffffffffffffffffffffffffffe016810167ffffffffffffffff81118282101715614ccc57614ccc614c2d565b604052919050565b60008060408385031215614ce757600080fd5b614cf083614365565b915060208084013567ffffffffffffffff80821115614d0e57600080fd5b9085019060a08288031215614d2257600080fd5b614d2a614c5c565b614d3383614353565b8152614d40848401614353565b84820152614d5060408401614353565b60408201526060830135614d63816142ab565b6060820152608083013582811115614d7a57600080fd5b80840193505087601f840112614d8f57600080fd5b823582811115614da157614da1614c2d565b614dd1857fffffffffffffffffffffffffffffffffffffffffffffffffffffffffffffffe0601f84011601614c85565b92508083528885828601011115614de757600080fd5b8085850186850137600085828501015250816080820152809450505050509250929050565b60008060008060008060c08789031215614e2557600080fd5b8635614e30816142ab565b95506020870135614e40816142ab565b94506040870135614e50816142ab565b959894975094956060810135955060808101359460a0909101359350915050565b600080600080600080600080610100898b031215614e8e57600080fd5b8835614e99816142ab565b9750602089013596506040890135955060608901356143c3816142ab565b6000808284036040811215614ecb57600080fd5b8335614ed6816142ab565b925060207fffffffffffffffffffffffffffffffffffffffffffffffffffffffffffffffe082011215614f0857600080fd5b506020830190509250929050565b600060208284031215614f2857600080fd5b81516116e7816142ab565b60006101a08201905086825285602083015284604083015283606083015282516080830152602083015160a0830152604083015173ffffffffffffffffffffffffffffffffffffffff80821660c08501528060608601511660e085015250506080830151610100614fbb8185018373ffffffffffffffffffffffffffffffffffffffff169052565b60a0850151151561012085015260c085015173ffffffffffffffffffffffffffffffffffffffff90811661014086015260e086015160ff166101608601529085015190811661018085015290505b509695505050505050565b6020815260006116e76020830184614822565b60006020828403121561503957600080fd5b5051919050565b7f4e487b7100000000000000000000000000000000000000000000000000000000600052603260045260246000fd5b7f4e487b7100000000000000000000000000000000000000000000000000000000600052601160045260246000fd5b60007fffffffffffffffffffffffffffffffffffffffffffffffffffffffffffffffff8214156150d0576150d061506f565b5060010190565b7f4e487b7100000000000000000000000000000000000000000000000000000000600052602160045260246000fd5b6003811061513d577f4e487b7100000000000000000000000000000000000000000000000000000000600052602160045260246000fd5b9052565b60006101008201905085825284602083015283604083015273ffffffffffffffffffffffffffffffffffffffff80845116606084015260208401516080840152604084015161519360a0850182615106565b5060608401511660c0830152608090920151151560e0909101529392505050565b82815260406020820152600073ffffffffffffffffffffffffffffffffffffffff8084511660408401528060208501511660608401525060408301516080830152606083015160e060a084015261520f610120840182614822565b905061ffff60808501511660c084015260a084015160e084015260c0840151610100840152809150509392505050565b600181811c9082168061525357607f821691505b60208210811415613e0b577f4e487b7100000000000000000000000000000000000000000000000000000000600052602260045260246000fd5b60006101208201905084825283602083015273ffffffffffffffffffffffffffffffffffffffff8084511660408401528060208501511660608401528060408501511660808401528060608501511660a08401528060808501511660c08401525060a083015161530360e084018261ffff169052565b5060c083015161ffff811661010084015250949350505050565b60006020828403121561532f57600080fd5b81516116e7816142dd565b600061ffff808316818114156153525761535261506f565b6001019392505050565b8481526020810184905273ffffffffffffffffffffffffffffffffffffffff83166040820152608081016119f96060830184615106565b83815260406020808301829052908201839052600090849060608401835b868110156153ec5783356153c4816142ab565b73ffffffffffffffffffffffffffffffffffffffff16825292820192908201906001016153b1565b50979650505050505050565b858152602081018590526040810184905260608101839052815173ffffffffffffffffffffffffffffffffffffffff1660808201526102008101602083015173ffffffffffffffffffffffffffffffffffffffff811660a084015250604083015173ffffffffffffffffffffffffffffffffffffffff811660c084015250606083015160e0830152608083015161010061549481850183615106565b60a085015191506101206154ad8186018461ffff169052565b60c086015192506101406154c48187018515159052565b60e087015161016087810191909152928701516101808701529086015173ffffffffffffffffffffffffffffffffffffffff9081166101a08701529086015160ff166101c0860152908501519081166101e08501529050615009565b600081518084526020808501945080840160005b8381101561556657815173ffffffffffffffffffffffffffffffffffffffff1687529582019590820190600101615534565b509495945050505050565b600081518084526020808501945080840160005b8381101561556657815187529582019590820190600101615585565b85815284602082015283604082015282606082015260a060808201526155e060a08201835173ffffffffffffffffffffffffffffffffffffffff169052565b600060208301516101c08060c08501526155fe610260850183615520565b915060408501517fffffffffffffffffffffffffffffffffffffffffffffffffffffffffffffff60808685030160e087015261563a8483615571565b9350606087015191506101008187860301818801526156598584615571565b9450608088015192506101206156868189018573ffffffffffffffffffffffffffffffffffffffff169052565b60a089015193506101408389880301818a01526156a38786614822565b965060c08a0151945061016093506156c0848a018661ffff169052565b60e08a0151945061018085818b0152838b015195506101a0935085848b0152828b0151878b0152818b01516101e08b0152848b0151965061571a6102008b018873ffffffffffffffffffffffffffffffffffffffff169052565b8a015160ff81166102208b01529550615731915050565b87015180151561024088015292506153ec915050565b60008060008060008060c0878903121561576057600080fd5b865195506020870151945060408701519350606087015192506080870151915060a087015190509295509295509295565b6000828210156157a3576157a361506f565b500390565b60006101a08201905086825285602083015284604083015283606083015273ffffffffffffffffffffffffffffffffffffffff8084511660808401528060208501511660a084015250604083015161581860c084018273ffffffffffffffffffffffffffffffffffffffff169052565b50606083015160e08301526080830151610100818185015260a085015161012085015260c085015161014085015260e0850151915061587061016085018373ffffffffffffffffffffffffffffffffffffffff169052565b84015160ff81166101808501529050615009565b6000817fffffffffffffffffffffffffffffffffffffffffffffffffffffffffffffffff04831182151516156158bc576158bc61506f565b500290565b7f4e487b7100000000000000000000000000000000000000000000000000000000600052601260045260246000fd5b600082198211156159035761590361506f565b500190565b60008261593e577f4e487b7100000000000000000000000000000000000000000000000000000000600052601260045260246000fd5b50049056fea2646970667358221220e5f161cad7c5e5ce16913b36ad62aaabfd51e25517d8b56fd9c7891f606ce1f164736f6c634300080a0033",
  "deployedBytecode": "0x608060405234801561001057600080fd5b506004361061031f5760003560e01c80637a708e92116101a7578063d15e0053116100ee578063e82fec2f11610097578063ee3e210b11610071578063ee3e210b146109bd578063f51e435b146109d0578063f8119d51146109e357600080fd5b8063e82fec2f14610972578063e8eda9df14610703578063eddf1b791461098457600080fd5b8063d5ed3933116100c8578063d5ed393314610939578063d65dc7a11461094c578063e43e88a11461095f57600080fd5b8063d15e0053146108fe578063d1946dbc14610911578063d579ea7d1461092657600080fd5b8063bcb6e52211610150578063c4d66de81161012a578063c4d66de8146108c5578063cd112382146108d8578063cea9d26f146108eb57600080fd5b8063bcb6e52214610823578063bf92857c14610836578063c44b11f71461087657600080fd5b80639cd19996116101815780639cd19996146107ea578063a415bcad146107fd578063ab9c4b5d1461081057600080fd5b80637a708e921461079d57806394ba89a2146107b057806397d75776146107c357600080fd5b8063386497fd1161026b578063617ba0371161021457806369a933a5116101ee57806369a933a51461073c5780636a99c0361461074f5780636c6f6ae11461077d57600080fd5b8063617ba0371461070357806363c9b8601461071657806369328dec1461072957600080fd5b8063527517971161024557806352751797146106a3578063573ade81146106dd5780635a3b74b9146106f057600080fd5b8063386497fd1461061f57806342b0b77c146106325780634417a5831461064557600080fd5b8063272d9072116102cd5780632dad97d4116102a75780632dad97d41461042b5780633036b4391461043e57806335ea6a751461045157600080fd5b8063272d9072146103fd57806328530a47146104055780632cca1cdf1461041857600080fd5b80630542975c116102fe5780630542975c14610367578063074b2e43146103b35780631d2118f9146103ea57600080fd5b8062a718a9146103245780630148170e1461033957806302c205f014610354575b600080fd5b6103376103323660046142eb565b6109f2565b005b610341600181565b6040519081526020015b60405180910390f35b610337610362366004614376565b610c6d565b61038e7f000000000000000000000000000000000000000000000000000000000000000081565b60405173ffffffffffffffffffffffffffffffffffffffff909116815260200161034b565b603a546fffffffffffffffffffffffffffffffff165b6040516fffffffffffffffffffffffffffffffff909116815260200161034b565b6103376103f83660046143f5565b610e1d565b603954610341565b61033761041336600461442e565b61100b565b610337610426366004614449565b6111ea565b610341610439366004614466565b6115aa565b61033761044c36600461449b565b6116ee565b61061261045f366004614449565b604080516102008101825260006101e08201818152825260208201819052918101829052606081018290526080810182905260a0810182905260c0810182905260e08101829052610100810182905261012081018290526101408101829052610160810182905261018081018290526101a081018290526101c08101919091525073ffffffffffffffffffffffffffffffffffffffff90811660009081526034602090815260409182902082516102008101845281546101e08201908152815260018201546fffffffffffffffffffffffffffffffff80821694830194909452700100000000000000000000000000000000908190048416948201949094526002820154808416606083015284900483166080820152600382015480841660a083015284810464ffffffffff1660c08301527501000000000000000000000000000000000000000000900461ffff1660e0820152600482015485166101008201526005820154851661012082015260068201548516610140820152600782015490941661016085015260088101548083166101808601529290920481166101a0840152600990910154166101c082015290565b60405161034b91906144b4565b61034161062d366004614449565b6116fb565b61033761064036600461467a565b61172f565b610694610653366004614449565b604080516020808201835260009182905273ffffffffffffffffffffffffffffffffffffffff93909316815260358352819020815192830190915254815290565b6040519051815260200161034b565b61038e6106b13660046146fc565b61ffff1660009081526036602052604090205473ffffffffffffffffffffffffffffffffffffffff1690565b6103416106eb366004614717565b6118a9565b6103376106fe366004614761565b611a02565b61033761071136600461478f565b611bd7565b610337610724366004614449565b611cda565b6103416107373660046147e0565b611d56565b61033761074a36600461478f565b611f75565b603a5470010000000000000000000000000000000090046fffffffffffffffffffffffffffffffff166103c9565b61079061078b36600461442e565b612022565b60405161034b919061488d565b6103376107ab3660046148f0565b61215c565b6103376107be366004614953565b6122e8565b61038e7f000000000000000000000000000000000000000000000000000000000000000081565b6103376107f83660046149c4565b612369565b61033761080b366004614a06565b6123be565b61033761081e366004614a45565b6126a4565b610337610831366004614b5f565b612a5d565b610849610844366004614449565b612a94565b604080519687526020870195909552938501929092526060840152608083015260a082015260c00161034b565b610694610884366004614449565b604080516020808201835260009182905273ffffffffffffffffffffffffffffffffffffffff93909316815260348352819020815192830190915254815290565b6103376108d3366004614449565b612cc3565b6103376108e63660046143f5565b612f84565b6103376108f9366004614b92565b61300d565b61034161090c366004614449565b6130ba565b6109196130e8565b60405161034b9190614bd3565b610337610934366004614cd4565b613224565b610337610947366004614e0c565b613390565b61034161095a366004614466565b613617565b61033761096d366004614449565b6136b7565b603b5467ffffffffffffffff16610341565b610341610992366004614449565b73ffffffffffffffffffffffffffffffffffffffff1660009081526038602052604090205460ff1690565b6103416109cb366004614e71565b61372c565b6103376109de366004614eb7565b613907565b6040516080815260200161034b565b73__$f9b20ef2a9c7867e9d061ca9169d9f956b$__6383c1087d6034603660356037604051806101200160405280603b60089054906101000a900461ffff1661ffff1681526020018981526020018c73ffffffffffffffffffffffffffffffffffffffff1681526020018b73ffffffffffffffffffffffffffffffffffffffff1681526020018a73ffffffffffffffffffffffffffffffffffffffff16815260200188151581526020017f000000000000000000000000000000000000000000000000000000000000000073ffffffffffffffffffffffffffffffffffffffff1663fca513a86040518163ffffffff1660e01b8152600401602060405180830381865afa158015610b07573d6000803e3d6000fd5b505050506040513d601f19601f82011682018060405250810190610b2b9190614f16565b73ffffffffffffffffffffffffffffffffffffffff90811682528b81166000908152603860209081526040918290205460ff168185015281517f5eb88d3d000000000000000000000000000000000000000000000000000000008152825192909401937f000000000000000000000000000000000000000000000000000000000000000090931692635eb88d3d92600480830193928290030181865afa158015610bd9573d6000803e3d6000fd5b505050506040513d601f19601f82011682018060405250810190610bfd9190614f16565b73ffffffffffffffffffffffffffffffffffffffff168152506040518663ffffffff1660e01b8152600401610c36959493929190614f33565b60006040518083038186803b158015610c4e57600080fd5b505af4158015610c62573d6000803e3d6000fd5b505050505050505050565b6040517fd505accf000000000000000000000000000000000000000000000000000000008152336004820152306024820152604481018890526064810185905260ff8416608482015260a4810183905260c4810182905273ffffffffffffffffffffffffffffffffffffffff89169063d505accf9060e401600060405180830381600087803b158015610cff57600080fd5b505af1158015610d13573d6000803e3d6000fd5b5050505073ffffffffffffffffffffffffffffffffffffffff86811660008181526035602090815260409182902082516080810184528d861681529182018c815282840194855261ffff8b81166060850190815294517f1913f16100000000000000000000000000000000000000000000000000000000815260346004820152603660248201526044810193909352925186166064830152516084820152925190931660a48301525190911660c482015273__$f5c72277be8ce017a49a057a0b23d5ab78$__90631913f1619060e40160006040518083038186803b158015610dfb57600080fd5b505af4158015610e0f573d6000803e3d6000fd5b505050505050505050505050565b610e25613ac6565b60408051808201909152600281527f3737000000000000000000000000000000000000000000000000000000000000602082015273ffffffffffffffffffffffffffffffffffffffff8316610eb0576040517f08c379a0000000000000000000000000000000000000000000000000000000008152600401610ea79190615014565b60405180910390fd5b5073ffffffffffffffffffffffffffffffffffffffff82166000908152603460205260409020600301547501000000000000000000000000000000000000000000900461ffff16151580610f4657506000805260366020527f4cb2b152c1b54ce671907a93c300fd5aa72383a9d4ec19a81e3333632ae92e005473ffffffffffffffffffffffffffffffffffffffff8381169116145b6040518060400160405280600281526020017f383200000000000000000000000000000000000000000000000000000000000081525090610fb4576040517f08c379a0000000000000000000000000000000000000000000000000000000008152600401610ea79190615014565b5073ffffffffffffffffffffffffffffffffffffffff918216600090815260346020526040902060070180547fffffffffffffffffffffffff00000000000000000000000000000000000000001691909216179055565b73__$d60342391ed0f26b3e461933172a4524b4$__635d5dc3136034603660376038603560003373ffffffffffffffffffffffffffffffffffffffff1673ffffffffffffffffffffffffffffffffffffffff1681526020019081526020016000206040518060600160405280603b60089054906101000a900461ffff1661ffff1681526020017f000000000000000000000000000000000000000000000000000000000000000073ffffffffffffffffffffffffffffffffffffffff1663fca513a86040518163ffffffff1660e01b8152600401602060405180830381865afa1580156110fc573d6000803e3d6000fd5b505050506040513d601f19601f820116820180604052508101906111209190614f16565b73ffffffffffffffffffffffffffffffffffffffff1681526020018960ff168152506040518763ffffffff1660e01b81526004016111b79695949392919095865260208087019590955260408087019490945260608601929092526080850152805160a08501529182015173ffffffffffffffffffffffffffffffffffffffff1660c0840152015160ff1660e08201526101000190565b60006040518083038186803b1580156111cf57600080fd5b505af41580156111e3573d6000803e3d6000fd5b5050505050565b6111f2613bf4565b6040517f662aa11d00000000000000000000000000000000000000000000000000000000815230600482015273ffffffffffffffffffffffffffffffffffffffff82811660248301527f0000000000000000000000000000000000000000000000000000000000000000169063662aa11d906044016020604051808303816000875af1158015611286573d6000803e3d6000fd5b505050506040513d601f19601f820116820180604052508101906112aa9190615027565b5060006112b56130e8565b805190915060005b818110156115a45760008382815181106112d9576112d9615040565b60209081029190910181015173ffffffffffffffffffffffffffffffffffffffff80821660009081526034845260409081902081516102008101835281546101e08201908152815260018201546fffffffffffffffffffffffffffffffff80821697830197909752700100000000000000000000000000000000908190048716828501526002830154808816606084015281900487166080830152600383015480881660a084015281810464ffffffffff1660c08401527501000000000000000000000000000000000000000000900461ffff1660e0830152600480840154861661010084018190526005850154871661012085015260068501548716610140850152600785015487166101608501526008850154808a166101808601529290920488166101a08401526009909301549096166101c082015291517f2cca1cdf000000000000000000000000000000000000000000000000000000008152928a1690830152919350909190632cca1cdf90602401600060405180830381600087803b15801561146757600080fd5b505af115801561147b573d6000803e3d6000fd5b5050506101208201516040517f2cca1cdf00000000000000000000000000000000000000000000000000000000815273ffffffffffffffffffffffffffffffffffffffff89811660048301529091169150632cca1cdf90602401600060405180830381600087803b1580156114ef57600080fd5b505af1158015611503573d6000803e3d6000fd5b5050506101408201516040517f2cca1cdf00000000000000000000000000000000000000000000000000000000815273ffffffffffffffffffffffffffffffffffffffff89811660048301529091169150632cca1cdf90602401600060405180830381600087803b15801561157757600080fd5b505af115801561158b573d6000803e3d6000fd5b505050505050808061159c9061509e565b9150506112bd565b50505050565b600073__$152c6c6bf2d6ea02d792b3c78237e4cc31$__6340e95de660346036603560003373ffffffffffffffffffffffffffffffffffffffff1673ffffffffffffffffffffffffffffffffffffffff1681526020019081526020016000206040518060a001604052808a73ffffffffffffffffffffffffffffffffffffffff168152602001898152602001886002811115611648576116486150d7565b6002811115611659576116596150d7565b81523360208201526001604091820152517fffffffff0000000000000000000000000000000000000000000000000000000060e087901b1681526116a39493929190600401615141565b602060405180830381865af41580156116c0573d6000803e3d6000fd5b505050506040513d601f19601f820116820180604052508101906116e49190615027565b90505b9392505050565b6116f6613ac6565b603955565b73ffffffffffffffffffffffffffffffffffffffff8116600090815260346020526040812061172990613d81565b92915050565b60006040518060e001604052808873ffffffffffffffffffffffffffffffffffffffff1681526020018773ffffffffffffffffffffffffffffffffffffffff16815260200186815260200185858080601f016020809104026020016040519081016040528093929190818152602001838380828437600092018290525093855250505061ffff8516602080840191909152603a546fffffffffffffffffffffffffffffffff70010000000000000000000000000000000082048116604080870191909152911660609094019390935273ffffffffffffffffffffffffffffffffffffffff8a1682526034905281902090517fa1fe0e8d00000000000000000000000000000000000000000000000000000000815291925073__$694c15fe79c90b6cb9332b59bdfe50f85b$__9163a1fe0e8d916118709185906004016151b4565b60006040518083038186803b15801561188857600080fd5b505af415801561189c573d6000803e3d6000fd5b5050505050505050505050565b600073__$152c6c6bf2d6ea02d792b3c78237e4cc31$__6340e95de660346036603560008773ffffffffffffffffffffffffffffffffffffffff1673ffffffffffffffffffffffffffffffffffffffff1681526020019081526020016000206040518060a001604052808b73ffffffffffffffffffffffffffffffffffffffff1681526020018a8152602001896002811115611947576119476150d7565b6002811115611958576119586150d7565b815273ffffffffffffffffffffffffffffffffffffffff891660208201526000604091820152517fffffffff0000000000000000000000000000000000000000000000000000000060e087901b1681526119b89493929190600401615141565b602060405180830381865af41580156119d5573d6000803e3d6000fd5b505050506040513d601f19601f820116820180604052508101906119f99190615027565b95945050505050565b73__$f5c72277be8ce017a49a057a0b23d5ab78$__63bf697a26603460366037603560003373ffffffffffffffffffffffffffffffffffffffff1673ffffffffffffffffffffffffffffffffffffffff1681526020019081526020016000208787603b60089054906101000a900461ffff167f000000000000000000000000000000000000000000000000000000000000000073ffffffffffffffffffffffffffffffffffffffff1663fca513a86040518163ffffffff1660e01b8152600401602060405180830381865afa158015611adf573d6000803e3d6000fd5b505050506040513d601f19601f82011682018060405250810190611b039190614f16565b336000908152603860205260409081902054905160e08b901b7fffffffff00000000000000000000000000000000000000000000000000000000168152600481019990995260248901979097526044880195909552606487019390935273ffffffffffffffffffffffffffffffffffffffff9182166084870152151560a486015261ffff90911660c48501521660e483015260ff16610104820152610124015b60006040518083038186803b158015611bbb57600080fd5b505af4158015611bcf573d6000803e3d6000fd5b505050505050565b73ffffffffffffffffffffffffffffffffffffffff8281166000818152603560209081526040918290208251608081018452898616815291820188815282840194855261ffff8781166060850190815294517f1913f16100000000000000000000000000000000000000000000000000000000815260346004820152603660248201526044810193909352925186166064830152516084820152925190931660a48301525190911660c482015273__$f5c72277be8ce017a49a057a0b23d5ab78$__90631913f1619060e4015b60006040518083038186803b158015611cbc57600080fd5b505af4158015611cd0573d6000803e3d6000fd5b5050505050505050565b611ce2613ac6565b6040517f9cf57023000000000000000000000000000000000000000000000000000000008152603460048201526036602482015273ffffffffffffffffffffffffffffffffffffffff8216604482015273__$b60d4983fb80bfc29f095a4746a419d098$__90639cf57023906064016111b7565b600073__$f5c72277be8ce017a49a057a0b23d5ab78$__63186dea44603460366037603560003373ffffffffffffffffffffffffffffffffffffffff1673ffffffffffffffffffffffffffffffffffffffff1681526020019081526020016000206040518060c001604052808b73ffffffffffffffffffffffffffffffffffffffff1681526020018a81526020018973ffffffffffffffffffffffffffffffffffffffff168152602001603b60089054906101000a900461ffff1661ffff1681526020017f000000000000000000000000000000000000000000000000000000000000000073ffffffffffffffffffffffffffffffffffffffff1663fca513a86040518163ffffffff1660e01b8152600401602060405180830381865afa158015611e85573d6000803e3d6000fd5b505050506040513d601f19601f82011682018060405250810190611ea99190614f16565b73ffffffffffffffffffffffffffffffffffffffff9081168252336000908152603860209081526040918290205460ff90811694820194909452815160e08b901b7fffffffff0000000000000000000000000000000000000000000000000000000016815260048101999099526024890197909752604488019590955260648701939093528151831660848701529381015160a486015291820151811660c4850152606082015160e485015260808201511661010484015260a0015116610124820152610144016116a3565b611f7d613e11565b73ffffffffffffffffffffffffffffffffffffffff8281166000818152603560205260409081902090517f0413c86f0000000000000000000000000000000000000000000000000000000081526034600482015260366024820152604481019190915291861660648301526084820185905260a482015261ffff821660c482015273__$77a4c607525f6b4dd6f219d753e7be4d6f$__90630413c86f9060e401611ca4565b6040805160a081018252600080825260208201819052918101829052606080820192909252608081019190915260ff8216600090815260376020908152604091829020825160a081018452815461ffff8082168352620100008204811694830194909452640100000000810490931693810193909352660100000000000090910473ffffffffffffffffffffffffffffffffffffffff1660608301526001810180546080840191906120d39061523f565b80601f01602080910402602001604051908101604052809291908181526020018280546120ff9061523f565b801561214c5780601f106121215761010080835404028352916020019161214c565b820191906000526020600020905b81548152906001019060200180831161212f57829003601f168201915b5050505050815250509050919050565b612164613ac6565b73__$b60d4983fb80bfc29f095a4746a419d098$__6369fc1bdf603460366040518060e001604052808a73ffffffffffffffffffffffffffffffffffffffff1681526020018973ffffffffffffffffffffffffffffffffffffffff1681526020018873ffffffffffffffffffffffffffffffffffffffff1681526020018773ffffffffffffffffffffffffffffffffffffffff1681526020018673ffffffffffffffffffffffffffffffffffffffff168152602001603b60089054906101000a900461ffff1661ffff16815260200161223b608090565b61ffff168152506040518463ffffffff1660e01b81526004016122609392919061528d565b602060405180830381865af415801561227d573d6000803e3d6000fd5b505050506040513d601f19601f820116820180604052508101906122a1919061531d565b156111e357603b805468010000000000000000900461ffff169060086122c68361533a565b91906101000a81548161ffff021916908361ffff160217905550505050505050565b73ffffffffffffffffffffffffffffffffffffffff82166000908152603460209081526040808320338452603590925290912073__$152c6c6bf2d6ea02d792b3c78237e4cc31$__9163eac4d703918585600281111561234a5761234a6150d7565b6040518563ffffffff1660e01b8152600401611ba3949392919061535c565b6040517f48c2ca8c00000000000000000000000000000000000000000000000000000000815273__$b60d4983fb80bfc29f095a4746a419d098$__906348c2ca8c90611ba39060349086908690600401615393565b73__$152c6c6bf2d6ea02d792b3c78237e4cc31$__631e6473f9603460366037603560008773ffffffffffffffffffffffffffffffffffffffff1673ffffffffffffffffffffffffffffffffffffffff1681526020019081526020016000206040518061018001604052808c73ffffffffffffffffffffffffffffffffffffffff1681526020013373ffffffffffffffffffffffffffffffffffffffff1681526020018873ffffffffffffffffffffffffffffffffffffffff1681526020018b81526020018a6002811115612495576124956150d7565b60028111156124a6576124a66150d7565b815261ffff808b166020808401919091526001604080850191909152603b5467ffffffffffffffff81166060860152680100000000000000009004909216608084015281517ffca513a8000000000000000000000000000000000000000000000000000000008152915160a09093019273ffffffffffffffffffffffffffffffffffffffff7f0000000000000000000000000000000000000000000000000000000000000000169263fca513a89260048083019391928290030181865afa158015612575573d6000803e3d6000fd5b505050506040513d601f19601f820116820180604052508101906125999190614f16565b73ffffffffffffffffffffffffffffffffffffffff90811682528981166000908152603860209081526040918290205460ff168185015281517f5eb88d3d000000000000000000000000000000000000000000000000000000008152825192909401937f000000000000000000000000000000000000000000000000000000000000000090931692635eb88d3d92600480830193928290030181865afa158015612647573d6000803e3d6000fd5b505050506040513d601f19601f8201168201806040525081019061266b9190614f16565b73ffffffffffffffffffffffffffffffffffffffff168152506040518663ffffffff1660e01b8152600401610c369594939291906153f8565b6000604051806101c001604052808d73ffffffffffffffffffffffffffffffffffffffff1681526020018c8c808060200260200160405190810160405280939291908181526020018383602002808284376000920191909152505050908252506040805160208c810282810182019093528c82529283019290918d918d9182918501908490808284376000920191909152505050908252506040805160208a810282810182019093528a82529283019290918b918b91829185019084908082843760009201919091525050509082525073ffffffffffffffffffffffffffffffffffffffff871660208083019190915260408051601f88018390048302810183018252878152920191908790879081908401838280828437600092018290525093855250505061ffff808616602080850191909152603a546fffffffffffffffffffffffffffffffff7001000000000000000000000000000000008204811660408088019190915291166060860152603b5467ffffffffffffffff8116608087015268010000000000000000900490921660a085015273ffffffffffffffffffffffffffffffffffffffff7f0000000000000000000000000000000000000000000000000000000000000000811660c08601819052908b16845260388252928290205460ff1660e085015281517f707cd71600000000000000000000000000000000000000000000000000000000815291516101009094019363707cd7169260048082019392918290030181865afa1580156128e4573d6000803e3d6000fd5b505050506040513d601f19601f820116820180604052508101906129089190614f16565b6040517ffa50f29700000000000000000000000000000000000000000000000000000000815233600482015273ffffffffffffffffffffffffffffffffffffffff919091169063fa50f29790602401602060405180830381865afa158015612974573d6000803e3d6000fd5b505050506040513d601f19601f82011682018060405250810190612998919061531d565b1515905273ffffffffffffffffffffffffffffffffffffffff86166000908152603560205260409081902090517f2e7263ea00000000000000000000000000000000000000000000000000000000815291925073__$694c15fe79c90b6cb9332b59bdfe50f85b$__91632e7263ea91612a1f916034916036916037919088906004016155a1565b60006040518083038186803b158015612a3757600080fd5b505af4158015612a4b573d6000803e3d6000fd5b50505050505050505050505050505050565b612a65613ac6565b6fffffffffffffffffffffffffffffffff90811670010000000000000000000000000000000002911617603a55565b6040805173ffffffffffffffffffffffffffffffffffffffff83811660008181526035602090815285822060c0860187525460a086019081528552603b5468010000000000000000900461ffff16818601528486019290925284517ffca513a8000000000000000000000000000000000000000000000000000000008152945190948594859485948594859473__$b60d4983fb80bfc29f095a4746a419d098$__946326ec273f9460349460369460379460608501937f0000000000000000000000000000000000000000000000000000000000000000169263fca513a8926004808401938290030181865afa158015612b92573d6000803e3d6000fd5b505050506040513d601f19601f82011682018060405250810190612bb69190614f16565b73ffffffffffffffffffffffffffffffffffffffff90811682528e81166000908152603860209081526040918290205460ff90811694820194909452815160e08a901b7fffffffff00000000000000000000000000000000000000000000000000000000168152600481019890985260248801969096526044870194909452825151606487015293820151608486015291810151831660a4850152606081015190921660c48401526080909101511660e48201526101040160c060405180830381865af4158015612c8b573d6000803e3d6000fd5b505050506040513d601f19601f82011682018060405250810190612caf9190615747565b949c939b5091995097509550909350915050565b6001805460ff1680612cd45750303b155b80612ce0575060005481115b612d6c576040517f08c379a000000000000000000000000000000000000000000000000000000000815260206004820152602e60248201527f436f6e747261637420696e7374616e63652068617320616c726561647920626560448201527f656e20696e697469616c697a65640000000000000000000000000000000000006064820152608401610ea7565b60015460ff16158015612da957600180547fffffffffffffffffffffffffffffffffffffffffffffffffffffffffffffff00168117905560008290555b7f000000000000000000000000000000000000000000000000000000000000000073ffffffffffffffffffffffffffffffffffffffff168373ffffffffffffffffffffffffffffffffffffffff16146040518060400160405280600281526020017f313200000000000000000000000000000000000000000000000000000000000081525090612e66576040517f08c379a0000000000000000000000000000000000000000000000000000000008152600401610ea79190615014565b50603b80547fffffffffffffffffffffffffffffffffffffffffffffffff0000000000000000166109c41790557f000000000000000000000000000000000000000000000000000000000000000073ffffffffffffffffffffffffffffffffffffffff1615612f50577f000000000000000000000000000000000000000000000000000000000000000073ffffffffffffffffffffffffffffffffffffffff16634e606c476040518163ffffffff1660e01b8152600401600060405180830381600087803b158015612f3757600080fd5b505af1158015612f4b573d6000803e3d6000fd5b505050505b8015612f7f57600180547fffffffffffffffffffffffffffffffffffffffffffffffffffffffffffffff001690555b505050565b73ffffffffffffffffffffffffffffffffffffffff8281166000818152603460205260409081902090517f6973f74400000000000000000000000000000000000000000000000000000000815260048101919091526024810191909152908216604482015273__$152c6c6bf2d6ea02d792b3c78237e4cc31$__90636973f74490606401611ba3565b613015613bf4565b6040517f87b322b200000000000000000000000000000000000000000000000000000000815273ffffffffffffffffffffffffffffffffffffffff8085166004830152831660248201526044810182905273__$b60d4983fb80bfc29f095a4746a419d098$__906387b322b29060640160006040518083038186803b15801561309d57600080fd5b505af41580156130b1573d6000803e3d6000fd5b50505050505050565b73ffffffffffffffffffffffffffffffffffffffff8116600090815260346020526040812061172990613f9e565b603b5460609068010000000000000000900461ffff166000808267ffffffffffffffff81111561311a5761311a614c2d565b604051908082528060200260200182016040528015613143578160200160208202803683370190505b50905060005b8381101561321a5760008181526036602052604090205473ffffffffffffffffffffffffffffffffffffffff16156131fa5760008181526036602052604090205473ffffffffffffffffffffffffffffffffffffffff16826131ab8584615791565b815181106131bb576131bb615040565b602002602001019073ffffffffffffffffffffffffffffffffffffffff16908173ffffffffffffffffffffffffffffffffffffffff1681525050613208565b826132048161509e565b9350505b806132128161509e565b915050613149565b5091038152919050565b61322c613ac6565b60408051808201909152600281527f3136000000000000000000000000000000000000000000000000000000000000602082015260ff831661329b576040517f08c379a0000000000000000000000000000000000000000000000000000000008152600401610ea79190615014565b5060ff8216600090815260376020908152604091829020835181548386015194860151606087015173ffffffffffffffffffffffffffffffffffffffff166601000000000000027fffffffffffff0000000000000000000000000000000000000000ffffffffffff61ffff92831664010000000002167fffffffffffff00000000000000000000000000000000000000000000ffffffff97831662010000027fffffffffffffffffffffffffffffffffffffffffffffffffffffffff000000009094169290941691909117919091179490941617929092178255608083015180518493926111e3926001850192910190614212565b73ffffffffffffffffffffffffffffffffffffffff868116600090815260346020908152604091829020600401548251808401909352600283527f313100000000000000000000000000000000000000000000000000000000000091830191909152909116331461342e576040517f08c379a0000000000000000000000000000000000000000000000000000000008152600401610ea79190615014565b5073__$f5c72277be8ce017a49a057a0b23d5ab78$__638a5dadd160346036603760356040518061012001604052808d73ffffffffffffffffffffffffffffffffffffffff1681526020018c73ffffffffffffffffffffffffffffffffffffffff1681526020018b73ffffffffffffffffffffffffffffffffffffffff1681526020018a8152602001898152602001888152602001603b60089054906101000a900461ffff1661ffff1681526020017f000000000000000000000000000000000000000000000000000000000000000073ffffffffffffffffffffffffffffffffffffffff1663fca513a86040518163ffffffff1660e01b8152600401602060405180830381865afa158015613548573d6000803e3d6000fd5b505050506040513d601f19601f8201168201806040525081019061356c9190614f16565b73ffffffffffffffffffffffffffffffffffffffff90811682528d166000908152603860209081526040918290205460ff16920191909152517fffffffff0000000000000000000000000000000000000000000000000000000060e088901b1681526135df9594939291906004016157a8565b60006040518083038186803b1580156135f757600080fd5b505af415801561360b573d6000803e3d6000fd5b50505050505050505050565b6000613621613e11565b73ffffffffffffffffffffffffffffffffffffffff84166000818152603460205260409081902060395491517f8e743248000000000000000000000000000000000000000000000000000000008152600481019190915260248101929092526044820185905260648201849052608482015273__$77a4c607525f6b4dd6f219d753e7be4d6f$__90638e7432489060a4016116a3565b6136bf613ac6565b6040517f1e3b41450000000000000000000000000000000000000000000000000000000081526034600482015273ffffffffffffffffffffffffffffffffffffffff8216602482015273__$b60d4983fb80bfc29f095a4746a419d098$__90631e3b4145906044016111b7565b6040517fd505accf000000000000000000000000000000000000000000000000000000008152336004820152306024820152604481018890526064810185905260ff8416608482015260a4810183905260c4810182905260009073ffffffffffffffffffffffffffffffffffffffff8a169063d505accf9060e401600060405180830381600087803b1580156137c157600080fd5b505af11580156137d5573d6000803e3d6000fd5b5050505060006040518060a001604052808b73ffffffffffffffffffffffffffffffffffffffff1681526020018a815260200189600281111561381a5761381a6150d7565b600281111561382b5761382b6150d7565b815273ffffffffffffffffffffffffffffffffffffffff89166020808301829052600060409384018190529182526035905281902090517f40e95de600000000000000000000000000000000000000000000000000000000815291925073__$152c6c6bf2d6ea02d792b3c78237e4cc31$__916340e95de6916138b8916034916036918790600401615141565b602060405180830381865af41580156138d5573d6000803e3d6000fd5b505050506040513d601f19601f820116820180604052508101906138f99190615027565b9a9950505050505050505050565b61390f613ac6565b60408051808201909152600281527f3737000000000000000000000000000000000000000000000000000000000000602082015273ffffffffffffffffffffffffffffffffffffffff8316613991576040517f08c379a0000000000000000000000000000000000000000000000000000000008152600401610ea79190615014565b5073ffffffffffffffffffffffffffffffffffffffff82166000908152603460205260409020600301547501000000000000000000000000000000000000000000900461ffff16151580613a2757506000805260366020527f4cb2b152c1b54ce671907a93c300fd5aa72383a9d4ec19a81e3333632ae92e005473ffffffffffffffffffffffffffffffffffffffff8381169116145b6040518060400160405280600281526020017f383200000000000000000000000000000000000000000000000000000000000081525090613a95576040517f08c379a0000000000000000000000000000000000000000000000000000000008152600401610ea79190615014565b5073ffffffffffffffffffffffffffffffffffffffff821660009081526034602052604090208135815581906115a4565b3373ffffffffffffffffffffffffffffffffffffffff167f000000000000000000000000000000000000000000000000000000000000000073ffffffffffffffffffffffffffffffffffffffff1663631adfca6040518163ffffffff1660e01b8152600401602060405180830381865afa158015613b48573d6000803e3d6000fd5b505050506040513d601f19601f82011682018060405250810190613b6c9190614f16565b73ffffffffffffffffffffffffffffffffffffffff16146040518060400160405280600281526020017f313000000000000000000000000000000000000000000000000000000000000081525090613bf1576040517f08c379a0000000000000000000000000000000000000000000000000000000008152600401610ea79190615014565b50565b7f000000000000000000000000000000000000000000000000000000000000000073ffffffffffffffffffffffffffffffffffffffff1663707cd7166040518163ffffffff1660e01b8152600401602060405180830381865afa158015613c5f573d6000803e3d6000fd5b505050506040513d601f19601f82011682018060405250810190613c839190614f16565b6040517f7be53ca100000000000000000000000000000000000000000000000000000000815233600482015273ffffffffffffffffffffffffffffffffffffffff9190911690637be53ca190602401602060405180830381865afa158015613cef573d6000803e3d6000fd5b505050506040513d601f19601f82011682018060405250810190613d13919061531d565b6040518060400160405280600181526020017f310000000000000000000000000000000000000000000000000000000000000081525090613bf1576040517f08c379a0000000000000000000000000000000000000000000000000000000008152600401610ea79190615014565b6003810154600090700100000000000000000000000000000000900464ffffffffff1642811415613dc7575050600201546fffffffffffffffffffffffffffffffff1690565b60028301546116e7906fffffffffffffffffffffffffffffffff80821691613e05917001000000000000000000000000000000009091041684614022565b9061402f565b50919050565b7f000000000000000000000000000000000000000000000000000000000000000073ffffffffffffffffffffffffffffffffffffffff1663707cd7166040518163ffffffff1660e01b8152600401602060405180830381865afa158015613e7c573d6000803e3d6000fd5b505050506040513d601f19601f82011682018060405250810190613ea09190614f16565b6040517f726600ce00000000000000000000000000000000000000000000000000000000815233600482015273ffffffffffffffffffffffffffffffffffffffff919091169063726600ce90602401602060405180830381865afa158015613f0c573d6000803e3d6000fd5b505050506040513d601f19601f82011682018060405250810190613f30919061531d565b6040518060400160405280600181526020017f360000000000000000000000000000000000000000000000000000000000000081525090613bf1576040517f08c379a0000000000000000000000000000000000000000000000000000000008152600401610ea79190615014565b6003810154600090700100000000000000000000000000000000900464ffffffffff1642811415613fe4575050600101546fffffffffffffffffffffffffffffffff1690565b60018301546116e7906fffffffffffffffffffffffffffffffff80821691613e05917001000000000000000000000000000000009091041684614086565b60006116e78383426140cb565b600081157ffffffffffffffffffffffffffffffffffffffffffe6268e1b017bfe18bffffff8390048411151761406457600080fd5b506b033b2e3c9fd0803ce800000091026b019d971e4fe8401e74000000010490565b60008061409a64ffffffffff841642615791565b6140a49085615884565b6301e13380900490506140c3816b033b2e3c9fd0803ce80000006158f0565b949350505050565b6000806140df64ffffffffff851684615791565b9050806140fb576b033b2e3c9fd0803ce80000009150506116e7565b7fffffffffffffffffffffffffffffffffffffffffffffffffffffffffffffffff81016000808060028511614131576000614136565b600285035b925066038882915c400061414a8a8061402f565b81614157576141576158c1565b0491506301e13380614169838b61402f565b81614176576141766158c1565b0490506000826141868688615884565b6141909190615884565b600290049050600082856141a4888a615884565b6141ae9190615884565b6141b89190615884565b60069004905080826301e133806141cf8a8f615884565b6141d99190615908565b6141ef906b033b2e3c9fd0803ce80000006158f0565b6141f991906158f0565b61420391906158f0565b9b9a5050505050505050505050565b82805461421e9061523f565b90600052602060002090601f0160209004810192826142405760008555614286565b82601f1061425957805160ff1916838001178555614286565b82800160010185558215614286579182015b8281111561428657825182559160200191906001019061426b565b50614292929150614296565b5090565b5b808211156142925760008155600101614297565b73ffffffffffffffffffffffffffffffffffffffff81168114613bf157600080fd5b80356142d8816142ab565b919050565b8015158114613bf157600080fd5b600080600080600060a0868803121561430357600080fd5b853561430e816142ab565b9450602086013561431e816142ab565b9350604086013561432e816142ab565b9250606086013591506080860135614345816142dd565b809150509295509295909350565b803561ffff811681146142d857600080fd5b803560ff811681146142d857600080fd5b600080600080600080600080610100898b03121561439357600080fd5b883561439e816142ab565b97506020890135965060408901356143b5816142ab565b95506143c360608a01614353565b9450608089013593506143d860a08a01614365565b925060c0890135915060e089013590509295985092959890939650565b6000806040838503121561440857600080fd5b8235614413816142ab565b91506020830135614423816142ab565b809150509250929050565b60006020828403121561444057600080fd5b6116e782614365565b60006020828403121561445b57600080fd5b81356116e7816142ab565b60008060006060848603121561447b57600080fd5b8335614486816142ab565b95602085013595506040909401359392505050565b6000602082840312156144ad57600080fd5b5035919050565b81515181526101e0810160208301516144e160208401826fffffffffffffffffffffffffffffffff169052565b50604083015161450560408401826fffffffffffffffffffffffffffffffff169052565b50606083015161452960608401826fffffffffffffffffffffffffffffffff169052565b50608083015161454d60808401826fffffffffffffffffffffffffffffffff169052565b5060a083015161457160a08401826fffffffffffffffffffffffffffffffff169052565b5060c083015161458a60c084018264ffffffffff169052565b5060e08301516145a060e084018261ffff169052565b506101008381015173ffffffffffffffffffffffffffffffffffffffff9081169184019190915261012080850151821690840152610140808501518216908401526101608085015190911690830152610180808401516fffffffffffffffffffffffffffffffff908116918401919091526101a0808501518216908401526101c09384015116929091019190915290565b60008083601f84011261464357600080fd5b50813567ffffffffffffffff81111561465b57600080fd5b60208301915083602082850101111561467357600080fd5b9250929050565b60008060008060008060a0878903121561469357600080fd5b863561469e816142ab565b955060208701356146ae816142ab565b945060408701359350606087013567ffffffffffffffff8111156146d157600080fd5b6146dd89828a01614631565b90945092506146f0905060808801614353565b90509295509295509295565b60006020828403121561470e57600080fd5b6116e782614353565b6000806000806080858703121561472d57600080fd5b8435614738816142ab565b935060208501359250604085013591506060850135614756816142ab565b939692955090935050565b6000806040838503121561477457600080fd5b823561477f816142ab565b91506020830135614423816142dd565b600080600080608085870312156147a557600080fd5b84356147b0816142ab565b93506020850135925060408501356147c7816142ab565b91506147d560608601614353565b905092959194509250565b6000806000606084860312156147f557600080fd5b8335614800816142ab565b9250602084013591506040840135614817816142ab565b809150509250925092565b6000815180845260005b818110156148485760208185018101518683018201520161482c565b8181111561485a576000602083870101525b50601f017fffffffffffffffffffffffffffffffffffffffffffffffffffffffffffffffe0169290920160200192915050565b60208152600061ffff8084511660208401528060208501511660408401528060408501511660608401525073ffffffffffffffffffffffffffffffffffffffff6060840151166080830152608083015160a0808401526140c360c0840182614822565b600080600080600060a0868803121561490857600080fd5b8535614913816142ab565b94506020860135614923816142ab565b93506040860135614933816142ab565b92506060860135614943816142ab565b91506080860135614345816142ab565b6000806040838503121561496657600080fd5b8235614971816142ab565b946020939093013593505050565b60008083601f84011261499157600080fd5b50813567ffffffffffffffff8111156149a957600080fd5b6020830191508360208260051b850101111561467357600080fd5b600080602083850312156149d757600080fd5b823567ffffffffffffffff8111156149ee57600080fd5b6149fa8582860161497f565b90969095509350505050565b600080600080600060a08688031215614a1e57600080fd5b8535614a29816142ab565b9450602086013593506040860135925061494360608701614353565b600080600080600080600080600080600060e08c8e031215614a6657600080fd5b614a6f8c6142cd565b9a5067ffffffffffffffff8060208e01351115614a8b57600080fd5b614a9b8e60208f01358f0161497f565b909b50995060408d0135811015614ab157600080fd5b614ac18e60408f01358f0161497f565b909950975060608d0135811015614ad757600080fd5b614ae78e60608f01358f0161497f565b9097509550614af860808e016142cd565b94508060a08e01351115614b0b57600080fd5b50614b1c8d60a08e01358e01614631565b9093509150614b2d60c08d01614353565b90509295989b509295989b9093969950565b80356fffffffffffffffffffffffffffffffff811681146142d857600080fd5b60008060408385031215614b7257600080fd5b614b7b83614b3f565b9150614b8960208401614b3f565b90509250929050565b600080600060608486031215614ba757600080fd5b8335614bb2816142ab565b92506020840135614bc2816142ab565b929592945050506040919091013590565b6020808252825182820181905260009190848201906040850190845b81811015614c2157835173ffffffffffffffffffffffffffffffffffffffff1683529284019291840191600101614bef565b50909695505050505050565b7f4e487b7100000000000000000000000000000000000000000000000000000000600052604160045260246000fd5b60405160a0810167ffffffffffffffff81118282101715614c7f57614c7f614c2d565b60405290565b604051601f82017fffffffffffffffffffffffffffffffffffffffffffffffffffffffffffffffe016810167ffffffffffffffff81118282101715614ccc57614ccc614c2d565b604052919050565b60008060408385031215614ce757600080fd5b614cf083614365565b915060208084013567ffffffffffffffff80821115614d0e57600080fd5b9085019060a08288031215614d2257600080fd5b614d2a614c5c565b614d3383614353565b8152614d40848401614353565b84820152614d5060408401614353565b60408201526060830135614d63816142ab565b6060820152608083013582811115614d7a57600080fd5b80840193505087601f840112614d8f57600080fd5b823582811115614da157614da1614c2d565b614dd1857fffffffffffffffffffffffffffffffffffffffffffffffffffffffffffffffe0601f84011601614c85565b92508083528885828601011115614de757600080fd5b8085850186850137600085828501015250816080820152809450505050509250929050565b60008060008060008060c08789031215614e2557600080fd5b8635614e30816142ab565b95506020870135614e40816142ab565b94506040870135614e50816142ab565b959894975094956060810135955060808101359460a0909101359350915050565b600080600080600080600080610100898b031215614e8e57600080fd5b8835614e99816142ab565b9750602089013596506040890135955060608901356143c3816142ab565b6000808284036040811215614ecb57600080fd5b8335614ed6816142ab565b925060207fffffffffffffffffffffffffffffffffffffffffffffffffffffffffffffffe082011215614f0857600080fd5b506020830190509250929050565b600060208284031215614f2857600080fd5b81516116e7816142ab565b60006101a08201905086825285602083015284604083015283606083015282516080830152602083015160a0830152604083015173ffffffffffffffffffffffffffffffffffffffff80821660c08501528060608601511660e085015250506080830151610100614fbb8185018373ffffffffffffffffffffffffffffffffffffffff169052565b60a0850151151561012085015260c085015173ffffffffffffffffffffffffffffffffffffffff90811661014086015260e086015160ff166101608601529085015190811661018085015290505b509695505050505050565b6020815260006116e76020830184614822565b60006020828403121561503957600080fd5b5051919050565b7f4e487b7100000000000000000000000000000000000000000000000000000000600052603260045260246000fd5b7f4e487b7100000000000000000000000000000000000000000000000000000000600052601160045260246000fd5b60007fffffffffffffffffffffffffffffffffffffffffffffffffffffffffffffffff8214156150d0576150d061506f565b5060010190565b7f4e487b7100000000000000000000000000000000000000000000000000000000600052602160045260246000fd5b6003811061513d577f4e487b7100000000000000000000000000000000000000000000000000000000600052602160045260246000fd5b9052565b60006101008201905085825284602083015283604083015273ffffffffffffffffffffffffffffffffffffffff80845116606084015260208401516080840152604084015161519360a0850182615106565b5060608401511660c0830152608090920151151560e0909101529392505050565b82815260406020820152600073ffffffffffffffffffffffffffffffffffffffff8084511660408401528060208501511660608401525060408301516080830152606083015160e060a084015261520f610120840182614822565b905061ffff60808501511660c084015260a084015160e084015260c0840151610100840152809150509392505050565b600181811c9082168061525357607f821691505b60208210811415613e0b577f4e487b7100000000000000000000000000000000000000000000000000000000600052602260045260246000fd5b60006101208201905084825283602083015273ffffffffffffffffffffffffffffffffffffffff8084511660408401528060208501511660608401528060408501511660808401528060608501511660a08401528060808501511660c08401525060a083015161530360e084018261ffff169052565b5060c083015161ffff811661010084015250949350505050565b60006020828403121561532f57600080fd5b81516116e7816142dd565b600061ffff808316818114156153525761535261506f565b6001019392505050565b8481526020810184905273ffffffffffffffffffffffffffffffffffffffff83166040820152608081016119f96060830184615106565b83815260406020808301829052908201839052600090849060608401835b868110156153ec5783356153c4816142ab565b73ffffffffffffffffffffffffffffffffffffffff16825292820192908201906001016153b1565b50979650505050505050565b858152602081018590526040810184905260608101839052815173ffffffffffffffffffffffffffffffffffffffff1660808201526102008101602083015173ffffffffffffffffffffffffffffffffffffffff811660a084015250604083015173ffffffffffffffffffffffffffffffffffffffff811660c084015250606083015160e0830152608083015161010061549481850183615106565b60a085015191506101206154ad8186018461ffff169052565b60c086015192506101406154c48187018515159052565b60e087015161016087810191909152928701516101808701529086015173ffffffffffffffffffffffffffffffffffffffff9081166101a08701529086015160ff166101c0860152908501519081166101e08501529050615009565b600081518084526020808501945080840160005b8381101561556657815173ffffffffffffffffffffffffffffffffffffffff1687529582019590820190600101615534565b509495945050505050565b600081518084526020808501945080840160005b8381101561556657815187529582019590820190600101615585565b85815284602082015283604082015282606082015260a060808201526155e060a08201835173ffffffffffffffffffffffffffffffffffffffff169052565b600060208301516101c08060c08501526155fe610260850183615520565b915060408501517fffffffffffffffffffffffffffffffffffffffffffffffffffffffffffffff60808685030160e087015261563a8483615571565b9350606087015191506101008187860301818801526156598584615571565b9450608088015192506101206156868189018573ffffffffffffffffffffffffffffffffffffffff169052565b60a089015193506101408389880301818a01526156a38786614822565b965060c08a0151945061016093506156c0848a018661ffff169052565b60e08a0151945061018085818b0152838b015195506101a0935085848b0152828b0151878b0152818b01516101e08b0152848b0151965061571a6102008b018873ffffffffffffffffffffffffffffffffffffffff169052565b8a015160ff81166102208b01529550615731915050565b87015180151561024088015292506153ec915050565b60008060008060008060c0878903121561576057600080fd5b865195506020870151945060408701519350606087015192506080870151915060a087015190509295509295509295565b6000828210156157a3576157a361506f565b500390565b60006101a08201905086825285602083015284604083015283606083015273ffffffffffffffffffffffffffffffffffffffff8084511660808401528060208501511660a084015250604083015161581860c084018273ffffffffffffffffffffffffffffffffffffffff169052565b50606083015160e08301526080830151610100818185015260a085015161012085015260c085015161014085015260e0850151915061587061016085018373ffffffffffffffffffffffffffffffffffffffff169052565b84015160ff81166101808501529050615009565b6000817fffffffffffffffffffffffffffffffffffffffffffffffffffffffffffffffff04831182151516156158bc576158bc61506f565b500290565b7f4e487b7100000000000000000000000000000000000000000000000000000000600052601260045260246000fd5b600082198211156159035761590361506f565b500190565b60008261593e577f4e487b7100000000000000000000000000000000000000000000000000000000600052601260045260246000fd5b50049056fea2646970667358221220e5f161cad7c5e5ce16913b36ad62aaabfd51e25517d8b56fd9c7891f606ce1f164736f6c634300080a0033",
  "libraries": {
    "LiquidationLogic": "0xe2df064B0dCa2fCE3e152BD96274CBcFf6cCefDE",
    "SupplyLogic": "0x7eA715f0AA2B03b5C4C19Fb40c5fD982916c2e49",
    "EModeLogic": "0xBf0B72a3D394a51aF630763bce9cb788f95Aa244",
    "FlashLoanLogic": "0x6e8dB4157ead55C3eE03776DBe22e5B9d97B61cC",
    "BorrowLogic": "0x5D52c32Ab79f1eB749324f64cF08A94d224e1C7F",
    "BridgeLogic": "0x3db22277D2cD56ddF612B286A8461860a4cf2c55",
    "PoolLogic": "0x8F70C139ae3CB24C41F8B87484AcF6106A4727e2"
  },
  "devdoc": {
    "author": "Aave",
    "details": "To be covered by a proxy contract, owned by the PoolAddressesProvider of the specific marketAll admin functions are callable by the PoolConfigurator contract defined also in the   PoolAddressesProvider",
    "kind": "dev",
    "methods": {
      "BRIDGE_PROTOCOL_FEE()": {
        "returns": {
          "_0": "The bridge fee sent to the protocol treasury"
        }
      },
      "FLASHLOAN_PREMIUM_TOTAL()": {
        "returns": {
          "_0": "The total fee on flashloans"
        }
      },
      "FLASHLOAN_PREMIUM_TO_PROTOCOL()": {
        "returns": {
          "_0": "The flashloan fee sent to the protocol treasury"
        }
      },
      "MAX_NUMBER_RESERVES()": {
        "returns": {
          "_0": "The maximum number of reserves supported"
        }
      },
      "MAX_STABLE_RATE_BORROW_SIZE_PERCENT()": {
        "returns": {
          "_0": "The percentage of available liquidity to borrow, expressed in bps"
        }
      },
      "backUnbacked(address,uint256,uint256)": {
        "params": {
          "amount": "The amount to back",
          "asset": "The address of the underlying asset to back",
          "fee": "The amount paid in fees"
        },
        "returns": {
          "_0": "The backed amount"
        }
      },
      "borrow(address,uint256,uint256,uint16,address)": {
        "params": {
          "amount": "The amount to be borrowed",
          "asset": "The address of the underlying asset to borrow",
          "interestRateMode": "The interest rate mode at which the user wants to borrow: 1 for Stable, 2 for Variable",
          "onBehalfOf": "The address of the user who will receive the debt. Should be the address of the borrower itself calling the function if he wants to borrow against his own collateral, or the address of the credit delegator if he has been given credit delegation allowance",
          "referralCode": "The code used to register the integrator originating the operation, for potential rewards.   0 if the action is executed directly by the user, without any middle-man"
        }
      },
      "configureEModeCategory(uint8,(uint16,uint16,uint16,address,string))": {
        "details": "In eMode, the protocol allows very high borrowing power to borrow assets of the same category. The category 0 is reserved as it's the default for volatile assets",
        "params": {
          "config": "The configuration of the category",
          "id": "The id of the category"
        }
      },
      "constructor": {
        "details": "Constructor.",
        "params": {
          "provider": "The address of the PoolAddressesProvider contract"
        }
      },
      "deposit(address,uint256,address,uint16)": {
        "details": "Deprecated: maintained for compatibility purposes",
        "params": {
          "amount": "The amount to be supplied",
          "asset": "The address of the underlying asset to supply",
          "onBehalfOf": "The address that will receive the aTokens, same as msg.sender if the user   wants to receive them on his own wallet, or a different address if the beneficiary of aTokens   is a different wallet",
          "referralCode": "Code used to register the integrator originating the operation, for potential rewards.   0 if the action is executed directly by the user, without any middle-man"
        }
      },
      "dropReserve(address)": {
        "details": "Only callable by the PoolConfigurator contract",
        "params": {
          "asset": "The address of the underlying asset of the reserve"
        }
      },
      "finalizeTransfer(address,address,address,uint256,uint256,uint256)": {
        "details": "Only callable by the overlying aToken of the `asset`",
        "params": {
          "amount": "The amount being transferred/withdrawn",
          "asset": "The address of the underlying asset of the aToken",
          "balanceFromBefore": "The aToken balance of the `from` user before the transfer",
          "balanceToBefore": "The aToken balance of the `to` user before the transfer",
          "from": "The user from which the aTokens are transferred",
          "to": "The user receiving the aTokens"
        }
      },
      "flashLoan(address,address[],uint256[],uint256[],address,bytes,uint16)": {
        "details": "IMPORTANT There are security concerns for developers of flashloan receiver contracts that must be kept into consideration. For further details please visit https://docs.aave.com/developers/",
        "params": {
          "amounts": "The amounts of the assets being flash-borrowed",
          "assets": "The addresses of the assets being flash-borrowed",
          "interestRateModes": "Types of the debt to open if the flash loan is not returned:   0 -> Don't open any debt, just revert if funds can't be transferred from the receiver   1 -> Open debt at stable rate for the value of the amount flash-borrowed to the `onBehalfOf` address   2 -> Open debt at variable rate for the value of the amount flash-borrowed to the `onBehalfOf` address",
          "onBehalfOf": "The address  that will receive the debt in the case of using on `modes` 1 or 2",
          "params": "Variadic packed params to pass to the receiver as extra information",
          "receiverAddress": "The address of the contract receiving the funds, implementing IFlashLoanReceiver interface",
          "referralCode": "The code used to register the integrator originating the operation, for potential rewards.   0 if the action is executed directly by the user, without any middle-man"
        }
      },
      "flashLoanSimple(address,address,uint256,bytes,uint16)": {
        "details": "IMPORTANT There are security concerns for developers of flashloan receiver contracts that must be kept into consideration. For further details please visit https://docs.aave.com/developers/",
        "params": {
          "amount": "The amount of the asset being flash-borrowed",
          "asset": "The address of the asset being flash-borrowed",
          "params": "Variadic packed params to pass to the receiver as extra information",
          "receiverAddress": "The address of the contract receiving the funds, implementing IFlashLoanSimpleReceiver interface",
          "referralCode": "The code used to register the integrator originating the operation, for potential rewards.   0 if the action is executed directly by the user, without any middle-man"
        }
      },
      "getConfiguration(address)": {
        "params": {
          "asset": "The address of the underlying asset of the reserve"
        },
        "returns": {
          "_0": "The configuration of the reserve"
        }
      },
      "getEModeCategoryData(uint8)": {
        "params": {
          "id": "The id of the category"
        },
        "returns": {
          "_0": "The configuration data of the category"
        }
      },
      "getReserveAddressById(uint16)": {
        "params": {
          "id": "The id of the reserve as stored in the DataTypes.ReserveData struct"
        },
        "returns": {
          "_0": "The address of the reserve associated with id"
        }
      },
      "getReserveData(address)": {
        "params": {
          "asset": "The address of the underlying asset of the reserve"
        },
        "returns": {
          "_0": "The state and configuration data of the reserve"
        }
      },
      "getReserveNormalizedIncome(address)": {
        "params": {
          "asset": "The address of the underlying asset of the reserve"
        },
        "returns": {
          "_0": "The reserve's normalized income"
        }
      },
      "getReserveNormalizedVariableDebt(address)": {
        "details": "WARNING: This function is intended to be used primarily by the protocol itself to get a \"dynamic\" variable index based on time, current stored index and virtual rate at the current moment (approx. a borrower would get if opening a position). This means that is always used in combination with variable debt supply/balances. If using this function externally, consider that is possible to have an increasing normalized variable debt that is not equivalent to how the variable debt index would be updated in storage (e.g. only updates with non-zero variable debt supply)",
        "params": {
          "asset": "The address of the underlying asset of the reserve"
        },
        "returns": {
          "_0": "The reserve normalized variable debt"
        }
      },
      "getReservesList()": {
        "details": "It does not include dropped reserves",
        "returns": {
          "_0": "The addresses of the underlying assets of the initialized reserves"
        }
      },
      "getUserAccountData(address)": {
        "params": {
          "user": "The address of the user"
        },
        "returns": {
          "availableBorrowsBase": "The borrowing power left of the user in the base currency used by the price feed",
          "currentLiquidationThreshold": "The liquidation threshold of the user",
          "healthFactor": "The current health factor of the user",
          "ltv": "The loan to value of The user",
          "totalCollateralBase": "The total collateral of the user in the base currency used by the price feed",
          "totalDebtBase": "The total debt of the user in the base currency used by the price feed"
        }
      },
      "getUserConfiguration(address)": {
        "params": {
          "user": "The user address"
        },
        "returns": {
          "_0": "The configuration of the user"
        }
      },
      "getUserEMode(address)": {
        "params": {
          "user": "The address of the user"
        },
        "returns": {
          "_0": "The eMode id"
        }
      },
      "initReserve(address,address,address,address,address)": {
        "details": "Only callable by the PoolConfigurator contract",
        "params": {
          "aTokenAddress": "The address of the aToken that will be assigned to the reserve",
          "asset": "The address of the underlying asset of the reserve",
          "interestRateStrategyAddress": "The address of the interest rate strategy contract",
          "stableDebtAddress": "The address of the StableDebtToken that will be assigned to the reserve",
          "variableDebtAddress": "The address of the VariableDebtToken that will be assigned to the reserve"
        }
      },
      "initialize(address)": {
        "details": "Function is invoked by the proxy contract when the Pool contract is added to the PoolAddressesProvider of the market.Caching the address of the PoolAddressesProvider in order to reduce gas consumption on subsequent operations",
        "params": {
          "provider": "The address of the PoolAddressesProvider"
        }
      },
      "liquidationCall(address,address,address,uint256,bool)": {
        "params": {
          "collateralAsset": "The address of the underlying asset used as collateral, to receive as result of the liquidation",
          "debtAsset": "The address of the underlying borrowed asset to be repaid with the liquidation",
          "debtToCover": "The debt amount of borrowed `asset` the liquidator wants to cover",
          "receiveAToken": "True if the liquidators wants to receive the collateral aTokens, `false` if he wants to receive the underlying collateral asset directly",
          "user": "The address of the borrower getting liquidated"
        }
      },
      "mintToTreasury(address[])": {
        "params": {
          "assets": "The list of reserves for which the minting needs to be executed"
        }
      },
      "mintUnbacked(address,uint256,address,uint16)": {
        "params": {
          "amount": "The amount to mint",
          "asset": "The address of the underlying asset to mint",
          "onBehalfOf": "The address that will receive the aTokens",
          "referralCode": "Code used to register the integrator originating the operation, for potential rewards.   0 if the action is executed directly by the user, without any middle-man"
        }
      },
      "rebalanceStableBorrowRate(address,address)": {
        "params": {
          "asset": "The address of the underlying asset borrowed",
          "user": "The address of the user to be rebalanced"
        }
      },
      "repay(address,uint256,uint256,address)": {
        "params": {
          "amount": "The amount to repay - Send the value type(uint256).max in order to repay the whole debt for `asset` on the specific `debtMode`",
          "asset": "The address of the borrowed underlying asset previously borrowed",
          "interestRateMode": "The interest rate mode at of the debt the user wants to repay: 1 for Stable, 2 for Variable",
          "onBehalfOf": "The address of the user who will get his debt reduced/removed. Should be the address of the user calling the function if he wants to reduce/remove his own debt, or the address of any other other borrower whose debt should be removed"
        },
        "returns": {
          "_0": "The final amount repaid"
        }
      },
      "repayWithATokens(address,uint256,uint256)": {
        "details": "Passing uint256.max as amount will clean up any residual aToken dust balance, if the user aToken balance is not enough to cover the whole debt",
        "params": {
          "amount": "The amount to repay - Send the value type(uint256).max in order to repay the whole debt for `asset` on the specific `debtMode`",
          "asset": "The address of the borrowed underlying asset previously borrowed",
          "interestRateMode": "The interest rate mode at of the debt the user wants to repay: 1 for Stable, 2 for Variable"
        },
        "returns": {
          "_0": "The final amount repaid"
        }
      },
      "repayWithPermit(address,uint256,uint256,address,uint256,uint8,bytes32,bytes32)": {
        "params": {
          "amount": "The amount to repay - Send the value type(uint256).max in order to repay the whole debt for `asset` on the specific `debtMode`",
          "asset": "The address of the borrowed underlying asset previously borrowed",
          "deadline": "The deadline timestamp that the permit is valid",
          "interestRateMode": "The interest rate mode at of the debt the user wants to repay: 1 for Stable, 2 for Variable",
          "onBehalfOf": "Address of the user who will get his debt reduced/removed. Should be the address of the user calling the function if he wants to reduce/remove his own debt, or the address of any other other borrower whose debt should be removed",
          "permitR": "The R parameter of ERC712 permit sig",
          "permitS": "The S parameter of ERC712 permit sig",
          "permitV": "The V parameter of ERC712 permit sig"
        },
        "returns": {
          "_0": "The final amount repaid"
        }
      },
      "rescueTokens(address,address,uint256)": {
        "params": {
          "amount": "The amount of token to transfer",
          "to": "The address of the recipient",
          "token": "The address of the token"
        }
      },
      "resetIsolationModeTotalDebt(address)": {
        "details": "It requires the given asset has zero debt ceiling",
        "params": {
          "asset": "The address of the underlying asset to reset the isolationModeTotalDebt"
        }
      },
      "setConfiguration(address,(uint256))": {
        "details": "Only callable by the PoolConfigurator contract",
        "params": {
          "asset": "The address of the underlying asset of the reserve",
          "configuration": "The new configuration bitmap"
        }
      },
      "setReserveInterestRateStrategyAddress(address,address)": {
        "details": "Only callable by the PoolConfigurator contract",
        "params": {
          "asset": "The address of the underlying asset of the reserve",
          "rateStrategyAddress": "The address of the interest rate strategy contract"
        }
      },
      "setUserEMode(uint8)": {
        "params": {
          "categoryId": "The id of the category"
        }
      },
      "setUserUseReserveAsCollateral(address,bool)": {
        "params": {
          "asset": "The address of the underlying asset supplied",
          "useAsCollateral": "True if the user wants to use the supply as collateral, false otherwise"
        }
      },
      "supply(address,uint256,address,uint16)": {
        "params": {
          "amount": "The amount to be supplied",
          "asset": "The address of the underlying asset to supply",
          "onBehalfOf": "The address that will receive the aTokens, same as msg.sender if the user   wants to receive them on his own wallet, or a different address if the beneficiary of aTokens   is a different wallet",
          "referralCode": "Code used to register the integrator originating the operation, for potential rewards.   0 if the action is executed directly by the user, without any middle-man"
        }
      },
      "supplyWithPermit(address,uint256,address,uint16,uint256,uint8,bytes32,bytes32)": {
        "params": {
          "amount": "The amount to be supplied",
          "asset": "The address of the underlying asset to supply",
          "deadline": "The deadline timestamp that the permit is valid",
          "onBehalfOf": "The address that will receive the aTokens, same as msg.sender if the user   wants to receive them on his own wallet, or a different address if the beneficiary of aTokens   is a different wallet",
          "permitR": "The R parameter of ERC712 permit sig",
          "permitS": "The S parameter of ERC712 permit sig",
          "permitV": "The V parameter of ERC712 permit sig",
          "referralCode": "Code used to register the integrator originating the operation, for potential rewards.   0 if the action is executed directly by the user, without any middle-man"
        }
      },
      "swapBorrowRateMode(address,uint256)": {
        "params": {
          "asset": "The address of the underlying asset borrowed",
          "interestRateMode": "The current interest rate mode of the position being swapped: 1 for Stable, 2 for Variable"
        }
      },
      "updateBridgeProtocolFee(uint256)": {
        "params": {
          "bridgeProtocolFee": "The part of the premium sent to the protocol treasury"
        }
      },
      "updateFlashloanPremiums(uint128,uint128)": {
        "details": "The total premium is calculated on the total borrowed amountThe premium to protocol is calculated on the total premium, being a percentage of `flashLoanPremiumTotal`Only callable by the PoolConfigurator contract",
        "params": {
          "flashLoanPremiumToProtocol": "The part of the premium sent to the protocol treasury, expressed in bps",
          "flashLoanPremiumTotal": "The total premium, expressed in bps"
        }
      },
      "withdraw(address,uint256,address)": {
        "params": {
          "amount": "The underlying amount to be withdrawn   - Send the value type(uint256).max in order to withdraw the whole aToken balance",
          "asset": "The address of the underlying asset to withdraw",
          "to": "The address that will receive the underlying, same as msg.sender if the user   wants to receive it on his own wallet, or a different address if the beneficiary is a   different wallet"
        },
        "returns": {
          "_0": "The final amount withdrawn"
        }
      }
    },
    "stateVariables": {
      "ADDRESSES_PROVIDER": {
        "return": "The address of the PoolAddressesProvider",
        "returns": {
          "_0": "The address of the PoolAddressesProvider"
        }
      },
      "BLAST": {
        "return": "The address of the BLAST",
        "returns": {
          "_0": "The address of the BLAST"
        }
      }
    },
    "title": "Pool contract",
    "version": 1
  },
  "userdoc": {
    "kind": "user",
    "methods": {
      "ADDRESSES_PROVIDER()": {
        "notice": "Returns the PoolAddressesProvider connected to this contract"
      },
      "BLAST()": {
        "notice": "Returns the BLAST connected to this contract"
      },
      "BRIDGE_PROTOCOL_FEE()": {
        "notice": "Returns the part of the bridge fees sent to protocol"
      },
      "FLASHLOAN_PREMIUM_TOTAL()": {
        "notice": "Returns the total fee on flash loans"
      },
      "FLASHLOAN_PREMIUM_TO_PROTOCOL()": {
        "notice": "Returns the part of the flashloan fees sent to protocol"
      },
      "MAX_NUMBER_RESERVES()": {
        "notice": "Returns the maximum number of reserves supported to be listed in this Pool"
      },
      "MAX_STABLE_RATE_BORROW_SIZE_PERCENT()": {
        "notice": "Returns the percentage of available liquidity that can be borrowed at once at stable rate"
      },
      "backUnbacked(address,uint256,uint256)": {
        "notice": "Back the current unbacked underlying with `amount` and pay `fee`."
      },
      "borrow(address,uint256,uint256,uint16,address)": {
        "notice": "Allows users to borrow a specific `amount` of the reserve underlying asset, provided that the borrower already supplied enough collateral, or he was given enough allowance by a credit delegator on the corresponding debt token (StableDebtToken or VariableDebtToken) - E.g. User borrows 100 USDC passing as `onBehalfOf` his own address, receiving the 100 USDC in his wallet   and 100 stable/variable debt tokens, depending on the `interestRateMode`"
      },
      "configureEModeCategory(uint8,(uint16,uint16,uint16,address,string))": {
        "notice": "Configures a new category for the eMode."
      },
      "deposit(address,uint256,address,uint16)": {
        "notice": "Supplies an `amount` of underlying asset into the reserve, receiving in return overlying aTokens. - E.g. User supplies 100 USDC and gets in return 100 aUSDC"
      },
      "dropReserve(address)": {
        "notice": "Drop a reserve"
      },
      "finalizeTransfer(address,address,address,uint256,uint256,uint256)": {
        "notice": "Validates and finalizes an aToken transfer"
      },
      "flashLoan(address,address[],uint256[],uint256[],address,bytes,uint16)": {
        "notice": "Allows smartcontracts to access the liquidity of the pool within one transaction, as long as the amount taken plus a fee is returned."
      },
      "flashLoanSimple(address,address,uint256,bytes,uint16)": {
        "notice": "Allows smartcontracts to access the liquidity of the pool within one transaction, as long as the amount taken plus a fee is returned."
      },
      "getConfiguration(address)": {
        "notice": "Returns the configuration of the reserve"
      },
      "getEModeCategoryData(uint8)": {
        "notice": "Returns the data of an eMode category"
      },
      "getReserveAddressById(uint16)": {
        "notice": "Returns the address of the underlying asset of a reserve by the reserve id as stored in the DataTypes.ReserveData struct"
      },
      "getReserveData(address)": {
        "notice": "Returns the state and configuration of the reserve"
      },
      "getReserveNormalizedIncome(address)": {
        "notice": "Returns the normalized income of the reserve"
      },
      "getReserveNormalizedVariableDebt(address)": {
        "notice": "Returns the normalized variable debt per unit of asset"
      },
      "getReservesList()": {
        "notice": "Returns the list of the underlying assets of all the initialized reserves"
      },
      "getUserAccountData(address)": {
        "notice": "Returns the user account data across all the reserves"
      },
      "getUserConfiguration(address)": {
        "notice": "Returns the configuration of the user across all the reserves"
      },
      "getUserEMode(address)": {
        "notice": "Returns the eMode the user is using"
      },
      "initReserve(address,address,address,address,address)": {
        "notice": "Initializes a reserve, activating it, assigning an aToken and debt tokens and an interest rate strategy"
      },
      "initialize(address)": {
        "notice": "Initializes the Pool."
      },
      "liquidationCall(address,address,address,uint256,bool)": {
        "notice": "Function to liquidate a non-healthy position collateral-wise, with Health Factor below 1 - The caller (liquidator) covers `debtToCover` amount of debt of the user getting liquidated, and receives   a proportionally amount of the `collateralAsset` plus a bonus to cover market risk"
      },
      "mintToTreasury(address[])": {
        "notice": "Mints the assets accrued through the reserve factor to the treasury in the form of aTokens"
      },
      "mintUnbacked(address,uint256,address,uint16)": {
        "notice": "Mints an `amount` of aTokens to the `onBehalfOf`"
      },
      "rebalanceStableBorrowRate(address,address)": {
        "notice": "Rebalances the stable interest rate of a user to the current stable rate defined on the reserve. - Users can be rebalanced if the following conditions are satisfied:     1. Usage ratio is above 95%     2. the current supply APY is below REBALANCE_UP_THRESHOLD * maxVariableBorrowRate, which means that too        much has been borrowed at a stable rate and suppliers are not earning enough"
      },
      "repay(address,uint256,uint256,address)": {
        "notice": "Repays a borrowed `amount` on a specific reserve, burning the equivalent debt tokens owned - E.g. User repays 100 USDC, burning 100 variable/stable debt tokens of the `onBehalfOf` address"
      },
      "repayWithATokens(address,uint256,uint256)": {
        "notice": "Repays a borrowed `amount` on a specific reserve using the reserve aTokens, burning the equivalent debt tokens - E.g. User repays 100 USDC using 100 aUSDC, burning 100 variable/stable debt tokens"
      },
      "repayWithPermit(address,uint256,uint256,address,uint256,uint8,bytes32,bytes32)": {
        "notice": "Repay with transfer approval of asset to be repaid done via permit function see: https://eips.ethereum.org/EIPS/eip-2612 and https://eips.ethereum.org/EIPS/eip-713"
      },
      "rescueTokens(address,address,uint256)": {
        "notice": "Rescue and transfer tokens locked in this contract"
      },
      "resetIsolationModeTotalDebt(address)": {
        "notice": "Resets the isolation mode total debt of the given asset to zero"
      },
      "setConfiguration(address,(uint256))": {
        "notice": "Sets the configuration bitmap of the reserve as a whole"
      },
      "setReserveInterestRateStrategyAddress(address,address)": {
        "notice": "Updates the address of the interest rate strategy contract"
      },
      "setUserEMode(uint8)": {
        "notice": "Allows a user to use the protocol in eMode"
      },
      "setUserUseReserveAsCollateral(address,bool)": {
        "notice": "Allows suppliers to enable/disable a specific supplied asset as collateral"
      },
      "supply(address,uint256,address,uint16)": {
        "notice": "Supplies an `amount` of underlying asset into the reserve, receiving in return overlying aTokens. - E.g. User supplies 100 USDC and gets in return 100 aUSDC"
      },
      "supplyWithPermit(address,uint256,address,uint16,uint256,uint8,bytes32,bytes32)": {
        "notice": "Supply with transfer approval of asset to be supplied done via permit function see: https://eips.ethereum.org/EIPS/eip-2612 and https://eips.ethereum.org/EIPS/eip-713"
      },
      "swapBorrowRateMode(address,uint256)": {
        "notice": "Allows a borrower to swap his debt between stable and variable mode, or vice versa"
      },
      "updateBridgeProtocolFee(uint256)": {
        "notice": "Updates the protocol fee on the bridging"
      },
      "updateFlashloanPremiums(uint128,uint128)": {
        "notice": "Updates flash loan premiums. Flash loan premium consists of two parts: - A part is sent to aToken holders as extra, one time accumulated interest - A part is collected by the protocol treasury"
      },
      "withdraw(address,uint256,address)": {
        "notice": "Withdraws an `amount` of underlying asset from the reserve, burning the equivalent aTokens owned E.g. User has 100 aUSDC, calls withdraw() and receives 100 USDC, burning the 100 aUSDC"
      }
    },
    "notice": "Main point of interaction with an Aave protocol's market - Users can:   # Supply   # Withdraw   # Borrow   # Repay   # Swap their loans between variable and stable rate   # Enable/disable their supplied assets as collateral rebalance stable rate borrow positions   # Liquidate positions   # Execute Flash Loans",
    "version": 1
  },
  "storageLayout": {
    "storage": [
      {
        "astId": 3448,
        "contract": "contracts/core-v3/contracts/protocol/pool/Pool.sol:Pool",
        "label": "lastInitializedRevision",
        "offset": 0,
        "slot": "0",
        "type": "t_uint256"
      },
      {
        "astId": 3451,
        "contract": "contracts/core-v3/contracts/protocol/pool/Pool.sol:Pool",
        "label": "initializing",
        "offset": 0,
        "slot": "1",
        "type": "t_bool"
      },
      {
        "astId": 3521,
        "contract": "contracts/core-v3/contracts/protocol/pool/Pool.sol:Pool",
        "label": "______gap",
        "offset": 0,
        "slot": "2",
        "type": "t_array(t_uint256)50_storage"
      },
      {
        "astId": 16391,
        "contract": "contracts/core-v3/contracts/protocol/pool/Pool.sol:Pool",
        "label": "_reserves",
        "offset": 0,
        "slot": "52",
        "type": "t_mapping(t_address,t_struct(ReserveData)14130_storage)"
      },
      {
        "astId": 16396,
        "contract": "contracts/core-v3/contracts/protocol/pool/Pool.sol:Pool",
        "label": "_usersConfig",
        "offset": 0,
        "slot": "53",
        "type": "t_mapping(t_address,t_struct(UserConfigurationMap)14137_storage)"
      },
      {
        "astId": 16400,
        "contract": "contracts/core-v3/contracts/protocol/pool/Pool.sol:Pool",
        "label": "_reservesList",
        "offset": 0,
        "slot": "54",
        "type": "t_mapping(t_uint256,t_address)"
      },
      {
        "astId": 16405,
        "contract": "contracts/core-v3/contracts/protocol/pool/Pool.sol:Pool",
        "label": "_eModeCategories",
        "offset": 0,
        "slot": "55",
        "type": "t_mapping(t_uint8,t_struct(EModeCategory)14148_storage)"
      },
      {
        "astId": 16409,
        "contract": "contracts/core-v3/contracts/protocol/pool/Pool.sol:Pool",
        "label": "_usersEModeCategory",
        "offset": 0,
        "slot": "56",
        "type": "t_mapping(t_address,t_uint8)"
      },
      {
        "astId": 16411,
        "contract": "contracts/core-v3/contracts/protocol/pool/Pool.sol:Pool",
        "label": "_bridgeProtocolFee",
        "offset": 0,
        "slot": "57",
        "type": "t_uint256"
      },
      {
        "astId": 16413,
        "contract": "contracts/core-v3/contracts/protocol/pool/Pool.sol:Pool",
        "label": "_flashLoanPremiumTotal",
        "offset": 0,
        "slot": "58",
        "type": "t_uint128"
      },
      {
        "astId": 16415,
        "contract": "contracts/core-v3/contracts/protocol/pool/Pool.sol:Pool",
        "label": "_flashLoanPremiumToProtocol",
        "offset": 16,
        "slot": "58",
        "type": "t_uint128"
      },
      {
        "astId": 16417,
        "contract": "contracts/core-v3/contracts/protocol/pool/Pool.sol:Pool",
        "label": "_maxStableRateBorrowSizePercent",
        "offset": 0,
        "slot": "59",
        "type": "t_uint64"
      },
      {
        "astId": 16419,
        "contract": "contracts/core-v3/contracts/protocol/pool/Pool.sol:Pool",
        "label": "_reservesCount",
        "offset": 8,
        "slot": "59",
        "type": "t_uint16"
      }
    ],
    "types": {
      "t_address": {
        "encoding": "inplace",
        "label": "address",
        "numberOfBytes": "20"
      },
      "t_array(t_uint256)50_storage": {
        "base": "t_uint256",
        "encoding": "inplace",
        "label": "uint256[50]",
        "numberOfBytes": "1600"
      },
      "t_bool": {
        "encoding": "inplace",
        "label": "bool",
        "numberOfBytes": "1"
      },
      "t_mapping(t_address,t_struct(ReserveData)14130_storage)": {
        "encoding": "mapping",
        "key": "t_address",
        "label": "mapping(address => struct DataTypes.ReserveData)",
        "numberOfBytes": "32",
        "value": "t_struct(ReserveData)14130_storage"
      },
      "t_mapping(t_address,t_struct(UserConfigurationMap)14137_storage)": {
        "encoding": "mapping",
        "key": "t_address",
        "label": "mapping(address => struct DataTypes.UserConfigurationMap)",
        "numberOfBytes": "32",
        "value": "t_struct(UserConfigurationMap)14137_storage"
      },
      "t_mapping(t_address,t_uint8)": {
        "encoding": "mapping",
        "key": "t_address",
        "label": "mapping(address => uint8)",
        "numberOfBytes": "32",
        "value": "t_uint8"
      },
      "t_mapping(t_uint256,t_address)": {
        "encoding": "mapping",
        "key": "t_uint256",
        "label": "mapping(uint256 => address)",
        "numberOfBytes": "32",
        "value": "t_address"
      },
      "t_mapping(t_uint8,t_struct(EModeCategory)14148_storage)": {
        "encoding": "mapping",
        "key": "t_uint8",
        "label": "mapping(uint8 => struct DataTypes.EModeCategory)",
        "numberOfBytes": "32",
        "value": "t_struct(EModeCategory)14148_storage"
      },
      "t_string_storage": {
        "encoding": "bytes",
        "label": "string",
        "numberOfBytes": "32"
      },
      "t_struct(EModeCategory)14148_storage": {
        "encoding": "inplace",
        "label": "struct DataTypes.EModeCategory",
        "members": [
          {
            "astId": 14139,
            "contract": "contracts/core-v3/contracts/protocol/pool/Pool.sol:Pool",
            "label": "ltv",
            "offset": 0,
            "slot": "0",
            "type": "t_uint16"
          },
          {
            "astId": 14141,
            "contract": "contracts/core-v3/contracts/protocol/pool/Pool.sol:Pool",
            "label": "liquidationThreshold",
            "offset": 2,
            "slot": "0",
            "type": "t_uint16"
          },
          {
            "astId": 14143,
            "contract": "contracts/core-v3/contracts/protocol/pool/Pool.sol:Pool",
            "label": "liquidationBonus",
            "offset": 4,
            "slot": "0",
            "type": "t_uint16"
          },
          {
            "astId": 14145,
            "contract": "contracts/core-v3/contracts/protocol/pool/Pool.sol:Pool",
            "label": "priceSource",
            "offset": 6,
            "slot": "0",
            "type": "t_address"
          },
          {
            "astId": 14147,
            "contract": "contracts/core-v3/contracts/protocol/pool/Pool.sol:Pool",
            "label": "label",
            "offset": 0,
            "slot": "1",
            "type": "t_string_storage"
          }
        ],
        "numberOfBytes": "64"
      },
      "t_struct(ReserveConfigurationMap)14133_storage": {
        "encoding": "inplace",
        "label": "struct DataTypes.ReserveConfigurationMap",
        "members": [
          {
            "astId": 14132,
            "contract": "contracts/core-v3/contracts/protocol/pool/Pool.sol:Pool",
            "label": "data",
            "offset": 0,
            "slot": "0",
            "type": "t_uint256"
          }
        ],
        "numberOfBytes": "32"
      },
      "t_struct(ReserveData)14130_storage": {
        "encoding": "inplace",
        "label": "struct DataTypes.ReserveData",
        "members": [
          {
            "astId": 14101,
            "contract": "contracts/core-v3/contracts/protocol/pool/Pool.sol:Pool",
            "label": "configuration",
            "offset": 0,
            "slot": "0",
            "type": "t_struct(ReserveConfigurationMap)14133_storage"
          },
          {
            "astId": 14103,
            "contract": "contracts/core-v3/contracts/protocol/pool/Pool.sol:Pool",
            "label": "liquidityIndex",
            "offset": 0,
            "slot": "1",
            "type": "t_uint128"
          },
          {
            "astId": 14105,
            "contract": "contracts/core-v3/contracts/protocol/pool/Pool.sol:Pool",
            "label": "currentLiquidityRate",
            "offset": 16,
            "slot": "1",
            "type": "t_uint128"
          },
          {
            "astId": 14107,
            "contract": "contracts/core-v3/contracts/protocol/pool/Pool.sol:Pool",
            "label": "variableBorrowIndex",
            "offset": 0,
            "slot": "2",
            "type": "t_uint128"
          },
          {
            "astId": 14109,
            "contract": "contracts/core-v3/contracts/protocol/pool/Pool.sol:Pool",
            "label": "currentVariableBorrowRate",
            "offset": 16,
            "slot": "2",
            "type": "t_uint128"
          },
          {
            "astId": 14111,
            "contract": "contracts/core-v3/contracts/protocol/pool/Pool.sol:Pool",
            "label": "currentStableBorrowRate",
            "offset": 0,
            "slot": "3",
            "type": "t_uint128"
          },
          {
            "astId": 14113,
            "contract": "contracts/core-v3/contracts/protocol/pool/Pool.sol:Pool",
            "label": "lastUpdateTimestamp",
            "offset": 16,
            "slot": "3",
            "type": "t_uint40"
          },
          {
            "astId": 14115,
            "contract": "contracts/core-v3/contracts/protocol/pool/Pool.sol:Pool",
            "label": "id",
            "offset": 21,
            "slot": "3",
            "type": "t_uint16"
          },
          {
            "astId": 14117,
            "contract": "contracts/core-v3/contracts/protocol/pool/Pool.sol:Pool",
            "label": "aTokenAddress",
            "offset": 0,
            "slot": "4",
            "type": "t_address"
          },
          {
            "astId": 14119,
            "contract": "contracts/core-v3/contracts/protocol/pool/Pool.sol:Pool",
            "label": "stableDebtTokenAddress",
            "offset": 0,
            "slot": "5",
            "type": "t_address"
          },
          {
            "astId": 14121,
            "contract": "contracts/core-v3/contracts/protocol/pool/Pool.sol:Pool",
            "label": "variableDebtTokenAddress",
            "offset": 0,
            "slot": "6",
            "type": "t_address"
          },
          {
            "astId": 14123,
            "contract": "contracts/core-v3/contracts/protocol/pool/Pool.sol:Pool",
            "label": "interestRateStrategyAddress",
            "offset": 0,
            "slot": "7",
            "type": "t_address"
          },
          {
            "astId": 14125,
            "contract": "contracts/core-v3/contracts/protocol/pool/Pool.sol:Pool",
            "label": "accruedToTreasury",
            "offset": 0,
            "slot": "8",
            "type": "t_uint128"
          },
          {
            "astId": 14127,
            "contract": "contracts/core-v3/contracts/protocol/pool/Pool.sol:Pool",
            "label": "unbacked",
            "offset": 16,
            "slot": "8",
            "type": "t_uint128"
          },
          {
            "astId": 14129,
            "contract": "contracts/core-v3/contracts/protocol/pool/Pool.sol:Pool",
            "label": "isolationModeTotalDebt",
            "offset": 0,
            "slot": "9",
            "type": "t_uint128"
          }
        ],
        "numberOfBytes": "320"
      },
      "t_struct(UserConfigurationMap)14137_storage": {
        "encoding": "inplace",
        "label": "struct DataTypes.UserConfigurationMap",
        "members": [
          {
            "astId": 14136,
            "contract": "contracts/core-v3/contracts/protocol/pool/Pool.sol:Pool",
            "label": "data",
            "offset": 0,
            "slot": "0",
            "type": "t_uint256"
          }
        ],
        "numberOfBytes": "32"
      },
      "t_uint128": {
        "encoding": "inplace",
        "label": "uint128",
        "numberOfBytes": "16"
      },
      "t_uint16": {
        "encoding": "inplace",
        "label": "uint16",
        "numberOfBytes": "2"
      },
      "t_uint256": {
        "encoding": "inplace",
        "label": "uint256",
        "numberOfBytes": "32"
      },
      "t_uint40": {
        "encoding": "inplace",
        "label": "uint40",
        "numberOfBytes": "5"
      },
      "t_uint64": {
        "encoding": "inplace",
        "label": "uint64",
        "numberOfBytes": "8"
      },
      "t_uint8": {
        "encoding": "inplace",
        "label": "uint8",
        "numberOfBytes": "1"
      }
    }
  }
}