{
  "address": "0x753d4EE2e003170aeB9B51f23be4ed2B626aAF1c",
  "abi": [
    {
      "inputs": [
        {
          "internalType": "int256",
          "name": "initialAnswer",
          "type": "int256"
        }
      ],
      "stateMutability": "nonpayable",
      "type": "constructor"
    },
    {
      "anonymous": false,
      "inputs": [
        {
          "indexed": true,
          "internalType": "int256",
          "name": "current",
          "type": "int256"
        },
        {
          "indexed": true,
          "internalType": "uint256",
          "name": "roundId",
          "type": "uint256"
        },
        {
          "indexed": false,
          "internalType": "uint256",
          "name": "updatedAt",
          "type": "uint256"
        }
      ],
      "name": "AnswerUpdated",
      "type": "event"
    },
    {
      "inputs": [],
      "name": "decimals",
      "outputs": [
        {
          "internalType": "uint8",
          "name": "",
          "type": "uint8"
        }
      ],
      "stateMutability": "pure",
      "type": "function"
    },
    {
      "inputs": [],
      "name": "getTokenType",
      "outputs": [
        {
          "internalType": "uint256",
          "name": "",
          "type": "uint256"
        }
      ],
      "stateMutability": "pure",
      "type": "function"
    },
    {
      "inputs": [],
      "name": "latestAnswer",
      "outputs": [
        {
          "internalType": "int256",
          "name": "",
          "type": "int256"
        }
      ],
      "stateMutability": "view",
      "type": "function"
    }
  ],
  "transactionHash": "0x8676028f7b022797e42a23ee7f96ef4dc3330183249bf85778743412728f7771",
  "args": [
    "1000000000"
  ],
  "numDeployments": 1,
  "solcInputHash": "ddaa5176eac01a9fd1c76d5a749bed09",
  "bytecode": "0x608060405234801561001057600080fd5b5060405161013838038061013883398101604081905261002f9161006f565b600081815560405142815282907f0559884fd3a460db3073b7fc896cc77986f16e378210ded43186175bf646fc5f9060200160405180910390a350610088565b60006020828403121561008157600080fd5b5051919050565b60a2806100966000396000f3fe6080604052348015600f57600080fd5b5060043610603c5760003560e01c8063313ce56714604157806350d25bcd146055578063fcab1819146066575b600080fd5b604051600881526020015b60405180910390f35b6000545b604051908152602001604c565b6001605956fea26469706673582212205a24a23f783f956b328ab8fb9ceb866bc41e2244c6f149ef626f097a9c0a012d64736f6c634300080a0033",
  "devdoc": {
    "kind": "dev",
    "methods": {},
    "version": 1
  },
  "userdoc": {
    "kind": "user",
    "methods": {},
    "version": 1
  },
  "storageLayout": {
    "storage": [
      {
        "astId": 12398,
        "contract": "contracts/core-v3/contracts/mocks/oracle/CLAggregators/MockAggregator.sol:MockAggregator",
        "label": "_latestAnswer",
        "offset": 0,
        "slot": "0",
        "type": "t_int256"
      }
    ],
    "types": {
      "t_int256": {
        "encoding": "inplace",
        "label": "int256",
        "numberOfBytes": "32"
      }
    }
  }
}