{
  "address": "0xE100Cf28873c9215D561C2b36DAF642002ec284A",
  "abi": [
    {
      "inputs": [
        {
          "internalType": "contract IPool",
          "name": "pool",
          "type": "address"
        }
      ],
      "stateMutability": "nonpayable",
      "type": "constructor"
    },
    {
      "anonymous": false,
      "inputs": [
        {
          "indexed": true,
          "internalType": "address",
          "name": "owner",
          "type": "address"
        },
        {
          "indexed": true,
          "internalType": "address",
          "name": "spender",
          "type": "address"
        },
        {
          "indexed": false,
          "internalType": "uint256",
          "name": "value",
          "type": "uint256"
        }
      ],
      "name": "Approval",
      "type": "event"
    },
    {
      "anonymous": false,
      "inputs": [
        {
          "indexed": true,
          "internalType": "address",
          "name": "fromUser",
          "type": "address"
        },
        {
          "indexed": true,
          "internalType": "address",
          "name": "toUser",
          "type": "address"
        },
        {
          "indexed": true,
          "internalType": "address",
          "name": "asset",
          "type": "address"
        },
        {
          "indexed": false,
          "internalType": "uint256",
          "name": "amount",
          "type": "uint256"
        }
      ],
      "name": "BorrowAllowanceDelegated",
      "type": "event"
    },
    {
      "anonymous": false,
      "inputs": [
        {
          "indexed": true,
          "internalType": "address",
          "name": "from",
          "type": "address"
        },
        {
          "indexed": true,
          "internalType": "address",
          "name": "target",
          "type": "address"
        },
        {
          "indexed": false,
          "internalType": "uint256",
          "name": "value",
          "type": "uint256"
        },
        {
          "indexed": false,
          "internalType": "uint256",
          "name": "balanceIncrease",
          "type": "uint256"
        },
        {
          "indexed": false,
          "internalType": "uint256",
          "name": "index",
          "type": "uint256"
        }
      ],
      "name": "Burn",
      "type": "event"
    },
    {
      "anonymous": false,
      "inputs": [
        {
          "indexed": true,
          "internalType": "address",
          "name": "underlyingAsset",
          "type": "address"
        },
        {
          "indexed": true,
          "internalType": "address",
          "name": "pool",
          "type": "address"
        },
        {
          "indexed": false,
          "internalType": "address",
          "name": "incentivesController",
          "type": "address"
        },
        {
          "indexed": false,
          "internalType": "uint8",
          "name": "debtTokenDecimals",
          "type": "uint8"
        },
        {
          "indexed": false,
          "internalType": "string",
          "name": "debtTokenName",
          "type": "string"
        },
        {
          "indexed": false,
          "internalType": "string",
          "name": "debtTokenSymbol",
          "type": "string"
        },
        {
          "indexed": false,
          "internalType": "bytes",
          "name": "params",
          "type": "bytes"
        }
      ],
      "name": "Initialized",
      "type": "event"
    },
    {
      "anonymous": false,
      "inputs": [
        {
          "indexed": true,
          "internalType": "address",
          "name": "caller",
          "type": "address"
        },
        {
          "indexed": true,
          "internalType": "address",
          "name": "onBehalfOf",
          "type": "address"
        },
        {
          "indexed": false,
          "internalType": "uint256",
          "name": "value",
          "type": "uint256"
        },
        {
          "indexed": false,
          "internalType": "uint256",
          "name": "balanceIncrease",
          "type": "uint256"
        },
        {
          "indexed": false,
          "internalType": "uint256",
          "name": "index",
          "type": "uint256"
        }
      ],
      "name": "Mint",
      "type": "event"
    },
    {
      "anonymous": false,
      "inputs": [
        {
          "indexed": true,
          "internalType": "address",
          "name": "from",
          "type": "address"
        },
        {
          "indexed": true,
          "internalType": "address",
          "name": "to",
          "type": "address"
        },
        {
          "indexed": false,
          "internalType": "uint256",
          "name": "value",
          "type": "uint256"
        }
      ],
      "name": "Transfer",
      "type": "event"
    },
    {
      "inputs": [],
      "name": "BLAST",
      "outputs": [
        {
          "internalType": "address",
          "name": "",
          "type": "address"
        }
      ],
      "stateMutability": "view",
      "type": "function"
    },
    {
      "inputs": [],
      "name": "DEBT_TOKEN_REVISION",
      "outputs": [
        {
          "internalType": "uint256",
          "name": "",
          "type": "uint256"
        }
      ],
      "stateMutability": "view",
      "type": "function"
    },
    {
      "inputs": [],
      "name": "DELEGATION_WITH_SIG_TYPEHASH",
      "outputs": [
        {
          "internalType": "bytes32",
          "name": "",
          "type": "bytes32"
        }
      ],
      "stateMutability": "view",
      "type": "function"
    },
    {
      "inputs": [],
      "name": "DOMAIN_SEPARATOR",
      "outputs": [
        {
          "internalType": "bytes32",
          "name": "",
          "type": "bytes32"
        }
      ],
      "stateMutability": "view",
      "type": "function"
    },
    {
      "inputs": [],
      "name": "EIP712_REVISION",
      "outputs": [
        {
          "internalType": "bytes",
          "name": "",
          "type": "bytes"
        }
      ],
      "stateMutability": "view",
      "type": "function"
    },
    {
      "inputs": [],
      "name": "POOL",
      "outputs": [
        {
          "internalType": "contract IPool",
          "name": "",
          "type": "address"
        }
      ],
      "stateMutability": "view",
      "type": "function"
    },
    {
      "inputs": [],
      "name": "UNDERLYING_ASSET_ADDRESS",
      "outputs": [
        {
          "internalType": "address",
          "name": "",
          "type": "address"
        }
      ],
      "stateMutability": "view",
      "type": "function"
    },
    {
      "inputs": [
        {
          "internalType": "address",
          "name": "",
          "type": "address"
        },
        {
          "internalType": "address",
          "name": "",
          "type": "address"
        }
      ],
      "name": "allowance",
      "outputs": [
        {
          "internalType": "uint256",
          "name": "",
          "type": "uint256"
        }
      ],
      "stateMutability": "view",
      "type": "function"
    },
    {
      "inputs": [
        {
          "internalType": "address",
          "name": "",
          "type": "address"
        },
        {
          "internalType": "uint256",
          "name": "",
          "type": "uint256"
        }
      ],
      "name": "approve",
      "outputs": [
        {
          "internalType": "bool",
          "name": "",
          "type": "bool"
        }
      ],
      "stateMutability": "nonpayable",
      "type": "function"
    },
    {
      "inputs": [
        {
          "internalType": "address",
          "name": "delegatee",
          "type": "address"
        },
        {
          "internalType": "uint256",
          "name": "amount",
          "type": "uint256"
        }
      ],
      "name": "approveDelegation",
      "outputs": [],
      "stateMutability": "nonpayable",
      "type": "function"
    },
    {
      "inputs": [
        {
          "internalType": "address",
          "name": "user",
          "type": "address"
        }
      ],
      "name": "balanceOf",
      "outputs": [
        {
          "internalType": "uint256",
          "name": "",
          "type": "uint256"
        }
      ],
      "stateMutability": "view",
      "type": "function"
    },
    {
      "inputs": [
        {
          "internalType": "address",
          "name": "fromUser",
          "type": "address"
        },
        {
          "internalType": "address",
          "name": "toUser",
          "type": "address"
        }
      ],
      "name": "borrowAllowance",
      "outputs": [
        {
          "internalType": "uint256",
          "name": "",
          "type": "uint256"
        }
      ],
      "stateMutability": "view",
      "type": "function"
    },
    {
      "inputs": [
        {
          "internalType": "address",
          "name": "from",
          "type": "address"
        },
        {
          "internalType": "uint256",
          "name": "amount",
          "type": "uint256"
        },
        {
          "internalType": "uint256",
          "name": "index",
          "type": "uint256"
        }
      ],
      "name": "burn",
      "outputs": [
        {
          "internalType": "uint256",
          "name": "",
          "type": "uint256"
        }
      ],
      "stateMutability": "nonpayable",
      "type": "function"
    },
    {
      "inputs": [
        {
          "internalType": "address",
          "name": "recipient",
          "type": "address"
        }
      ],
      "name": "claimRefundedGas",
      "outputs": [],
      "stateMutability": "nonpayable",
      "type": "function"
    },
    {
      "inputs": [],
      "name": "decimals",
      "outputs": [
        {
          "internalType": "uint8",
          "name": "",
          "type": "uint8"
        }
      ],
      "stateMutability": "view",
      "type": "function"
    },
    {
      "inputs": [
        {
          "internalType": "address",
          "name": "",
          "type": "address"
        },
        {
          "internalType": "uint256",
          "name": "",
          "type": "uint256"
        }
      ],
      "name": "decreaseAllowance",
      "outputs": [
        {
          "internalType": "bool",
          "name": "",
          "type": "bool"
        }
      ],
      "stateMutability": "nonpayable",
      "type": "function"
    },
    {
      "inputs": [
        {
          "internalType": "address",
          "name": "delegator",
          "type": "address"
        },
        {
          "internalType": "address",
          "name": "delegatee",
          "type": "address"
        },
        {
          "internalType": "uint256",
          "name": "value",
          "type": "uint256"
        },
        {
          "internalType": "uint256",
          "name": "deadline",
          "type": "uint256"
        },
        {
          "internalType": "uint8",
          "name": "v",
          "type": "uint8"
        },
        {
          "internalType": "bytes32",
          "name": "r",
          "type": "bytes32"
        },
        {
          "internalType": "bytes32",
          "name": "s",
          "type": "bytes32"
        }
      ],
      "name": "delegationWithSig",
      "outputs": [],
      "stateMutability": "nonpayable",
      "type": "function"
    },
    {
      "inputs": [],
      "name": "getIncentivesController",
      "outputs": [
        {
          "internalType": "contract IAaveIncentivesController",
          "name": "",
          "type": "address"
        }
      ],
      "stateMutability": "view",
      "type": "function"
    },
    {
      "inputs": [
        {
          "internalType": "address",
          "name": "user",
          "type": "address"
        }
      ],
      "name": "getPreviousIndex",
      "outputs": [
        {
          "internalType": "uint256",
          "name": "",
          "type": "uint256"
        }
      ],
      "stateMutability": "view",
      "type": "function"
    },
    {
      "inputs": [
        {
          "internalType": "address",
          "name": "user",
          "type": "address"
        }
      ],
      "name": "getScaledUserBalanceAndSupply",
      "outputs": [
        {
          "internalType": "uint256",
          "name": "",
          "type": "uint256"
        },
        {
          "internalType": "uint256",
          "name": "",
          "type": "uint256"
        }
      ],
      "stateMutability": "view",
      "type": "function"
    },
    {
      "inputs": [
        {
          "internalType": "address",
          "name": "",
          "type": "address"
        },
        {
          "internalType": "uint256",
          "name": "",
          "type": "uint256"
        }
      ],
      "name": "increaseAllowance",
      "outputs": [
        {
          "internalType": "bool",
          "name": "",
          "type": "bool"
        }
      ],
      "stateMutability": "nonpayable",
      "type": "function"
    },
    {
      "inputs": [
        {
          "internalType": "contract IPool",
          "name": "initializingPool",
          "type": "address"
        },
        {
          "internalType": "address",
          "name": "underlyingAsset",
          "type": "address"
        },
        {
          "internalType": "contract IAaveIncentivesController",
          "name": "incentivesController",
          "type": "address"
        },
        {
          "internalType": "uint8",
          "name": "debtTokenDecimals",
          "type": "uint8"
        },
        {
          "internalType": "string",
          "name": "debtTokenName",
          "type": "string"
        },
        {
          "internalType": "string",
          "name": "debtTokenSymbol",
          "type": "string"
        },
        {
          "internalType": "bytes",
          "name": "params",
          "type": "bytes"
        }
      ],
      "name": "initialize",
      "outputs": [],
      "stateMutability": "nonpayable",
      "type": "function"
    },
    {
      "inputs": [
        {
          "internalType": "address",
          "name": "user",
          "type": "address"
        },
        {
          "internalType": "address",
          "name": "onBehalfOf",
          "type": "address"
        },
        {
          "internalType": "uint256",
          "name": "amount",
          "type": "uint256"
        },
        {
          "internalType": "uint256",
          "name": "index",
          "type": "uint256"
        }
      ],
      "name": "mint",
      "outputs": [
        {
          "internalType": "bool",
          "name": "",
          "type": "bool"
        },
        {
          "internalType": "uint256",
          "name": "",
          "type": "uint256"
        }
      ],
      "stateMutability": "nonpayable",
      "type": "function"
    },
    {
      "inputs": [],
      "name": "name",
      "outputs": [
        {
          "internalType": "string",
          "name": "",
          "type": "string"
        }
      ],
      "stateMutability": "view",
      "type": "function"
    },
    {
      "inputs": [
        {
          "internalType": "address",
          "name": "owner",
          "type": "address"
        }
      ],
      "name": "nonces",
      "outputs": [
        {
          "internalType": "uint256",
          "name": "",
          "type": "uint256"
        }
      ],
      "stateMutability": "view",
      "type": "function"
    },
    {
      "inputs": [
        {
          "internalType": "address",
          "name": "user",
          "type": "address"
        }
      ],
      "name": "scaledBalanceOf",
      "outputs": [
        {
          "internalType": "uint256",
          "name": "",
          "type": "uint256"
        }
      ],
      "stateMutability": "view",
      "type": "function"
    },
    {
      "inputs": [],
      "name": "scaledTotalSupply",
      "outputs": [
        {
          "internalType": "uint256",
          "name": "",
          "type": "uint256"
        }
      ],
      "stateMutability": "view",
      "type": "function"
    },
    {
      "inputs": [
        {
          "internalType": "contract IAaveIncentivesController",
          "name": "controller",
          "type": "address"
        }
      ],
      "name": "setIncentivesController",
      "outputs": [],
      "stateMutability": "nonpayable",
      "type": "function"
    },
    {
      "inputs": [],
      "name": "symbol",
      "outputs": [
        {
          "internalType": "string",
          "name": "",
          "type": "string"
        }
      ],
      "stateMutability": "view",
      "type": "function"
    },
    {
      "inputs": [],
      "name": "totalSupply",
      "outputs": [
        {
          "internalType": "uint256",
          "name": "",
          "type": "uint256"
        }
      ],
      "stateMutability": "view",
      "type": "function"
    },
    {
      "inputs": [
        {
          "internalType": "address",
          "name": "",
          "type": "address"
        },
        {
          "internalType": "uint256",
          "name": "",
          "type": "uint256"
        }
      ],
      "name": "transfer",
      "outputs": [
        {
          "internalType": "bool",
          "name": "",
          "type": "bool"
        }
      ],
      "stateMutability": "nonpayable",
      "type": "function"
    },
    {
      "inputs": [
        {
          "internalType": "address",
          "name": "",
          "type": "address"
        },
        {
          "internalType": "address",
          "name": "",
          "type": "address"
        },
        {
          "internalType": "uint256",
          "name": "",
          "type": "uint256"
        }
      ],
      "name": "transferFrom",
      "outputs": [
        {
          "internalType": "bool",
          "name": "",
          "type": "bool"
        }
      ],
      "stateMutability": "nonpayable",
      "type": "function"
    }
  ],
  "numDeployments": 1,
  "solcInputHash": "ee5ebf5b7d0af79e6c27cf939545d10c",
  "bytecode": "0x610100604052600080553480156200001657600080fd5b5060405162002ac138038062002ac18339810160408190526200003991620002bb565b806040518060400160405280601881526020017f5641524941424c455f444542545f544f4b454e5f494d504c00000000000000008152506040518060400160405280601881526020017f5641524941424c455f444542545f544f4b454e5f494d504c0000000000000000815250600083838383838383834660808181525050836001600160a01b0316630542975c6040518163ffffffff1660e01b8152600401602060405180830381865afa158015620000f7573d6000803e3d6000fd5b505050506040513d601f19601f820116820180604052508101906200011d9190620002bb565b6001600160a01b031660a05282516200013e90603b906020860190620001fc565b5081516200015490603c906020850190620001fc565b50603d805460ff191660ff9290921691909117905550506001600160a01b0390811660c05260408051634bebabbb60e11b81529051918b1699506397d75776985060048082019850602097509195508590030192508391508790505afa158015620001c3573d6000803e3d6000fd5b505050506040513d601f19601f82011682018060405250810190620001e99190620002bb565b6001600160a01b031660e052506200031f565b8280546200020a90620002e2565b90600052602060002090601f0160209004810192826200022e576000855562000279565b82601f106200024957805160ff191683800117855562000279565b8280016001018555821562000279579182015b82811115620002795782518255916020019190600101906200025c565b50620002879291506200028b565b5090565b5b808211156200028757600081556001016200028c565b6001600160a01b0381168114620002b857600080fd5b50565b600060208284031215620002ce57600080fd5b8151620002db81620002a2565b9392505050565b600181811c90821680620002f757607f821691505b602082108114156200031957634e487b7160e01b600052602260045260246000fd5b50919050565b60805160a05160c05160e0516127226200039f6000396000818161049001528181610bf40152818161111701526111530152600081816103a701528181610a8901528181610b3b01528181610d3001528181610dff01528181610fbf015281816111d401526114b4015260006112a001526000610c6901526127226000f3fe608060405234801561001057600080fd5b50600436106101f05760003560e01c80637ecebe001161010f578063b9a7b622116100a2578063e075398611610071578063e07539861461053e578063e655dbd81461059a578063f3bfc738146105ad578063f5298aca146105d457600080fd5b8063b9a7b62214610502578063c04a8a101461050a578063c222ec8a1461051d578063dd62ed3e1461053057600080fd5b8063a9059cbb116100de578063a9059cbb14610213578063b16a19de146104b2578063b1bf962d146104d0578063b3f1c93d146104d857600080fd5b80637ecebe001461044d57806395d89b411461048357806397d757761461048b578063a457c2d71461021357600080fd5b8063313ce5671161018757806370a082311161015657806370a082311461038f5780637535d246146103a257806375d26413146103ee578063781603761461041157600080fd5b8063313ce5671461032c5780633644e5151461034157806339509351146102135780636bd76d241461034957600080fd5b806318160ddd116101c357806318160ddd146102ad5780631da24f3e146102c357806323b872dd1461030b5780632cca1cdf1461031957600080fd5b806306fdde03146101f5578063095ea7b3146102135780630afbcdc9146102365780630b52d55814610298575b600080fd5b6101fd6105e7565b60405161020a91906120e0565b60405180910390f35b610226610221366004612128565b610679565b604051901515815260200161020a565b610283610244366004612154565b73ffffffffffffffffffffffffffffffffffffffff16600090815260386020526040902054603a546fffffffffffffffffffffffffffffffff90911691565b6040805192835260208301919091520161020a565b6102ab6102a6366004612182565b6106e9565b005b6102b5610a3a565b60405190815260200161020a565b6102b56102d1366004612154565b73ffffffffffffffffffffffffffffffffffffffff166000908152603860205260409020546fffffffffffffffffffffffffffffffff1690565b6102266102213660046121f0565b6102ab610327366004612154565b610b04565b603d5460405160ff909116815260200161020a565b6102b5610c65565b6102b5610357366004612231565b73ffffffffffffffffffffffffffffffffffffffff918216600090815260366020908152604080832093909416825291909152205490565b6102b561039d366004612154565b610c9e565b6103c97f000000000000000000000000000000000000000000000000000000000000000081565b60405173ffffffffffffffffffffffffffffffffffffffff909116815260200161020a565b603d54610100900473ffffffffffffffffffffffffffffffffffffffff166103c9565b6101fd6040518060400160405280600181526020017f310000000000000000000000000000000000000000000000000000000000000081525081565b6102b561045b366004612154565b73ffffffffffffffffffffffffffffffffffffffff1660009081526034602052604090205490565b6101fd610da9565b6103c97f000000000000000000000000000000000000000000000000000000000000000081565b60375473ffffffffffffffffffffffffffffffffffffffff166103c9565b6102b5610db8565b6104eb6104e636600461226a565b610dc3565b60408051921515835260208301919091520161020a565b6102b5600181565b6102ab610518366004612128565b610ecc565b6102ab61052b3660046123d3565b610ed7565b6102b5610221366004612231565b6102b561054c366004612154565b73ffffffffffffffffffffffffffffffffffffffff1660009081526038602052604090205470010000000000000000000000000000000090046fffffffffffffffffffffffffffffffff1690565b6102ab6105a8366004612154565b61129c565b6102b57f323db0410fecc107e39e2af5908671f4c8d106123b35a51501bb805c5fa36aa081565b6102b56105e23660046124a8565b61147a565b6060603b80546105f6906124dd565b80601f0160208091040260200160405190810160405280929190818152602001828054610622906124dd565b801561066f5780601f106106445761010080835404028352916020019161066f565b820191906000526020600020905b81548152906001019060200180831161065257829003601f168201915b5050505050905090565b604080518082018252600281527f3830000000000000000000000000000000000000000000000000000000000000602082015290517f08c379a00000000000000000000000000000000000000000000000000000000081526000916106e0916004016120e0565b60405180910390fd5b60408051808201909152600281527f3737000000000000000000000000000000000000000000000000000000000000602082015273ffffffffffffffffffffffffffffffffffffffff881661076b576040517f08c379a00000000000000000000000000000000000000000000000000000000081526004016106e091906120e0565b50834211156040518060400160405280600281526020017f3738000000000000000000000000000000000000000000000000000000000000815250906107de576040517f08c379a00000000000000000000000000000000000000000000000000000000081526004016106e091906120e0565b5073ffffffffffffffffffffffffffffffffffffffff87166000908152603460205260408120549061080e610c65565b604080517f323db0410fecc107e39e2af5908671f4c8d106123b35a51501bb805c5fa36aa0602082015273ffffffffffffffffffffffffffffffffffffffff8b1691810191909152606081018990526080810184905260a0810188905260c001604051602081830303815290604052805190602001206040516020016108c69291907f190100000000000000000000000000000000000000000000000000000000000081526002810192909252602282015260420190565b604080517fffffffffffffffffffffffffffffffffffffffffffffffffffffffffffffffe081840301815282825280516020918201206000845290830180835281905260ff8816918301919091526060820186905260808201859052915060019060a0016020604051602081039080840390855afa15801561094c573d6000803e3d6000fd5b5050506020604051035173ffffffffffffffffffffffffffffffffffffffff168973ffffffffffffffffffffffffffffffffffffffff16146040518060400160405280600281526020017f3739000000000000000000000000000000000000000000000000000000000000815250906109f2576040517f08c379a00000000000000000000000000000000000000000000000000000000081526004016106e091906120e0565b506109fe826001612560565b73ffffffffffffffffffffffffffffffffffffffff8a16600090815260346020526040902055610a2f89898961153f565b505050505050505050565b6037546040517f386497fd00000000000000000000000000000000000000000000000000000000815273ffffffffffffffffffffffffffffffffffffffff9182166004820152600091610aff917f00000000000000000000000000000000000000000000000000000000000000009091169063386497fd90602401602060405180830381865afa158015610ad2573d6000803e3d6000fd5b505050506040513d601f19601f82011682018060405250810190610af69190612578565b603a54906115b6565b905090565b60408051808201909152600281527f32330000000000000000000000000000000000000000000000000000000000006020820152337f000000000000000000000000000000000000000000000000000000000000000073ffffffffffffffffffffffffffffffffffffffff1614610ba8576040517f08c379a00000000000000000000000000000000000000000000000000000000081526004016106e091906120e0565b506040517f662aa11d00000000000000000000000000000000000000000000000000000000815230600482015273ffffffffffffffffffffffffffffffffffffffff82811660248301527f0000000000000000000000000000000000000000000000000000000000000000169063662aa11d906044016020604051808303816000875af1158015610c3d573d6000803e3d6000fd5b505050506040513d601f19601f82011682018060405250810190610c619190612578565b5050565b60007f0000000000000000000000000000000000000000000000000000000000000000461415610c96575060355490565b610aff61160d565b73ffffffffffffffffffffffffffffffffffffffff81166000908152603860205260408120546fffffffffffffffffffffffffffffffff1680610ce45750600092915050565b6037546040517f386497fd00000000000000000000000000000000000000000000000000000000815273ffffffffffffffffffffffffffffffffffffffff9182166004820152610da2917f0000000000000000000000000000000000000000000000000000000000000000169063386497fd90602401602060405180830381865afa158015610d77573d6000803e3d6000fd5b505050506040513d601f19601f82011682018060405250810190610d9b9190612578565b82906115b6565b9392505050565b6060603c80546105f6906124dd565b6000610aff603a5490565b60408051808201909152600281527f323300000000000000000000000000000000000000000000000000000000000060208201526000908190337f000000000000000000000000000000000000000000000000000000000000000073ffffffffffffffffffffffffffffffffffffffff1614610e6c576040517f08c379a00000000000000000000000000000000000000000000000000000000081526004016106e091906120e0565b508473ffffffffffffffffffffffffffffffffffffffff168673ffffffffffffffffffffffffffffffffffffffff1614610eab57610eab8587866116d2565b610eb786868686611792565b610ebf610db8565b9150915094509492505050565b610c6133838361153f565b6001805460ff1680610ee85750303b155b80610ef4575060005481115b610f80576040517f08c379a000000000000000000000000000000000000000000000000000000000815260206004820152602e60248201527f436f6e747261637420696e7374616e63652068617320616c726561647920626560448201527f656e20696e697469616c697a656400000000000000000000000000000000000060648201526084016106e0565b60015460ff16158015610fbd57600180547fffffffffffffffffffffffffffffffffffffffffffffffffffffffffffffff00168117905560008290555b7f000000000000000000000000000000000000000000000000000000000000000073ffffffffffffffffffffffffffffffffffffffff168a73ffffffffffffffffffffffffffffffffffffffff16146040518060400160405280600281526020017f38370000000000000000000000000000000000000000000000000000000000008152509061107a576040517f08c379a00000000000000000000000000000000000000000000000000000000081526004016106e091906120e0565b50611084866119d3565b61108d856119e6565b603d80546037805473ffffffffffffffffffffffffffffffffffffffff8d81167fffffffffffffffffffffffff0000000000000000000000000000000000000000909216919091179091558a16610100027fffffffffffffffffffffff00000000000000000000000000000000000000000090911660ff8a161717905561111261160d565b6035557f000000000000000000000000000000000000000000000000000000000000000073ffffffffffffffffffffffffffffffffffffffff16156111d2577f000000000000000000000000000000000000000000000000000000000000000073ffffffffffffffffffffffffffffffffffffffff16634e606c476040518163ffffffff1660e01b8152600401600060405180830381600087803b1580156111b957600080fd5b505af11580156111cd573d6000803e3d6000fd5b505050505b7f000000000000000000000000000000000000000000000000000000000000000073ffffffffffffffffffffffffffffffffffffffff168973ffffffffffffffffffffffffffffffffffffffff167f40251fbfb6656cfa65a00d7879029fec1fad21d28fdcff2f4f68f52795b74f2c8a8a8a8a8a8a60405161125996959493929190612591565b60405180910390a3801561129057600180547fffffffffffffffffffffffffffffffffffffffffffffffffffffffffffffff001690555b50505050505050505050565b60007f000000000000000000000000000000000000000000000000000000000000000073ffffffffffffffffffffffffffffffffffffffff1663707cd7166040518163ffffffff1660e01b8152600401602060405180830381865afa158015611309573d6000803e3d6000fd5b505050506040513d601f19601f8201168201806040525081019061132d9190612631565b6040517f7be53ca100000000000000000000000000000000000000000000000000000000815233600482015290915073ffffffffffffffffffffffffffffffffffffffff821690637be53ca190602401602060405180830381865afa15801561139a573d6000803e3d6000fd5b505050506040513d601f19601f820116820180604052508101906113be919061264e565b6040518060400160405280600181526020017f31000000000000000000000000000000000000000000000000000000000000008152509061142c576040517f08c379a00000000000000000000000000000000000000000000000000000000081526004016106e091906120e0565b5050603d805473ffffffffffffffffffffffffffffffffffffffff909216610100027fffffffffffffffffffffff0000000000000000000000000000000000000000ff909216919091179055565b60408051808201909152600281527f32330000000000000000000000000000000000000000000000000000000000006020820152600090337f000000000000000000000000000000000000000000000000000000000000000073ffffffffffffffffffffffffffffffffffffffff1614611521576040517f08c379a00000000000000000000000000000000000000000000000000000000081526004016106e091906120e0565b5061152f84600085856119f9565b611537610db8565b949350505050565b73ffffffffffffffffffffffffffffffffffffffff83811660008181526036602090815260408083208786168085529083529281902086905560375490518681529416939192917fda919360433220e13b51e8c211e490d148e61a3bd53de8c097194e458b97f3e1910160405180910390a4505050565b600081157ffffffffffffffffffffffffffffffffffffffffffe6268e1b017bfe18bffffff839004841115176115eb57600080fd5b506b033b2e3c9fd0803ce800000091026b019d971e4fe8401e74000000010490565b60007f8b73c3c69bb8fe3d512ecc4cf759cc79239f7b179b0ffacaa9a75d522b39400f611638611d16565b8051602091820120604080518082018252600181527f310000000000000000000000000000000000000000000000000000000000000090840152805192830193909352918101919091527fc89efdaa54c0f20c7adf612882df0950f5a951637e0307cdcb4c672f298b8bc660608201524660808201523060a082015260c00160405160208183030381529060405280519060200120905090565b73ffffffffffffffffffffffffffffffffffffffff8084166000908152603660209081526040808320938616835292905290812054611712908390612670565b73ffffffffffffffffffffffffffffffffffffffff808616600081815260366020908152604080832089861680855292529182902085905560375491519495509216927fda919360433220e13b51e8c211e490d148e61a3bd53de8c097194e458b97f3e1906117849086815260200190565b60405180910390a450505050565b60008061179f8484611d20565b60408051808201909152600281527f323400000000000000000000000000000000000000000000000000000000000060208201529091508161180e576040517f08c379a00000000000000000000000000000000000000000000000000000000081526004016106e091906120e0565b5073ffffffffffffffffffffffffffffffffffffffff85166000908152603860205260408120546fffffffffffffffffffffffffffffffff808216929161186b9184917001000000000000000000000000000000009004166115b6565b61187583876115b6565b61187f9190612670565b905061188a85611d5f565b73ffffffffffffffffffffffffffffffffffffffff8816600090815260386020526040902080546fffffffffffffffffffffffffffffffff9283167001000000000000000000000000000000000292169190911790556118f2876118ed85611d5f565b611e05565b60006118fe8288612560565b90508773ffffffffffffffffffffffffffffffffffffffff16600073ffffffffffffffffffffffffffffffffffffffff167fddf252ad1be2c89b69c2b068fc378daa952ba7f163c4a11628f55a4df523b3ef8360405161196091815260200190565b60405180910390a3604080518281526020810184905290810187905273ffffffffffffffffffffffffffffffffffffffff808a1691908b16907f458f5fa412d0f69b08dd84872b0215675cc67bc1d5b6fd93300a1c3878b861969060600160405180910390a35050159695505050505050565b8051610c6190603b906020840190611fe5565b8051610c6190603c906020840190611fe5565b6000611a058383611d20565b60408051808201909152600281527f3235000000000000000000000000000000000000000000000000000000000000602082015290915081611a74576040517f08c379a00000000000000000000000000000000000000000000000000000000081526004016106e091906120e0565b5073ffffffffffffffffffffffffffffffffffffffff85166000908152603860205260408120546fffffffffffffffffffffffffffffffff8082169291611ad19184917001000000000000000000000000000000009004166115b6565b611adb83866115b6565b611ae59190612670565b9050611af084611d5f565b73ffffffffffffffffffffffffffffffffffffffff8816600090815260386020526040902080546fffffffffffffffffffffffffffffffff928316700100000000000000000000000000000000029216919091179055611b5887611b5385611d5f565b611f81565b84811115611c37576000611b6c8683612670565b90508773ffffffffffffffffffffffffffffffffffffffff16600073ffffffffffffffffffffffffffffffffffffffff167fddf252ad1be2c89b69c2b068fc378daa952ba7f163c4a11628f55a4df523b3ef83604051611bce91815260200190565b60405180910390a3604080518281526020810184905290810186905273ffffffffffffffffffffffffffffffffffffffff89169081907f458f5fa412d0f69b08dd84872b0215675cc67bc1d5b6fd93300a1c3878b861969060600160405180910390a350611d0d565b6000611c438287612670565b9050600073ffffffffffffffffffffffffffffffffffffffff168873ffffffffffffffffffffffffffffffffffffffff167fddf252ad1be2c89b69c2b068fc378daa952ba7f163c4a11628f55a4df523b3ef83604051611ca591815260200190565b60405180910390a3604080518281526020810184905290810186905273ffffffffffffffffffffffffffffffffffffffff80891691908a16907f4cf25bc1d991c17529c25213d3cc0cda295eeaad5f13f361969b12ea48015f909060600160405180910390a3505b50505050505050565b6060610aff6105e7565b600081156b033b2e3c9fd0803ce800000060028404190484111715611d4457600080fd5b506b033b2e3c9fd0803ce80000009190910260028204010490565b60006fffffffffffffffffffffffffffffffff821115611e01576040517f08c379a000000000000000000000000000000000000000000000000000000000815260206004820152602760248201527f53616665436173743a2076616c756520646f65736e27742066697420696e203160448201527f323820626974730000000000000000000000000000000000000000000000000060648201526084016106e0565b5090565b603a54611e246fffffffffffffffffffffffffffffffff831682612560565b603a5573ffffffffffffffffffffffffffffffffffffffff83166000908152603860205260409020546fffffffffffffffffffffffffffffffff16611e698382612687565b73ffffffffffffffffffffffffffffffffffffffff858116600090815260386020526040902080547fffffffffffffffffffffffffffffffff00000000000000000000000000000000166fffffffffffffffffffffffffffffffff9390931692909217909155603d546101009004168015611f7a576040517f31873e2e00000000000000000000000000000000000000000000000000000000815273ffffffffffffffffffffffffffffffffffffffff8681166004830152602482018590526fffffffffffffffffffffffffffffffff841660448301528216906331873e2e90606401600060405180830381600087803b158015611f6657600080fd5b505af1158015610a2f573d6000803e3d6000fd5b5050505050565b603a54611fa06fffffffffffffffffffffffffffffffff831682612670565b603a5573ffffffffffffffffffffffffffffffffffffffff83166000908152603860205260409020546fffffffffffffffffffffffffffffffff16611e6983826126bb565b828054611ff1906124dd565b90600052602060002090601f0160209004810192826120135760008555612059565b82601f1061202c57805160ff1916838001178555612059565b82800160010185558215612059579182015b8281111561205957825182559160200191906001019061203e565b50611e019291505b80821115611e015760008155600101612061565b6000815180845260005b8181101561209b5760208185018101518683018201520161207f565b818111156120ad576000602083870101525b50601f017fffffffffffffffffffffffffffffffffffffffffffffffffffffffffffffffe0169290920160200192915050565b602081526000610da26020830184612075565b73ffffffffffffffffffffffffffffffffffffffff8116811461211557600080fd5b50565b8035612123816120f3565b919050565b6000806040838503121561213b57600080fd5b8235612146816120f3565b946020939093013593505050565b60006020828403121561216657600080fd5b8135610da2816120f3565b803560ff8116811461212357600080fd5b600080600080600080600060e0888a03121561219d57600080fd5b87356121a8816120f3565b965060208801356121b8816120f3565b955060408801359450606088013593506121d460808901612171565b925060a0880135915060c0880135905092959891949750929550565b60008060006060848603121561220557600080fd5b8335612210816120f3565b92506020840135612220816120f3565b929592945050506040919091013590565b6000806040838503121561224457600080fd5b823561224f816120f3565b9150602083013561225f816120f3565b809150509250929050565b6000806000806080858703121561228057600080fd5b843561228b816120f3565b9350602085013561229b816120f3565b93969395505050506040820135916060013590565b7f4e487b7100000000000000000000000000000000000000000000000000000000600052604160045260246000fd5b600082601f8301126122f057600080fd5b813567ffffffffffffffff8082111561230b5761230b6122b0565b604051601f83017fffffffffffffffffffffffffffffffffffffffffffffffffffffffffffffffe0908116603f01168101908282118183101715612351576123516122b0565b8160405283815286602085880101111561236a57600080fd5b836020870160208301376000602085830101528094505050505092915050565b60008083601f84011261239c57600080fd5b50813567ffffffffffffffff8111156123b457600080fd5b6020830191508360208285010111156123cc57600080fd5b9250929050565b60008060008060008060008060e0898b0312156123ef57600080fd5b88356123fa816120f3565b9750602089013561240a816120f3565b965061241860408a01612118565b955061242660608a01612171565b9450608089013567ffffffffffffffff8082111561244357600080fd5b61244f8c838d016122df565b955060a08b013591508082111561246557600080fd5b6124718c838d016122df565b945060c08b013591508082111561248757600080fd5b506124948b828c0161238a565b999c989b5096995094979396929594505050565b6000806000606084860312156124bd57600080fd5b83356124c8816120f3565b95602085013595506040909401359392505050565b600181811c908216806124f157607f821691505b6020821081141561252b577f4e487b7100000000000000000000000000000000000000000000000000000000600052602260045260246000fd5b50919050565b7f4e487b7100000000000000000000000000000000000000000000000000000000600052601160045260246000fd5b6000821982111561257357612573612531565b500190565b60006020828403121561258a57600080fd5b5051919050565b73ffffffffffffffffffffffffffffffffffffffff8716815260ff8616602082015260a0604082015260006125c960a0830187612075565b82810360608401526125db8187612075565b905082810360808401528381528385602083013760006020858301015260207fffffffffffffffffffffffffffffffffffffffffffffffffffffffffffffffe0601f860116820101915050979650505050505050565b60006020828403121561264357600080fd5b8151610da2816120f3565b60006020828403121561266057600080fd5b81518015158114610da257600080fd5b60008282101561268257612682612531565b500390565b60006fffffffffffffffffffffffffffffffff8083168185168083038211156126b2576126b2612531565b01949350505050565b60006fffffffffffffffffffffffffffffffff838116908316818110156126e4576126e4612531565b03939250505056fea26469706673582212204f6e6949205a3dfa3580789241979b11053186a9fbb49194999fec91d03d7fd464736f6c634300080a0033",
  "devdoc": {
    "author": "Aave",
    "details": "Transfer and approve functionalities are disabled since its a non-transferable token",
    "kind": "dev",
    "methods": {
      "DOMAIN_SEPARATOR()": {
        "details": "Return cached value if chainId matches cache, otherwise recomputes separator",
        "returns": {
          "_0": "The domain separator of the token at current chain"
        }
      },
      "UNDERLYING_ASSET_ADDRESS()": {
        "returns": {
          "_0": "The address of the underlying asset"
        }
      },
      "approveDelegation(address,uint256)": {
        "params": {
          "amount": "The maximum amount being delegated.",
          "delegatee": "The address receiving the delegated borrowing power"
        }
      },
      "balanceOf(address)": {
        "details": "Returns the amount of tokens owned by `account`."
      },
      "borrowAllowance(address,address)": {
        "params": {
          "fromUser": "The user to giving allowance",
          "toUser": "The user to give allowance to"
        },
        "returns": {
          "_0": "The current allowance of `toUser`"
        }
      },
      "burn(address,uint256,uint256)": {
        "details": "In some instances, a burn transaction will emit a mint event if the amount to burn is less than the interest that the user accrued",
        "params": {
          "amount": "The amount getting burned",
          "from": "The address from which the debt will be burned",
          "index": "The variable debt index of the reserve"
        },
        "returns": {
          "_0": "The scaled total debt of the reserve"
        }
      },
      "constructor": {
        "details": "Constructor.",
        "params": {
          "pool": "The address of the Pool contract"
        }
      },
      "delegationWithSig(address,address,uint256,uint256,uint8,bytes32,bytes32)": {
        "params": {
          "deadline": "The deadline timestamp, type(uint256).max for max deadline",
          "delegatee": "The delegatee that can use the credit",
          "delegator": "The delegator of the credit",
          "r": "The R signature param",
          "s": "The S signature param",
          "v": "The V signature param",
          "value": "The amount to be delegated"
        }
      },
      "getIncentivesController()": {
        "returns": {
          "_0": "The address of the Incentives Controller"
        }
      },
      "getPreviousIndex(address)": {
        "params": {
          "user": "The address of the user"
        },
        "returns": {
          "_0": "The last index interest was accrued to the user's balance, expressed in ray"
        }
      },
      "getScaledUserBalanceAndSupply(address)": {
        "params": {
          "user": "The address of the user"
        },
        "returns": {
          "_0": "The scaled balance of the user",
          "_1": "The scaled total supply"
        }
      },
      "initialize(address,address,address,uint8,string,string,bytes)": {
        "params": {
          "debtTokenDecimals": "The decimals of the debtToken, same as the underlying asset's",
          "debtTokenName": "The name of the token",
          "debtTokenSymbol": "The symbol of the token",
          "incentivesController": "The smart contract managing potential incentives distribution",
          "params": "A set of encoded parameters for additional initialization",
          "pool": "The pool contract that is initializing this contract",
          "underlyingAsset": "The address of the underlying asset of this aToken (E.g. WETH for aWETH)"
        }
      },
      "mint(address,address,uint256,uint256)": {
        "params": {
          "amount": "The amount of debt being minted",
          "index": "The variable debt index of the reserve",
          "onBehalfOf": "The address receiving the debt tokens",
          "user": "The address receiving the borrowed underlying, being the delegatee in case of credit delegate, or same as `onBehalfOf` otherwise"
        },
        "returns": {
          "_0": "True if the previous balance of the user is 0, false otherwise",
          "_1": "The scaled total debt of the reserve"
        }
      },
      "nonces(address)": {
        "params": {
          "owner": "The address for which the nonce is being returned"
        },
        "returns": {
          "_0": "The nonce value for the input address`"
        }
      },
      "scaledBalanceOf(address)": {
        "details": "The scaled balance is the sum of all the updated stored balance divided by the reserve's liquidity index at the moment of the update",
        "params": {
          "user": "The user whose balance is calculated"
        },
        "returns": {
          "_0": "The scaled balance of the user"
        }
      },
      "scaledTotalSupply()": {
        "returns": {
          "_0": "The scaled total supply"
        }
      },
      "setIncentivesController(address)": {
        "params": {
          "controller": "the new Incentives controller"
        }
      },
      "totalSupply()": {
        "details": "Returns the amount of tokens in existence."
      },
      "transfer(address,uint256)": {
        "details": "Being non transferrable, the debt token does not implement any of the standard ERC20 functions for transfer and allowance."
      }
    },
    "title": "VariableDebtToken",
    "version": 1
  },
  "userdoc": {
    "kind": "user",
    "methods": {
      "DOMAIN_SEPARATOR()": {
        "notice": "Get the domain separator for the token"
      },
      "UNDERLYING_ASSET_ADDRESS()": {
        "notice": "Returns the address of the underlying asset of this debtToken (E.g. WETH for variableDebtWETH)"
      },
      "approveDelegation(address,uint256)": {
        "notice": "Delegates borrowing power to a user on the specific debt token. Delegation will still respect the liquidation constraints (even if delegated, a delegatee cannot force a delegator HF to go below 1)"
      },
      "borrowAllowance(address,address)": {
        "notice": "Returns the borrow allowance of the user"
      },
      "burn(address,uint256,uint256)": {
        "notice": "Burns user variable debt"
      },
      "delegationWithSig(address,address,uint256,uint256,uint8,bytes32,bytes32)": {
        "notice": "Delegates borrowing power to a user on the specific debt token via ERC712 signature"
      },
      "getIncentivesController()": {
        "notice": "Returns the address of the Incentives Controller contract"
      },
      "getPreviousIndex(address)": {
        "notice": "Returns last index interest was accrued to the user's balance"
      },
      "getScaledUserBalanceAndSupply(address)": {
        "notice": "Returns the scaled balance of the user and the scaled total supply."
      },
      "initialize(address,address,address,uint8,string,string,bytes)": {
        "notice": "Initializes the debt token."
      },
      "mint(address,address,uint256,uint256)": {
        "notice": "Mints debt token to the `onBehalfOf` address"
      },
      "nonces(address)": {
        "notice": "Returns the nonce value for address specified as parameter"
      },
      "scaledBalanceOf(address)": {
        "notice": "Returns the scaled balance of the user."
      },
      "scaledTotalSupply()": {
        "notice": "Returns the scaled total supply of the scaled balance token. Represents sum(debt/index)"
      },
      "setIncentivesController(address)": {
        "notice": "Sets a new Incentives Controller"
      }
    },
    "notice": "Implements a variable debt token to track the borrowing positions of users at variable rate mode",
    "version": 1
  },
  "storageLayout": {
    "storage": [
      {
        "astId": 10303,
        "contract": "contracts/core-v3/contracts/protocol/tokenization/VariableDebtToken.sol:VariableDebtToken",
        "label": "lastInitializedRevision",
        "offset": 0,
        "slot": "0",
        "type": "t_uint256"
      },
      {
        "astId": 10306,
        "contract": "contracts/core-v3/contracts/protocol/tokenization/VariableDebtToken.sol:VariableDebtToken",
        "label": "initializing",
        "offset": 0,
        "slot": "1",
        "type": "t_bool"
      },
      {
        "astId": 10376,
        "contract": "contracts/core-v3/contracts/protocol/tokenization/VariableDebtToken.sol:VariableDebtToken",
        "label": "______gap",
        "offset": 0,
        "slot": "2",
        "type": "t_array(t_uint256)50_storage"
      },
      {
        "astId": 28627,
        "contract": "contracts/core-v3/contracts/protocol/tokenization/VariableDebtToken.sol:VariableDebtToken",
        "label": "_nonces",
        "offset": 0,
        "slot": "52",
        "type": "t_mapping(t_address,t_uint256)"
      },
      {
        "astId": 28629,
        "contract": "contracts/core-v3/contracts/protocol/tokenization/VariableDebtToken.sol:VariableDebtToken",
        "label": "_domainSeparator",
        "offset": 0,
        "slot": "53",
        "type": "t_bytes32"
      },
      {
        "astId": 28404,
        "contract": "contracts/core-v3/contracts/protocol/tokenization/VariableDebtToken.sol:VariableDebtToken",
        "label": "_borrowAllowances",
        "offset": 0,
        "slot": "54",
        "type": "t_mapping(t_address,t_mapping(t_address,t_uint256))"
      },
      {
        "astId": 28411,
        "contract": "contracts/core-v3/contracts/protocol/tokenization/VariableDebtToken.sol:VariableDebtToken",
        "label": "_underlyingAsset",
        "offset": 0,
        "slot": "55",
        "type": "t_address"
      },
      {
        "astId": 28793,
        "contract": "contracts/core-v3/contracts/protocol/tokenization/VariableDebtToken.sol:VariableDebtToken",
        "label": "_userState",
        "offset": 0,
        "slot": "56",
        "type": "t_mapping(t_address,t_struct(UserState)28788_storage)"
      },
      {
        "astId": 28799,
        "contract": "contracts/core-v3/contracts/protocol/tokenization/VariableDebtToken.sol:VariableDebtToken",
        "label": "_allowances",
        "offset": 0,
        "slot": "57",
        "type": "t_mapping(t_address,t_mapping(t_address,t_uint256))"
      },
      {
        "astId": 28801,
        "contract": "contracts/core-v3/contracts/protocol/tokenization/VariableDebtToken.sol:VariableDebtToken",
        "label": "_totalSupply",
        "offset": 0,
        "slot": "58",
        "type": "t_uint256"
      },
      {
        "astId": 28803,
        "contract": "contracts/core-v3/contracts/protocol/tokenization/VariableDebtToken.sol:VariableDebtToken",
        "label": "_name",
        "offset": 0,
        "slot": "59",
        "type": "t_string_storage"
      },
      {
        "astId": 28805,
        "contract": "contracts/core-v3/contracts/protocol/tokenization/VariableDebtToken.sol:VariableDebtToken",
        "label": "_symbol",
        "offset": 0,
        "slot": "60",
        "type": "t_string_storage"
      },
      {
        "astId": 28807,
        "contract": "contracts/core-v3/contracts/protocol/tokenization/VariableDebtToken.sol:VariableDebtToken",
        "label": "_decimals",
        "offset": 0,
        "slot": "61",
        "type": "t_uint8"
      },
      {
        "astId": 28810,
        "contract": "contracts/core-v3/contracts/protocol/tokenization/VariableDebtToken.sol:VariableDebtToken",
        "label": "_incentivesController",
        "offset": 1,
        "slot": "61",
        "type": "t_contract(IAaveIncentivesController)4783"
      }
    ],
    "types": {
      "t_address": {
        "encoding": "inplace",
        "label": "address",
        "numberOfBytes": "20"
      },
      "t_array(t_uint256)50_storage": {
        "base": "t_uint256",
        "encoding": "inplace",
        "label": "uint256[50]",
        "numberOfBytes": "1600"
      },
      "t_bool": {
        "encoding": "inplace",
        "label": "bool",
        "numberOfBytes": "1"
      },
      "t_bytes32": {
        "encoding": "inplace",
        "label": "bytes32",
        "numberOfBytes": "32"
      },
      "t_contract(IAaveIncentivesController)4783": {
        "encoding": "inplace",
        "label": "contract IAaveIncentivesController",
        "numberOfBytes": "20"
      },
      "t_mapping(t_address,t_mapping(t_address,t_uint256))": {
        "encoding": "mapping",
        "key": "t_address",
        "label": "mapping(address => mapping(address => uint256))",
        "numberOfBytes": "32",
        "value": "t_mapping(t_address,t_uint256)"
      },
      "t_mapping(t_address,t_struct(UserState)28788_storage)": {
        "encoding": "mapping",
        "key": "t_address",
        "label": "mapping(address => struct IncentivizedERC20.UserState)",
        "numberOfBytes": "32",
        "value": "t_struct(UserState)28788_storage"
      },
      "t_mapping(t_address,t_uint256)": {
        "encoding": "mapping",
        "key": "t_address",
        "label": "mapping(address => uint256)",
        "numberOfBytes": "32",
        "value": "t_uint256"
      },
      "t_string_storage": {
        "encoding": "bytes",
        "label": "string",
        "numberOfBytes": "32"
      },
      "t_struct(UserState)28788_storage": {
        "encoding": "inplace",
        "label": "struct IncentivizedERC20.UserState",
        "members": [
          {
            "astId": 28785,
            "contract": "contracts/core-v3/contracts/protocol/tokenization/VariableDebtToken.sol:VariableDebtToken",
            "label": "balance",
            "offset": 0,
            "slot": "0",
            "type": "t_uint128"
          },
          {
            "astId": 28787,
            "contract": "contracts/core-v3/contracts/protocol/tokenization/VariableDebtToken.sol:VariableDebtToken",
            "label": "additionalData",
            "offset": 16,
            "slot": "0",
            "type": "t_uint128"
          }
        ],
        "numberOfBytes": "32"
      },
      "t_uint128": {
        "encoding": "inplace",
        "label": "uint128",
        "numberOfBytes": "16"
      },
      "t_uint256": {
        "encoding": "inplace",
        "label": "uint256",
        "numberOfBytes": "32"
      },
      "t_uint8": {
        "encoding": "inplace",
        "label": "uint8",
        "numberOfBytes": "1"
      }
    }
  }
}